:1000000008EF05F0F76A140FF66E000EF7220900EC
:10001000F5501200280C0106F76A280FF66E000E44
:10002000F7220900F550120031323341343536429F
:10003000373839432A302344F76A480FF66E000EEA
:10004000F7220900F55012002020204249454E5663
:10005000454E49444F5320200000F76A6A0FF66E60
:10006000000EF7220900F55012004152512E204394
:100070004F4D502E2054415244450000F76A8C0FDA
:10008000F66E000EF7220900F55012004D49475553
:10009000454C204D454E44455A00F76AAA0FF66E6E
:1000A000000EF7220900F550120020444156494441
:1000B000204D415254494E455A200000F76ACC0F5A
:1000C000F66E000EF7220900F55012004752555007
:1000D0004F00F76AE20FF66E000EF7220900F550A6
:1000E0001200204E554D45524F00F76AFA0FF66E3A
:1000F000000EF7220900F5501200504F52204641E1
:10010000564F5200F76A140FF66E010EF7220900DF
:10011000F5501200494E475245534520434C415635
:100120004500F76A320FF66E010EF7220900F5500E
:1001300012004249454E56454E49444F5320414CCA
:100140000000F76A520FF66E010EF7220900F55013
:100150001200204D454E5500F76A680FF66E010EED
:10016000F7220900F55012004D41525155452031FA
:10017000205041524120454C0000F76A8A0FF66E2C
:10018000010EF7220900F55012004D454E5520444E
:100190004520444156494400F76AA80FF66E010E07
:1001A000F7220900F55012004D41525155452032B9
:1001B000205041524120454C0000F76ACA0FF66EAC
:1001C000010EF7220900F55012004D454E5520440E
:1001D00045204D494755454C0000F76AEA0FF66E39
:1001E000010EF7220900F55012004D4152515545BC
:1001F00020332050415241200000F76A0A0FF66E6A
:10020000020EF7220900F550120053414C495200EA
:10021000F76A200FF66E020EF7220900F550120061
:100220004552524F52204445204E554D45524F00A5
:10023000F76A400FF66E020EF7220900F550120021
:100240004D454E552055535541522E00F76A5C0FCF
:10025000F66E020EF7220900F55012004D4947557F
:10026000454C0000F76A740FF66E020EF722090083
:10027000F55012004D4152515545204E554D2050DC
:1002800041524100F76A940FF66E020EF722090000
:10029000F5501200312043414D4249415220434C18
:1002A00041564500F76AB40FF66E020EF7220900B8
:1002B000F550120032204645434841205920484F0E
:1002C00052410000F76AD40FF66E020EF7220900C1
:1002D000F550120033205245504F52544553000000
:1002E000F76AF00FF66E020EF7220900F5501200C1
:1002F00034204D4F544F5220504153204120504103
:100300000000F76A120FF66E030EF7220900F5508F
:1003100012003520534552564F4D4F544F52000056
:10032000F76A300FF66E030EF7220900F55012003F
:10033000362043414400F76A460FF66E030EF7225B
:100340000900F5501200372044544D460000F76A6A
:100350005E0FF66E030EF7220900F55012003820EA
:1003600053454E534F5245530000F76A7A0FF66ECD
:10037000030EF7220900F5501200392053414C4971
:100380005200F76A920FF66E030EF7220900F5503D
:1003900012004D454E2043414D4249415220434CAD
:1003A00041560000F76AB40FF66E030EF7220900FB
:1003B000F5501200454E20434F4E5354525543437F
:1003C000494F4E00F76AD40FF66E030EF72209006C
:1003D000F55012004D454E204645434841205920D6
:1003E000484F52410000F76AF60FF66E030EF722EF
:1003F0000900F55012004D454E55205245504F52C0
:1004000054455300F76A140FF66E040EF7220900E4
:10041000F55012004D454E204D4F544F5220504143
:100420005320412E0000F76A360FF66E040EF722B5
:100430000900F55012004D454E20534552564F4D80
:100440004F544F520000F76A560FF66E040EF72213
:100450000900F55012004D454E552043414400001F
:10046000F76A700FF66E040EF7220900F5501200BD
:100470004D454E2044544D460000F76A8A0FF66EF3
:10048000040EF7220900F55012004D454E20534549
:100490004E534F5245530000F76AA80FF66E040EF4
:1004A000F7220900F5501200444156494400F76A0A
:1004B000BE0FF66E040EF7220900F5501200434FEE
:1004C0004E5452412E204552524F4E454100EA6A49
:1004D000230EE96EEF500DE0060E016E006A002E4D
:1004E000FED7012EFBD77B0E006E002EFED7EF2E1F
:1004F000F3D7000C2B2C01D02A882C6A2C5004082E
:1005000011E3D8902A3202E28D9001D08D8096902E
:10051000000096928D9200D000D0000096928D82BD
:100520002C2AECD796948D84030E006E002EFED7F5
:1005300096948D94000C0B6AA60E006E002EFED7CA
:100540000000275203E0010E0B6E01D00B6A000081
:1005500096948D942838296E0F0E291629C02AF0FA
:100560000BC02BF0C7DF28500F0B296E2A6E0BC073
:100570002BF0C0DF000C0B6A96948D94140E236E42
:10058000A6DF216A215002080AE3030E2A6E0BC07F
:100590002BF0B0DF050E236E9ADF212AF3D7020E6F
:1005A0002A6E0BC02BF0A6DF216A2150030811E34D
:1005B000036A2150F2CF22F0F29E24DD22BEF28E99
:1005C000226E276A286EB7DF050E236E80DF212A90
:1005D000ECD72BEF05F02CEF05F0010E245CFC0F9F
:1005E0000FE2040F0AEF03F0800E256E09D0C00E53
:1005F000256E06D0940E256E03D0D40E256E00D045
:10060000010E235C252625508009266E276A286E58
:1006100092DF000CE824F76AF7362F0FF66E060E0D
:10062000F7220A00F550FA6E0800F550F96EE80559
:10063000EE05F405FA0522500C0A0BE0060A13E059
:10064000020A18E06B0A1BE0040A1EE00F0A21E010
:1006500025D0276A010E286E6EDF010E0C6E080E83
:10066000236E35DF21D00C2A010E236E0CC024F03E
:10067000B4DF1AD0276A100E286E5DDF15D0276A06
:100680000C0E286E58DF10D0276A0F0E286E53DF2D
:100690000BD0276A0F0E286E4EDF06D0010E276E94
:1006A00022C028F048DF00D0000C8E0E006E24C05F
:1006B00001F023C002F0036A015209E102C001F017
:1006C000026A080E005E015202E1006A08D0D8906A
:1006D00001BE04D0023601360006F9D7019EB4EF00
:1006E00003F024C02BF028502B1A2BAE05D0D89441
:1006F000D89024BED8802FD024C02BF027C02CF057
:1007000023502C5E06E02BAE26D0D850010AD86EBE
:1007100022D028C02CF024502C5E06E02BAE1BD03B
:10072000D850010AD86E17D029C02CF025502C5E65
:1007300006E02BAE10D0D850010AD86E0CD02AC0DB
:100740002CF026502C5E06E02BAE05D0D850010AC6
:10075000D86E01D0D890C5EF03F0F19E216A0D2A22
:10076000246A0DC023F0A1D7CD0E266ECC0E256EC7
:100770004C0E246E7C0E236E03C02AF002C029F0BA
:1007800001C028F000C027F0ACD75BE31050FC0F8D
:1007900017E2040F28EF04F0F00E936E0E0E816E38
:1007A0000FD0F00E936E0D0E816E0AD0F00E936E88
:1007B0000B0E816E05D0F00E936E070E816E00D089
:1007C0000EA009D08150F00BF00804E10E900FC08C
:1007D00021F00F6A35D08150F00BF0082CE08150E9
:1007E000100B02E1226A11D08150200B03E1010EAF
:1007F000226E0BD08150400B03E1020E226E05D019
:100800008150800B02E1030E226E2250040DF35042
:10081000246A236E036A10502324016E245003229D
:100820000150F2CF23F0F29E0CEC00F023BEF28ECA
:100830000F6E0E8005D0102A1050040801E1106AD6
:100840000D6A0FC021F0F00E936E21C001F0000C74
:10085000E824F76AF7366B0FF66E080EF7220A00E7
:10086000F550FA6E0800F550F96E9807A207AC072C
:10087000B6070C0E226EDFDE1E6A1D6A206A1F6A32
:10088000060E126E116A11500308D8A07DD065DFE4
:1008900001C018F03C0E236E1ADE185248E0010E1B
:1008A0001124FF0FFC0F37E2040FC6EF04F0300EE7
:1008B000185C146E143A060E236E010E246E8DDE43
:1008C0002A0E226EB8DE320E236E01DE24D0300EE8
:1008D000185C156E155014262A0E226EACDE320EF0
:1008E000236EF5DD18D0300E185C166E163A2A0EFF
:1008F000226EA1DE320E236EEADD0DD0300E185CC2
:10090000176E17501624156E2A0E226E94DE320EC4
:10091000236EDDDD00D0112A020E216EFA0E236E49
:10092000D6DD212EFBD7206A1F6A1E6A1D6A1F2A88
:10093000D8B4202A205203E11F50140805E21D2AD2
:10094000D8B41E2A206A1F6A1150030805E31E52FC
:1009500003E11D5005089BE2036A1150140FE96E74
:10096000000E0320EA6E230EEF6E12C023F0010E7C
:10097000246E33DE2A0E226E5EDE122A206A1F6A81
:100980001E6A1D6A112A7FD7D0EF05F0E824F76AA6
:10099000F736A70FF66E090EF7220A00F550FA6E29
:1009A0000800F550F96EAE08CE08E608FC080C0EFB
:1009B000226E41DE1E6A1D6A206A1F6A0E92CDDE1B
:1009C00001C018F03C0E236E82DD18520CE0080EB8
:1009D000236E010E246E01DE18C022F02CDE300ED4
:1009E000185E0E820DD01F2AD8B4202A205203E1AF
:1009F0001F50140805E21D2AD8B41E2A206A1F6A57
:100A00001E5205E11D50050802E30EA2D8D7000CC6
:100A1000F86AD09EFE0E006E080E016E020EE96EA0
:100A2000000EEA6EEE6A002EFDD7012EFBD7EA6AB1
:100A3000E96AC150C00B0F09C16E070EB46E056A9A
:100A4000066A0D6A0E900F6A106A280E926E000EEA
:100A5000936E956E90D5BFD5926A896A936A8A6AB9
:100A6000956A8C6A0C0E226EE6DD010E236E246EF2
:100A7000B4DD216A21501CEC00F0000904E0212AB9
:100A8000226ED9DDF7D7010E236E020E246EA5DD8E
:100A9000216A21502DEC00F0000904E0212A226E89
:100AA000CADDF7D70C0E216EFA0E236E10DD212E53
:100AB000FBD70C0E226EBFDD010E236E246E8DDD82
:100AC000216A21503EEC00F0000904E0212A226E48
:100AD000B2DDF7D7010E236E020E246E7EDD216A91
:100AE00021504DEC00F0000904E0212A226EA3DD24
:100AF000F7D70C0E216EFA0E236EE9DC212EFBD700
:100B00000C0E226E98DD030E236E010E246E65DD41
:100B1000216A21505EEC00F0000904E0212A226ED7
:100B20008ADDF7D7020E236E246E57DD216A21502D
:100B300069EC00F0000904E0212A226E7CDDF7D781
:100B40000C0E216EFA0E236EC2DC212EFBD70C0E8A
:100B5000226E71DD020E236E010E246E3EDD216ACF
:100B6000215075EC00F0000904E0212A226E63DDBB
:100B7000F7D7010E236E020E246E2FDD216A21505D
:100B800082EC00F0000904E0212A226E54DDF7D740
:100B90000C0E216EFA0E236E9ADC212EFBD769D63D
:100BA0001450120802E0000E01D0010E216E155003
:100BB000340802E0000E01D0010E2114D8B4C6D0D2
:100BC0000C0E226E38DD010E236E246E06DD216AC6
:100BD000215091EC00F0000904E0212A226E2BDD67
:100BE000F7D7040E236E020E246EF7DC216A215023
:100BF000A1EC00F0000904E0212A226E1CDDF7D7E9
:100C00000C0E216EFA0E236E62DC212EFBD70C0E29
:100C1000226E11DD010E236E246EDFDC216A21506D
:100C2000ACEC00F0000904E0212A226E04DDF7D7C5
:100C3000010E236E020E246ED0DC216A2150BDEC21
:100C400000F0000904E0212A226EF5DCF7D70C0E33
:100C5000216EFA0E236E3BDC212EFBD70C0E226E8A
:100C6000EADC010E236E246EB8DC216A2150CCEC44
:100C700000F0000904E0212A226EDDDCF7D7010E26
:100C8000236E020E246EA9DC216A2150DDEC00F0F7
:100C9000000904E0212A226ECEDCF7D70C0E216E6B
:100CA000FA0E236E14DC212EFBD70C0E226EC3DC51
:100CB000010E236E246E91DC216A2150EDEC00F0D0
:100CC000000904E0212A226EB6DCF7D7010E236E5C
:100CD000020E246E82DC216A2150FDEC00F0000936
:100CE00004E0212A226EA7DCF7D70C0E216EFA0E43
:100CF000236E67EC02F0212EFAD759DE182C01D0B2
:100D0000FED21850020801E131D01850030801E169
:100D1000FF000C0E226E8FDC010E236E020E246E7D
:100D20005CDC216A215008EC01F0000904E0212A72
:100D3000226E81DCF7D70C0E216EFA0E236E67EC63
:100D400002F0212EFAD73CD763EF0CF01450440880
:100D500002E0000E01D0010E216E1550660802E07F
:100D6000000E01D0010E2114D8B4B9D20C0E226E9F
:100D700062DC010E236E246E30DC216A215018ECF7
:100D800001F0000904E0212A226E55DCF7D7010E9C
:100D9000236E020E246E21DC216A215026EC01F024
:100DA000000904E0212A226E46DCF7D70C0E216EE2
:100DB000FA0E236E67EC02F0212EFAD70C0E226E8B
:100DC0003ADC010E236E246E08DC216A215032ECDD
:100DD00001F0000904E0212A226E2DDCF7D7010E74
:100DE000236E020E246EEDEC02F0216A215042ECDB
:100DF00001F0000904E0212A226E1DDCF7D70C0E59
:100E0000216EFA0E236E67EC02F0212EFAD70C0E3B
:100E1000226E11DC010E236E246EEDEC02F0216ACD
:100E2000215052EC01F0000904E0212A226E03DC7B
:100E3000F7D7010E236E020E246EEDEC02F0216A4C
:100E4000215062EC01F0000905E0212A226E1BEC22
:100E500003F0F6D70C0E216EFA0E236E67EC02F04B
:100E6000212EFAD70C0E226E1BEC03F0010E236E1E
:100E7000246EEDEC02F0216A215070EC01F00009C3
:100E800005E0212A226E1BEC03F0F6D7010E236E3B
:100E9000020E246EEDEC02F0216A215081EC01F08B
:100EA000000905E0212A226E1BEC03F0F6D70C0E98
:100EB000216EFA0E236E67EC02F0212EFAD70C0E8B
:100EC000226E1BEC03F0010E236E246EEDEC02F09B
:100ED000216A215090EC01F0000905E0212A226EE0
:100EE0001BEC03F0F6D7010E236E020E246EEDEC20
:100EF00002F0216A21509BEC01F0000905E0212A53
:100F0000226E1BEC03F0F6D70C0E216EFA0E236E48
:100F100067EC02F0212EFAD70C0E226E1BEC03F0C8
:100F2000010E236E246EEDEC02F0216A2150A7EC35
:100F300001F0000905E0212A226E1BEC03F0F6D730
:100F4000030E236E020E246EEDEC02F0216A215096
:100F5000B5EC01F0000905E0212A226E1BEC03F03C
:100F6000F6D70C0E216EFA0E236E67EC02F0212EDE
:100F7000FAD71DDD182C2FD00C0E226E1BEC03F0BF
:100F8000010E236E246EEDEC02F0216A2150C1ECBB
:100F900001F0000905E0212A226E1BEC03F0F6D7D0
:100FA000030E236E020E246EEDEC02F0216A215036
:100FB000D2EC01F0000905E0212A226E1BEC03F0BF
:100FC000F6D70C0E216EFA0E236E67EC02F0212E7E
:100FD000FAD7CCD683D1185002082FE10C0E226E1E
:100FE0001BEC03F0010E236E246EEDEC02F0216A7F
:100FF0002150E2EC01F0000905E0212A226E1BECF1
:1010000003F0F6D7030E236E020E246EEDEC02F011
:10101000216A2150D2EC01F0000905E0212A226E5C
:101020001BEC03F0F6D70C0E216EFA0E236E67EC64
:1010300002F0212EFAD79AD651D1185003082FE189
:101040000C0E226E1BEC03F0010E236E246EEDECF1
:1010500002F0216A2150F3EC01F0000905E0212A99
:10106000226E1BEC03F0F6D7030E236E020E246EE5
:10107000EDEC02F0216A2150D2EC01F0000905E00C
:10108000212A226E1BEC03F0F6D70C0E216EFA0E0D
:10109000236E67EC02F0212EFAD768D61FD11850C4
:1010A00004082FE10C0E226E1BEC03F0010E236EE0
:1010B000246EEDEC02F0216A215002EC02F00009EE
:1010C00005E0212A226E1BEC03F0F6D7030E236EF7
:1010D000020E246EEDEC02F0216A2150D2EC01F0F8
:1010E000000905E0212A226E1BEC03F0F6D70C0E56
:1010F000216EFA0E236E67EC02F0212EFAD736D657
:10110000EDD0185005082FE10C0E226E1BEC03F0F9
:10111000010E236E246EEDEC02F0216A215013ECD7
:1011200002F0000905E0212A226E1BEC03F0F6D73D
:10113000030E236E020E246EEDEC02F0216A2150A4
:10114000D2EC01F0000905E0212A226E1BEC03F02D
:10115000F6D70C0E216EFA0E236E67EC02F0212EEC
:10116000FAD704D6BBD0185006082FE10C0E226E19
:101170001BEC03F0010E236E246EEDEC02F0216AED
:10118000215023EC02F0000905E0212A226E1BEC1D
:1011900003F0F6D7030E236E020E246EEDEC02F080
:1011A000216A2150D2EC01F0000905E0212A226ECB
:1011B0001BEC03F0F6D70C0E216EFA0E236E67ECD3
:1011C00002F0212EFAD7D2D589D0185007082FE186
:1011D0000C0E226E1BEC03F0010E236E246EEDEC60
:1011E00002F0216A215030EC02F0000905E0212ACA
:1011F000226E1BEC03F0F6D7030E236E020E246E54
:10120000EDEC02F0216A2150D2EC01F0000905E07A
:10121000212A226E1BEC03F0F6D70C0E216EFA0E7B
:10122000236E67EC02F0212EFAD7A0D557D01850C4
:1012300008082FE10C0E226E1BEC03F0010E236E4A
:10124000246EEDEC02F0216A21503DEC02F0000921
:1012500005E0212A226E1BEC03F0F6D7030E236E65
:10126000020E246EEDEC02F0216A2150D2EC01F066
:10127000000905E0212A226E1BEC03F0F6D70C0EC4
:10128000216EFA0E236E67EC02F0212EFAD76ED58E
:1012900025D01850090802E193D420D00C0E226EFC
:1012A0001BEC03F0010E236E020E246EEDEC02F037
:1012B000216A215008EC01F0000905E0212A226E84
:1012C0001BEC03F0F6D70C0E216EFA0E236E67ECC2
:1012D00002F0212EFAD732EF05F072D4F4D2145076
:1012E000330802E0000E01D0010E216E15505508A2
:1012F00002E0000E01D0010E2114D8B4C5D20C0EAC
:10130000226E1BEC03F0010E236E246EEDEC02F056
:10131000216A215018EC01F0000905E0212A226E13
:101320001BEC03F0F6D7040E236E020E246EEDECD8
:1013300002F0216A21504CEC02F0000905E0212A5C
:10134000226E1BEC03F0F6D70C0E216EFA0E236E04
:1013500067EC02F0212EFAD70C0E226E1BEC03F084
:10136000010E236E246EEDEC02F0216A215032EC66
:1013700001F0000905E0212A226E1BEC03F0F6D7EC
:10138000010E236E020E246EEDEC02F0216A215054
:1013900042EC01F0000905E0212A226E1BEC03F06B
:1013A000F6D70C0E216EFA0E236E67EC02F0212E9A
:1013B000FAD70C0E226E1BEC03F0010E236E246E86
:1013C000EDEC02F0216A215052EC01F0000905E039
:1013D000212A226E1BEC03F0F6D7010E236E020EBB
:1013E000246EEDEC02F0216A215062EC01F000095C
:1013F00005E0212A226E1BEC03F0F6D70C0E216EBD
:10140000FA0E236E67EC02F0212EFAD70C0E226E34
:101410001BEC03F0010E236E246EEDEC02F0216A4A
:10142000215070EC01F0000905E0212A226E1BEC2E
:1014300003F0F6D7010E236E020E246EEDEC02F0DF
:10144000216A215081EC01F0000905E0212A226E79
:101450001BEC03F0F6D70C0E216EFA0E236E67EC30
:1014600002F0212EFAD70C0E226E1BEC03F0010EB7
:10147000236E246EEDEC02F0216A215090EC01F015
:10148000000905E0212A226E1BEC03F0F6D7010EBD
:10149000236E020E246EEDEC02F0216A21509BECCB
:1014A00001F0000905E0212A226E1BEC03F0F6D7BB
:1014B0000C0E216EFA0E236E67EC02F0212EFAD785
:1014C0000C0E226E1BEC03F0010E236E246EEDEC6D
:1014D00002F0216A2150A7EC01F0000905E0212A61
:1014E000226E1BEC03F0F6D7030E236E020E246E61
:1014F000EDEC02F0216A2150B5EC01F0000905E0A5
:10150000212A226E1BEC03F0F6D70C0E216EFA0E88
:10151000236E67EC02F0212EFAD7D7EC04F0182CDA
:101520002FD00C0E226E1BEC03F0010E236E246EE6
:10153000EDEC02F0216A2150C1EC01F0000905E058
:10154000212A226E1BEC03F0F6D7030E236E020E47
:10155000246EEDEC02F0216A2150D2EC01F000097A
:1015600005E0212A226E1BEC03F0F6D70C0E216E4B
:10157000FA0E236E67EC02F0212EFAD7C0D683D183
:10158000185002082FE10C0E226E1BEC03F0010E26
:10159000236E246EEDEC02F0216A2150E2EC01F0A2
:1015A000000905E0212A226E1BEC03F0F6D7030E9A
:1015B000236E020E246EEDEC02F0216A2150D2EC73
:1015C00001F0000905E0212A226E1BEC03F0F6D79A
:1015D0000C0E216EFA0E236E67EC02F0212EFAD764
:1015E0008ED651D1185003082FE10C0E226E1BEC41
:1015F00003F0010E236E246EEDEC02F0216A2150FF
:10160000F3EC01F0000905E0212A226E1BEC03F047
:10161000F6D7030E236E020E246EEDEC02F0216A63
:101620002150D2EC01F0000905E0212A226E1BECCA
:1016300003F0F6D70C0E216EFA0E236E67EC02F063
:10164000212EFAD75CD61FD1185004082FE10C0EBA
:10165000226E1BEC03F0010E236E246EEDEC02F003
:10166000216A215002EC02F0000905E0212A226ED5
:101670001BEC03F0F6D7030E236E020E246EEDEC86
:1016800002F0216A2150D2EC01F0000905E0212A84
:10169000226E1BEC03F0F6D70C0E216EFA0E236EB1
:1016A00067EC02F0212EFAD72AD6EDD018500508A3
:1016B0002FE10C0E226E1BEC03F0010E236E246E44
:1016C000EDEC02F0216A215013EC02F0000905E074
:1016D000212A226E1BEC03F0F6D7030E236E020EB6
:1016E000246EEDEC02F0216A2150D2EC01F00009E9
:1016F00005E0212A226E1BEC03F0F6D70C0E216EBA
:10170000FA0E236E67EC02F0212EFAD7F8D5BBD083
:10171000185006082FE10C0E226E1BEC03F0010E90
:10172000236E246EEDEC02F0216A215023EC02F0CE
:10173000000905E0212A226E1BEC03F0F6D7030E08
:10174000236E020E246EEDEC02F0216A2150D2ECE1
:1017500001F0000905E0212A226E1BEC03F0F6D708
:101760000C0E216EFA0E236E67EC02F0212EFAD7D2
:10177000C6D589D0185007082FE10C0E226E1BEC3D
:1017800003F0010E236E246EEDEC02F0216A21506D
:1017900030EC02F0000905E0212A226E1BEC03F078
:1017A000F6D7030E236E020E246EEDEC02F0216AD2
:1017B0002150D2EC01F0000905E0212A226E1BEC39
:1017C00003F0F6D70C0E216EFA0E236E67EC02F0D2
:1017D000212EFAD794D557D0185008082FE10C0EB7
:1017E000226E1BEC03F0010E236E246EEDEC02F072
:1017F000216A21503DEC02F0000905E0212A226E09
:101800001BEC03F0F6D7030E236E020E246EEDECF4
:1018100002F0216A2150D2EC01F0000905E0212AF2
:10182000226E1BEC03F0F6D70C0E216EFA0E236E1F
:1018300067EC02F0212EFAD762D525D0185009089E
:1018400003E1E0EF05F01FD00C0E226E1BEC03F05D
:10185000010E236E020E246EEDEC02F0216A21507F
:1018600008EC01F0000905E0212A226E1BEC03F0D0
:10187000F6D70C0E216EFA0E236E67EC02F0212EC5
:10188000FAD732EF05F01FD00C0E226E1BEC03F0DE
:10189000010E236E020E246EEDEC02F0216A21503F
:1018A00057EC02F0000905E0212A226E1BEC03F040
:1018B000F6D70C0E216EFA0E236E67EC02F0212E85
:0818C000FAD732EF05F0030036
:020000040030CA
:0E000000000C181E000381000FC00FE00F401F
:00000001FF
;PIC18F4550
;CRC=AC68  CREATED="08-mar.-22 10:36"
