:100000002AEF06F0F76A140FF66E000EF7220900C9
:10001000F5501200280C0106F76A280FF66E000E44
:10002000F7220900F550120031323341343536429F
:10003000373839432A302344F76A480FF66E000EEA
:10004000F7220900F55012002020204249454E5663
:10005000454E49444F5320200000F76A6A0FF66E60
:10006000000EF7220900F55012004152512E204394
:100070004F4D502E2054415244450000F76A8C0FDA
:10008000F66E000EF7220900F55012004D49475553
:10009000454C204D454E44455A00F76AAA0FF66E6E
:1000A000000EF7220900F550120020444156494441
:1000B000204D415254494E455A200000F76ACC0F5A
:1000C000F66E000EF7220900F55012004752555007
:1000D0004F00F76AE20FF66E000EF7220900F550A6
:1000E0001200204E554D45524F00F76AFA0FF66E3A
:1000F000000EF7220900F5501200504F52204641E1
:10010000564F5200F76A140FF66E010EF7220900DF
:10011000F5501200494E475245534520434C415635
:100120004500F76A320FF66E010EF7220900F5500E
:1001300012004249454E56454E49444F5320414CCA
:100140000000F76A520FF66E010EF7220900F55013
:100150001200204D454E5500F76A680FF66E010EED
:10016000F7220900F55012004D41525155452031FA
:10017000205041524120454C0000F76A8A0FF66E2C
:10018000010EF7220900F55012004D454E5520444E
:100190004520444156494400F76AA80FF66E010E07
:1001A000F7220900F55012004D41525155452032B9
:1001B000205041524120454C0000F76ACA0FF66EAC
:1001C000010EF7220900F55012004D454E5520440E
:1001D00045204D494755454C0000F76AEA0FF66E39
:1001E000010EF7220900F55012004D4152515545BC
:1001F00020332050415241200000F76A0A0FF66E6A
:10020000020EF7220900F550120053414C495200EA
:10021000F76A200FF66E020EF7220900F550120061
:100220004552524F52204445204E554D45524F00A5
:10023000F76A400FF66E020EF7220900F550120021
:100240004D454E552055535541522E00F76A5C0FCF
:10025000F66E020EF7220900F55012004D4947557F
:10026000454C0000F76A740FF66E020EF722090083
:10027000F55012004D4152515545204E554D2050DC
:1002800041524100F76A940FF66E020EF722090000
:10029000F5501200312043414D4249415220434C18
:1002A00041564500F76AB40FF66E020EF7220900B8
:1002B000F550120032204645434841205920484F0E
:1002C00052410000F76AD40FF66E020EF7220900C1
:1002D000F550120033205245504F52544553000000
:1002E000F76AF00FF66E020EF7220900F5501200C1
:1002F00034204D4F544F5220504153204120504103
:100300000000F76A120FF66E030EF7220900F5508F
:1003100012003520534552564F4D4F544F52000056
:10032000F76A300FF66E030EF7220900F55012003F
:10033000362043414400F76A460FF66E030EF7225B
:100340000900F5501200372044544D460000F76A6A
:100350005E0FF66E030EF7220900F55012003820EA
:1003600053454E534F5245530000F76A7A0FF66ECD
:10037000030EF7220900F5501200392053414C4971
:100380005200F76A920FF66E030EF7220900F5503D
:1003900012004D454E2043414D4249415220434CAD
:1003A00041560000F76AB40FF66E030EF7220900FB
:1003B000F5501200444947495445204E552E2043DC
:1003C0004C4156450000F76AD60FF66E030EF72231
:1003D0000900F5501200504F52204641564F52200E
:1003E0004449474954450000F76AF80FF66E030E7A
:1003F000F7220900F5501200444947495445204E60
:1004000055452E434C4156450000F76A1A0FF66ECB
:10041000040EF7220900F5501200434C41564520C6
:100420004D4F44494649434144410000F76A3C0F5F
:10043000F66E040EF7220900F5501200434F4E20CD
:10044000455849544F00F76A560FF66E040EF722CE
:100450000900F55012004552524F522044452043A6
:100460004C4156450000F76A760FF66E040EF722EF
:100470000900F55012004D454E20464543484120A5
:100480005920484F52410000F76A980FF66E040E4B
:10049000F7220900F5501200454E20434F4E5354A9
:1004A00052554343494F4E00F76AB80FF66E040E9B
:1004B000F7220900F55012004D454E552052455087
:1004C0004F5254455300F76AD60FF66E040EF722CA
:1004D0000900F55012004D454E204D4F544F52200B
:1004E00050415320412E0000F76AF80FF66E040EBB
:1004F000F7220900F55012004D454E205345525643
:100500004F4D4F544F520000F76A180FF66E050E0C
:10051000F7220900F55012004D454E552043414445
:100520000000F76A320FF66E050EF7220900F5504B
:1005300012004D454E2044544D460000F76A4C0FC2
:10054000F66E050EF7220900F55012004D454E20BB
:1005500053454E534F5245530000F76A6A0FF66EEB
:10056000050EF7220900F550120044415649440097
:10057000F76A800FF66E050EF7220900F55012009B
:10058000434F4E5452412E204552524F4E4541004A
:10059000EA6A2B0EE96EEF500DE0060E016E006A5E
:1005A000002EFED7012EFBD77B0E006E002EFED74D
:1005B000EF2EF3D7000C332C01D03288346A34503C
:1005C000040811E3D890323202E28D9001D08D8080
:1005D0009690000096928D9200D000D000009692E6
:1005E0008D82342AECD796948D84030E006E002EF3
:1005F000FED796948D94000C0B6AA60E006E002E0A
:10060000FED700002F5203E0010E0B6E01D00B6AE3
:10061000000096948D943038316E0F0E311631C033
:1006200032F00BC033F0C7DF30500F0B316E326E3B
:100630000BC033F0C0DF000C0B6A96948D94140E3F
:100640002B6EA6DF286A285002080AE3030E326EDA
:100650000BC033F0B0DF050E2B6E9ADF282AF3D7DC
:10066000020E326E0BC033F0A6DF286A2850030852
:1006700011E3036A2850F2CF29F0F29EC3DC29BEB1
:10068000F28E296E2F6A306EB7DF050E2B6E80DF7B
:10069000282AECD74DEF06F04EEF06F0010E2C5C49
:1006A000FC0F0FE2040F6BEF03F0800E2D6E09D0EC
:1006B000C00E2D6E06D0940E2D6E03D0D40E2D6E6E
:1006C00000D0010E2B5C2D262D5080092E6E2F6A36
:1006D000306E92DF000CE824F76AF736F10FF66E01
:1006E000060EF7220A00F550FA6E0800F550F96E72
:1006F000AA06B006B606BC062A500C0A0BE0060A8B
:1007000013E0020A18E06B0A1BE0040A1EE00F0A5D
:1007100021E025D02F6A010E306E6EDF010E0C6EC7
:10072000080E2B6E35DF21D00C2A010E2B6E0CC06B
:100730002CF0B4DF1AD02F6A100E306E5DDF15D0AA
:100740002F6A0C0E306E58DF10D02F6A0F0E306EED
:1007500053DF0BD02F6A0F0E306E4EDF06D0010E26
:100760002F6E2AC030F048DF00D0000C116A115003
:10077000030818E3036A1150180FE96E000E0320F6
:10078000EA6EF2CF2AF0F29E11C0A9FFA69CA69EA7
:10079000A680A8502ABEF28EEF6E010E2B6EF8DEF8
:1007A000112AE5D7F3EF06F08E0E006E2BC001F094
:1007B0002AC002F0036A015209E102C001F0026A94
:1007C000080E005E015202E1006A08D0D89001BE16
:1007D00004D0023601360006F9D7019E33EF04F04B
:1007E0002BC032F02F50321A32AE05D0D894D890A8
:1007F0002BBED8802FD02BC032F02EC033F02A5021
:10080000335E06E032AE26D0D850010AD86E22D030
:100810002FC033F02B50335E06E032AE1BD0D850E1
:10082000010AD86E17D030C033F02C50335E06E08A
:1008300032AE10D0D850010AD86E0CD031C033F08F
:100840002D50335E06E032AE05D0D850010AD86E86
:1008500001D0D89044EF04F0F19E286A0D2A2B6A4B
:100860000DC02AF0A1D7CD0E2D6ECC0E2C6E4C0EE5
:100870002B6E7C0E2A6E03C031F002C030F001C036
:100880002FF000C02EF0ACD75BE31050FC0F17E246
:10089000040FA7EF04F0F00E936E0E0E816E0FD0D2
:1008A000F00E936E0D0E816E0AD0F00E936E0B0E4D
:1008B000816E05D0F00E936E070E816E00D00EA0F3
:1008C00009D08150F00BF00804E10E900FC028F021
:1008D0000F6A35D08150F00BF0082CE08150100BDE
:1008E00002E1296A11D08150200B03E1010E296E2B
:1008F0000BD08150400B03E1020E296E05D08150D0
:10090000800B02E1030E296E2950040DF3502B6A6F
:100910002A6E036A10502A24016E2B5003220150C4
:10092000F2CF2AF0F29E0CEC00F02ABEF28E0F6E8F
:100930000E8005D0102A1050040801E1106A0D6ADB
:100940000FC028F0F00E936E28C001F0000CE824D0
:10095000F76AF736690FF66E090EF7220A00F550AE
:10096000FA6E0800F550F96E9608A008AA08B408B7
:100970000C0E2A6EC1DE256A246A276A266A060ED4
:10098000126E116A11500308D8A0F7D065DF01C0BC
:100990001FF03C0E2B6EFCDD1F52D8B4C0D0010EF0
:1009A0001124FF0FFC0FD8B0AED0040FBEEF05F03E
:1009B000060E2B6E010E2C6E71DEEA6A1FC0E9FF77
:1009C000000EEF100FE0EACF29F0E9CF28F0EFCFCB
:1009D0002AF092DE29C0EAFF28C0E9FFE92AD8B44C
:1009E000EA2AEED7300E1F5C146E143A060E2B6EF8
:1009F000020E2C6E53DE2A0E2A6E7EDE320E2B6E17
:100A0000C7DD81D0070E2B6E010E2C6E47DEEA6A21
:100A10001FC0E9FF000EEF100FE0EACF29F0E9CF89
:100A200028F0EFCF2AF068DE29C0EAFF28C0E9FFEE
:100A3000E92AD8B4EA2AEED7300E1F5C156E15509D
:100A40001426070E2B6E020E2C6E28DE2A0E2A6E3E
:100A500053DE320E2B6E9CDD56D0080E2B6E010E2F
:100A60002C6E1CDEEA6A1FC0E9FF000EEF100FE0DB
:100A7000EACF29F0E9CF28F0EFCF2AF03DDE29C0F8
:100A8000EAFF28C0E9FFE92AD8B4EA2AEED7300EF7
:100A90001F5C166E163A080E2B6E020E2C6EFEDDD3
:100AA0002A0E2A6E29DE320E2B6E72DD2CD0090E34
:100AB0002B6E010E2C6EF2DDEA6A1FC0E9FF000EFC
:100AC000EF100FE0EACF29F0E9CF28F0EFCF2AF0BE
:100AD00013DE29C0EAFF28C0E9FFE92AD8B4EA2AD0
:100AE000EED7300E1F5C176E17501624156E090EC8
:100AF0002B6E020E2C6ED2DD2A0E2A6EFDDD320E1A
:100B00002B6E46DD00D0112A020E286EFA0E2B6ED7
:100B10003FDD282EFBD7276A266A256A246A262A03
:100B2000D8B4272A275203E12650140805E2242AC4
:100B3000D8B4252A276A266A1150030806E32552ED
:100B400004E124500508D8B021D7036A1150140FCE
:100B5000E96E000E0320EA6E230EEF6E12C02BF03A
:100B6000010E2C6E9BDD2A0E2A6EC6DD122A276A24
:100B7000266A256A246A112A05D7000CE824F76A38
:100B8000F736970FF66E0B0EF7220A00F550FA6E45
:100B90000800F550F96EB009040A5A0AAE0A0C0EA4
:100BA0002A6EAADD256A246A276A266A0E9254DE16
:100BB00001C01FF03C0E2B6EEBDC1F520CE0080E48
:100BC0002B6E010E2C6E6ADD1FC02AF095DD300EF3
:100BD0001F5E0E820DD0262AD8B4272A275203E1A1
:100BE0002650140805E2242AD8B4252A276A266A42
:100BF000255205E12450050802E30EA2D8D7000CC7
:100C0000116A1150010825E3036A1150140FE96EAF
:100C1000000E0320EA6EEFCF28F01CC0A9FF28C009
:100C2000A8FFA69CA69EA684F2CF00F0F29E0F011C
:100C3000550EA76EAA0EA76EA682A6B2FED7A694E0
:100C40000050F212050E2B6E0001A2DC1C2A112AA4
:100C5000D8D7000CF86AD09EFE0E006E080E016E0A
:100C6000020EE96E000EEA6EEE6A002EFDD7012E2E
:100C7000FBD7EA6AE96AC150C00B0F09C16E070EC3
:100C8000B46E056A066A0D6A0E900F6A106A280E25
:100C9000926E000E936E956ECFD4FED4926A896ADE
:100CA000936A8A6A956A8C6A0C0E2A6E25DD010E9B
:100CB0002B6E2C6EF3DC286A28501CEC00F0000927
:100CC00004E0282A2A6E18DDF7D7010E2B6E020EDB
:100CD0002C6EE4DC286A28502DEC00F0000904E0BA
:100CE000282A2A6E09DDF7D70C0E286EFA0E2B6E15
:100CF0004FDC282EFBD70C0E2A6EFEDC010E2B6E6D
:100D00002C6ECCDC286A28503EEC00F0000904E090
:100D1000282A2A6EF1DCF7D7010E2B6E020E2C6EFC
:100D2000BDDC286A28504DEC00F0000904E0282AB8
:100D30002A6EE2DCF7D70C0E286EFA0E2B6E28DC3A
:100D4000282EFBD70C0E2A6ED7DC030E2B6E010E5D
:100D50002C6EA4DC286A28505EEC00F0000904E048
:100D6000282A2A6EC9DCF7D7020E2B6E2C6E96DC71
:100D7000286A285069EC00F0000904E0282A2A6E4D
:100D8000BBDCF7D70C0E286EFA0E2B6E01DC282E7A
:100D9000FBD70C0E2A6EB0DC020E2B6E010E2C6EF1
:100DA0007DDC286A285075EC00F0000904E0282A50
:100DB0002A6EA2DCF7D7010E2B6E020E2C6E6EDCB3
:100DC000286A285082EC00F0000904E0282A2A6EE4
:100DD00093DCF7D70C0E286EFA0E2B6EC8EC02F0DF
:100DE000282EFAD7C3D4C4DD1450120802E0000E36
:100DF00001D0010E286E1550340802E0000E01D01B
:100E0000010E2814D8B4D4D00C0E2A6E75DC010E55
:100E10002B6E2C6E43DC286A285091EC00F0000900
:100E200004E0282A2A6E68DCF7D7040E2B6E020E27
:100E30002C6E34DC286A2850A1EC00F0000904E094
:100E4000282A2A6E59DCF7D70C0E286EFA0E2B6E64
:100E5000C8EC02F0282EFAD70C0E2A6E4DDC010EDB
:100E60002B6E2C6E1BDC286A2850ACEC00F00009BD
:100E700004E0282A2A6E40DCF7D7010E2B6E020E02
:100E80002C6E0CDC286A2850BDEC00F0000904E050
:100E9000282A2A6E31DCF7D70C0E286EFA0E2B6E3C
:100EA000C8EC02F0282EFAD70C0E2A6E25DC010EB3
:100EB0002B6E2C6E4EEC03F0286A2850CCEC00F020
:100EC000000904E0282A2A6E17DCF7D7010E2B6EE2
:100ED000020E2C6E4EEC03F0286A2850DDEC00F078
:100EE000000904E0282A2A6E07DCF7D70C0E286ECA
:100EF000FA0E2B6EC8EC02F0282EFAD70C0E2A6ED2
:100F00007CEC03F0010E2B6E2C6E4EEC03F0286A85
:100F10002850EDEC00F0000905E0282A2A6E7CEC50
:100F200003F0F6D7010E2B6E020E2C6E4EEC03F082
:100F3000286A2850FDEC00F0000905E0282A2A6EF6
:100F40007CEC03F0F6D70C0E286EFA0E2B6EC8EC74
:100F500002F0282EFAD723DE1F2C02D050EF0BF020
:100F60001F50020801E134D01F50030801E1FF00C7
:100F70000C0E2A6E7CEC03F0010E2B6E020E2C6E12
:100F80004EEC03F0286A285008EC01F0000905E057
:100F9000282A2A6E7CEC03F0F6D70C0E286EFA0E87
:100FA0002B6EC8EC02F0282EFAD72ED7C7EF0EF022
:100FB0001950145C02E0000E01D0010E286E18508A
:100FC000155C02E0000E01D0010E2814D8B458D3ED
:100FD0001C6A0C0E2A6E7CEC03F0010E2B6E2C6E3C
:100FE0004EEC03F0286A285018EC01F0000905E0E7
:100FF000282A2A6E7CEC03F0F6D7010E2B6E020E27
:101000002C6E4EEC03F0286A285026EC01F0000903
:1010100005E0282A2A6E7CEC03F0F6D70C0E286E29
:10102000FA0E2B6EC8EC02F0282EFAD70C0E2A6EA0
:101030007CEC03F0010E2B6E2C6E4EEC03F0286A54
:10104000285032EC01F0000905E0282A2A6E7CECD9
:1010500003F0F6D7010E2B6E020E2C6E4EEC03F051
:10106000286A285042EC01F0000905E0282A2A6E7F
:101070007CEC03F0F6D70C0E286EFA0E2B6EC8EC43
:1010800002F0282EFAD70C0E2A6E7CEC03F0010E2B
:101090002B6E2C6E4EEC03F0286A285052EC01F0B7
:1010A000000905E0282A2A6E7CEC03F0F6D7010E31
:1010B0002B6E020E2C6E4EEC03F0286A285062EC68
:1010C00001F0000905E0282A2A6E7CEC03F0F6D72F
:1010D0000C0E286EFA0E2B6EC8EC02F0282EFAD7F2
:1010E0000C0E2A6E7CEC03F0010E2B6E2C6E4EEC77
:1010F00003F0286A285070EC01F0000905E0282A66
:101100002A6E7CEC03F0F6D7010E2B6E020E2C6ECD
:101110004EEC03F0286A285081EC01F0000905E04C
:10112000282A2A6E7CEC03F0F6D70C0E286EFA0EF5
:101130002B6EC8EC02F0282EFAD70C0E2A6E7CEC2F
:1011400003F0010E2B6E2C6E4EEC03F0286A285033
:1011500090EC01F0000905E0282A2A6E7CEC03F0EF
:10116000F6D7010E2B6E020E2C6E4EEC03F0286AA1
:1011700028509BEC01F0000905E0282A2A6E7CEC3F
:1011800003F0F6D70C0E286EFA0E2B6EC8EC02F0A8
:10119000282EFAD70C0E2A6E7CEC03F0010E2B6E73
:1011A0002C6E4EEC03F0286A2850A7EC01F00009E1
:1011B00005E0282A2A6E7CEC03F0F6D7030E2B6E8E
:1011C000020E2C6E4EEC03F0286A2850B5EC01F0AC
:1011D000000905E0282A2A6E7CEC03F0F6D70C0EF5
:1011E000286EFA0E2B6EC8EC02F0282EFAD7D7DC48
:1011F0001F2CBFD00C0E2A6E7CEC03F0010E2B6E60
:101200002C6E4EEC03F0286A2850C1EC01F0000966
:1012100005E0282A2A6E7CEC03F0F6D7030E2B6E2D
:10122000020E2C6E4EEC03F0286A2850D2EC01F02E
:10123000000905E0282A2A6E7CEC03F0F6D70C0E94
:10124000286EFA0E2B6EC8EC02F0282EFAD7B8ECF6
:1012500004F014C01DF015C01EF00C0E2A6E7CECBC
:1012600003F0010E2B6E2C6E4EEC03F0286A285012
:10127000E3EC01F0000905E0282A2A6E7CEC03F07B
:10128000F6D7010E2B6E020E2C6E4EEC03F0286A80
:101290002850F4EC01F0000905E0282A2A6E7CECC5
:1012A00003F0F6D70C0E286EFA0E2B6EC8EC02F087
:1012B000282EFAD7B8EC04F01D50145C02E0000EA2
:1012C00001D0010E286E1E50155C02E0000E01D008
:1012D000010E281430E094DC0C0E2A6E7CEC03F036
:1012E000010E2B6E2C6E4EEC03F0286A285005EC94
:1012F00002F0000905E0282A2A6E7CEC03F0F6D7FC
:10130000030E2B6E020E2C6E4EEC03F0286A285052
:1013100016EC02F0000905E0282A2A6E7CEC03F0A6
:10132000F6D70C0E286EFA0E2B6EC8EC02F0282EA3
:10133000FAD74ED61DD00C0E2A6E7CEC03F0010EAF
:101340002B6E2C6E4EEC03F0286A285023EC02F032
:10135000000905E0282A2A6E7CEC03F0F6D70C0E73
:10136000286EFA0E2B6EC8EC02F0282EFAD730D673
:1013700085D11F5002082FE10C0E2A6E7CEC03F081
:10138000010E2B6E2C6E4EEC03F0286A285033ECC5
:1013900002F0000905E0282A2A6E7CEC03F0F6D75B
:1013A000030E2B6E020E2C6E4EEC03F0286A2850B2
:1013B00044EC02F0000905E0282A2A6E7CEC03F0D8
:1013C000F6D70C0E286EFA0E2B6EC8EC02F0282E03
:1013D000FAD7FED553D11F5003082FE10C0E2A6E09
:1013E0007CEC03F0010E2B6E2C6E4EEC03F0286AA1
:1013F000285054EC02F0000905E0282A2A6E7CEC03
:1014000003F0F6D7030E2B6E020E2C6E4EEC03F09B
:10141000286A285044EC02F0000905E0282A2A6EC8
:101420007CEC03F0F6D70C0E286EFA0E2B6EC8EC8F
:1014300002F0282EFAD7CCD521D11F5004082FE175
:101440000C0E2A6E7CEC03F0010E2B6E2C6E4EEC13
:1014500003F0286A285063EC02F0000905E0282A0E
:101460002A6E7CEC03F0F6D7030E2B6E020E2C6E68
:101470004EEC03F0286A285044EC02F0000905E025
:10148000282A2A6E7CEC03F0F6D70C0E286EFA0E92
:101490002B6EC8EC02F0282EFAD79AD5EFD01F5049
:1014A00005082FE10C0E2A6E7CEC03F0010E2B6E6A
:1014B0002C6E4EEC03F0286A285074EC02F0000900
:1014C00005E0282A2A6E7CEC03F0F6D7030E2B6E7B
:1014D000020E2C6E4EEC03F0286A285044EC02F009
:1014E000000905E0282A2A6E7CEC03F0F6D70C0EE2
:1014F000286EFA0E2B6EC8EC02F0282EFAD768D5AB
:10150000BDD01F5006082FE10C0E2A6E7CEC03F0B4
:10151000010E2B6E2C6E4EEC03F0286A285084ECE2
:1015200002F0000905E0282A2A6E7CEC03F0F6D7C9
:10153000030E2B6E020E2C6E4EEC03F0286A285020
:1015400044EC02F0000905E0282A2A6E7CEC03F046
:10155000F6D70C0E286EFA0E2B6EC8EC02F0282E71
:10156000FAD736D58BD01F5007082FE10C0E2A6E04
:101570007CEC03F0010E2B6E2C6E4EEC03F0286A0F
:10158000285091EC02F0000905E0282A2A6E7CEC34
:1015900003F0F6D7030E2B6E020E2C6E4EEC03F00A
:1015A000286A285044EC02F0000905E0282A2A6E37
:1015B0007CEC03F0F6D70C0E286EFA0E2B6EC8ECFE
:1015C00002F0282EFAD704D559D01F5008082FE171
:1015D0000C0E2A6E7CEC03F0010E2B6E2C6E4EEC82
:1015E00003F0286A28509EEC02F0000905E0282A42
:1015F0002A6E7CEC03F0F6D7030E2B6E020E2C6ED7
:101600004EEC03F0286A285044EC02F0000905E093
:10161000282A2A6E7CEC03F0F6D70C0E286EFA0E00
:101620002B6EC8EC02F0282EFAD7D2D427D01F5048
:10163000090803E104EF07F021D00C0E2A6E7CECC0
:1016400003F0010E2B6E020E2C6E4EEC03F0286A96
:10165000285008EC01F0000905E0282A2A6E7CECED
:1016600003F0F6D70C0E286EFA0E2B6EC8EC02F0C3
:10167000282EFAD754EF06F004EF07F0C7EF0EF06C
:101680001B50145C02E0000E01D0010E286E1A50AF
:10169000155C02E0000E01D0010E2814D8B458D316
:1016A000020E1C6E0C0E2A6E7CEC03F0010E2B6EEB
:1016B0002C6E4EEC03F0286A285018EC01F000095B
:1016C00005E0282A2A6E7CEC03F0F6D7040E2B6E78
:1016D000020E2C6E4EEC03F0286A2850ADEC02F09E
:1016E000000905E0282A2A6E7CEC03F0F6D70C0EE0
:1016F000286EFA0E2B6EC8EC02F0282EFAD70C0ECC
:101700002A6E7CEC03F0010E2B6E2C6E4EEC03F077
:10171000286A285032EC01F0000905E0282A2A6ED8
:101720007CEC03F0F6D7010E2B6E020E2C6E4EEC05
:1017300003F0286A285042EC01F0000905E0282A4D
:101740002A6E7CEC03F0F6D70C0E286EFA0E2B6E88
:10175000C8EC02F0282EFAD70C0E2A6E7CEC03F0AF
:10176000010E2B6E2C6E4EEC03F0286A285052ECC2
:1017700001F0000905E0282A2A6E7CEC03F0F6D778
:10178000010E2B6E020E2C6E4EEC03F0286A2850D0
:1017900062EC01F0000905E0282A2A6E7CEC03F0D7
:1017A000F6D70C0E286EFA0E2B6EC8EC02F0282E1F
:1017B000FAD70C0E2A6E7CEC03F0010E2B6E2C6E09
:1017C0004EEC03F0286A285070EC01F0000905E0A7
:1017D000282A2A6E7CEC03F0F6D7010E2B6E020E3F
:1017E0002C6E4EEC03F0286A285081EC01F00009C1
:1017F00005E0282A2A6E7CEC03F0F6D70C0E286E42
:10180000FA0E2B6EC8EC02F0282EFAD70C0E2A6EB8
:101810007CEC03F0010E2B6E2C6E4EEC03F0286A6C
:10182000285090EC01F0000905E0282A2A6E7CEC93
:1018300003F0F6D7010E2B6E020E2C6E4EEC03F069
:10184000286A28509BEC01F0000905E0282A2A6E3E
:101850007CEC03F0F6D70C0E286EFA0E2B6EC8EC5B
:1018600002F0282EFAD70C0E2A6E7CEC03F0010E43
:101870002B6E2C6E4EEC03F0286A2850A7EC01F07A
:10188000000905E0282A2A6E7CEC03F0F6D7030E47
:101890002B6E020E2C6E4EEC03F0286A2850B5EC2D
:1018A00001F0000905E0282A2A6E7CEC03F0F6D747
:1018B0000C0E286EFA0E2B6EC8EC02F0282EFAD70A
:1018C000CFEC05F01F2CC0D00C0E2A6E7CEC03F080
:1018D000010E2B6E2C6E4EEC03F0286A2850C1ECE2
:1018E00001F0000905E0282A2A6E7CEC03F0F6D707
:1018F000030E2B6E020E2C6E4EEC03F0286A28505D
:10190000D2EC01F0000905E0282A2A6E7CEC03F0F5
:10191000F6D70C0E286EFA0E2B6EC8EC02F0282EAD
:10192000FAD7B8EC04F014C01DF015C01EF00C0E70
:101930002A6E7CEC03F0010E2B6E2C6E4EEC03F045
:10194000286A2850E3EC01F0000905E0282A2A6EF5
:101950007CEC03F0F6D7010E2B6E020E2C6E4EECD3
:1019600003F0286A2850F4EC01F0000905E0282A69
:101970002A6E7CEC03F0F6D70C0E286EFA0E2B6E56
:10198000C8EC02F0282EFAD7B8EC04F01D50145C15
:1019900002E0000E01D0010E286E1E50155C02E020
:1019A000000E01D0010E281431E000EC06F00C0E00
:1019B0002A6E7CEC03F0010E2B6E2C6E4EEC03F0C5
:1019C000286A285005EC02F0000905E0282A2A6E52
:1019D0007CEC03F0F6D7030E2B6E020E2C6E4EEC51
:1019E00003F0286A285016EC02F0000905E0282AC6
:1019F0002A6E7CEC03F0F6D70C0E286EFA0E2B6ED6
:101A0000C8EC02F0282EFAD74BD61DD00C0E2A6E49
:101A10007CEC03F0010E2B6E2C6E4EEC03F0286A6A
:101A2000285023EC02F0000905E0282A2A6E7CECFD
:101A300003F0F6D70C0E286EFA0E2B6EC8EC02F0EF
:101A4000282EFAD72DD683D11F5002082FE10C0E75
:101A50002A6E7CEC03F0010E2B6E2C6E4EEC03F024
:101A6000286A285033EC02F0000905E0282A2A6E83
:101A70007CEC03F0F6D7030E2B6E020E2C6E4EECB0
:101A800003F0286A285044EC02F0000905E0282AF7
:101A90002A6E7CEC03F0F6D70C0E286EFA0E2B6E35
:101AA000C8EC02F0282EFAD7FBD551D11F500308FD
:101AB0002FE10C0E2A6E7CEC03F0010E2B6E2C6EC7
:101AC0004EEC03F0286A285054EC02F0000905E0BF
:101AD000282A2A6E7CEC03F0F6D7030E2B6E020E3A
:101AE0002C6E4EEC03F0286A285044EC02F00009FA
:101AF00005E0282A2A6E7CEC03F0F6D70C0E286E3F
:101B0000FA0E2B6EC8EC02F0282EFAD7C9D51FD1D9
:101B10001F5004082FE10C0E2A6E7CEC03F0010E1E
:101B20002B6E2C6E4EEC03F0286A285063EC02F00A
:101B3000000905E0282A2A6E7CEC03F0F6D7030E94
:101B40002B6E020E2C6E4EEC03F0286A285044ECEB
:101B500002F0000905E0282A2A6E7CEC03F0F6D793
:101B60000C0E286EFA0E2B6EC8EC02F0282EFAD757
:101B700097D5EDD01F5005082FE10C0E2A6E7CEC96
:101B800003F0010E2B6E2C6E4EEC03F0286A2850E9
:101B900074EC02F0000905E0282A2A6E7CEC03F0C0
:101BA000F6D7030E2B6E020E2C6E4EEC03F0286A55
:101BB000285044EC02F0000905E0282A2A6E7CEC4B
:101BC00003F0F6D70C0E286EFA0E2B6EC8EC02F05E
:101BD000282EFAD765D5BBD01F5006082FE10C0E72
:101BE0002A6E7CEC03F0010E2B6E2C6E4EEC03F093
:101BF000286A285084EC02F0000905E0282A2A6EA1
:101C00007CEC03F0F6D7030E2B6E020E2C6E4EEC1E
:101C100003F0286A285044EC02F0000905E0282A65
:101C20002A6E7CEC03F0F6D70C0E286EFA0E2B6EA3
:101C3000C8EC02F0282EFAD733D589D01F500708F8
:101C40002FE10C0E2A6E7CEC03F0010E2B6E2C6E35
:101C50004EEC03F0286A285091EC02F0000905E0F0
:101C6000282A2A6E7CEC03F0F6D7030E2B6E020EA8
:101C70002C6E4EEC03F0286A285044EC02F0000968
:101C800005E0282A2A6E7CEC03F0F6D70C0E286EAD
:101C9000FA0E2B6EC8EC02F0282EFAD701D557D0D9
:101CA0001F5008082FE10C0E2A6E7CEC03F0010E89
:101CB0002B6E2C6E4EEC03F0286A28509EEC02F03E
:101CC000000905E0282A2A6E7CEC03F0F6D7030E03
:101CD0002B6E020E2C6E4EEC03F0286A285044EC5A
:101CE00002F0000905E0282A2A6E7CEC03F0F6D702
:101CF0000C0E286EFA0E2B6EC8EC02F0282EFAD7C6
:101D0000CFD425D01F50090803E104EF07F01FD0FE
:101D10000C0E2A6E7CEC03F0010E2B6E020E2C6E64
:101D20004EEC03F0286A285008EC01F0000905E0A9
:101D3000282A2A6E7CEC03F0F6D70C0E286EFA0ED9
:101D40002B6EC8EC02F0282EFAD754EF06F01FD005
:101D50000C0E2A6E7CEC03F0010E2B6E020E2C6E24
:101D60004EEC03F0286A2850B8EC02F0000905E0B8
:101D7000282A2A6E7CEC03F0F6D70C0E286EFA0E99
:101D80002B6EC8EC02F0282EFAD754EF06F00300B1
:0200000400F00A
:04000000234534560A
:020000040030CA
:0E000000000C181E000381000FC00FE00F401F
:00000001FF
;PIC18F4550
;CRC=582D  CREATED="27-sept.-21 20:35"
