:10000000B5EF06F0F76A140FF66E000EF72209003E
:10001000F5501200280C0106F76A280FF66E000E44
:10002000F7220900F550120031323341343536429F
:10003000373839432A302344F76A480FF66E000EEA
:10004000F7220900F55012002A00F76A5A0FF66EDF
:10005000000EF7220900F55012004249454E564560
:100060004E49444F5300F76A760FF66E000EF722A2
:100070000900F55012004152515549544543545519
:10008000524120540000F76A960FF66E000EF722D8
:100090000900F55012004A45494D5900F76AAC0F66
:1000A000F66E000EF7220900F55012004845525234
:1000B000455241205200F76AC60FF66E000EF72235
:1000C0000900F5501200475255504F00F76ADC0FF7
:1000D000F66E000EF7220900F55012004E554D4500
:1000E000524F20390000F76AF60FF66E000EF72225
:1000F0000900F5501200504F52204641564F520011
:10010000F76A100FF66E010EF7220900F550120083
:10011000494E475245534520434C41564500F76AE6
:100120002E0FF66E010EF7220900F55012004D4514
:100130004E55205052494E434950414C0000F76AF9
:100140004E0FF66E010EF7220900F55012005345CE
:100150004C454343494F4E45204D454E5500F76AA7
:100160006E0FF66E010EF7220900F5501200312EC7
:10017000204D454E55204A45494D5900F76A8C0F90
:10018000F66E010EF7220900F5501200322E204DB6
:10019000454E5520494E56495441444F0000F76A98
:1001A000AE0FF66E010EF7220900F5501200332E45
:1001B0002053414C49520000F76AC80FF66E010EF9
:1001C000F7220900F550120045535441204F504387
:1001D000494F4E00F76AE40FF66E010EF722090050
:1001E000F55012004E4F204553544120454E2045B6
:1001F0004C204D454E550000F76A080FF66E020E72
:10020000F7220900F5501200504F52204641564F38
:1002100052205655454C56450000F76A2A0FF66E97
:10022000020EF7220900F55012004120494E5445B4
:100230004E5441524C4F0000F76A480FF66E020EC2
:10024000F7220900F55012004D454E552044452037
:100250004A45494D5900F76A660FF66E020EF722BD
:100260000900F5501200312E2043414D42494152C0
:1002700020434C4156450000F76A880FF66E020E87
:10028000F7220900F5501200322E2046454348411E
:10029000205920484F524100F76AA80FF66E020E0F
:1002A000F7220900F55012004D454E55205041529D
:1002B0004100F76AC20FF66E020EF7220900F550F0
:1002C000120043414D4249415220434C41564500A2
:1002D000F76AE00FF66E020EF7220900F5501200E1
:1002E000504F52204641564F5220444947495445A9
:1002F0000000F76A020FF66E030EF7220900F550B0
:1003000012005355204E5545564120434C41564509
:100310000000F76A220FF66E030EF7220900F5506F
:100320001200444947495445204C4120434C415612
:100330004500F76A420FF66E030EF7220900F550EA
:1003400012004E554556414D454E54450000F76A42
:100350005E0FF66E030EF7220900F5501200434CB3
:10036000415645204D4F44494649434144410000D0
:10037000F76A800FF66E030EF7220900F55012009F
:10038000455849544F53414D454E54450000F76A76
:100390009E0FF66E030EF7220900F550120045522B
:1003A000524F5220414C2043414D4249415200009E
:1003B000F76AC00FF66E030EF7220900F55012001F
:1003C0004C4120434C4156450000F76ADA0FF66E67
:1003D000030EF7220900F55012004D454E552046F8
:1003E000454348412C20484F52410000F76AFC0F1A
:1003F000F66E030EF7220900F5501200454E204319
:100400004F4E535452554343494F4E00F76A1C0F09
:10041000F66E040EF7220900F55012004D454E55B8
:1004200020444520494E56495441444F0000F76A44
:100430003E0FF66E040EF7220900F5501200434CF1
:1004400041564500F76A540FF66E040EF722090074
:10045000F5501200494E434F52524543544100005B
:10046000EA6A720EE96EEF500DE0060E016E006A48
:10047000002EFED7012EFBD77B0E006E002EFED77E
:10048000EF2EF3D7000C7A2D01D079897B6B7B514D
:10049000040811E3D890793302E28D9001D08D8069
:1004A0009690000096928D9200D000D00000969217
:1004B0008D827B2BECD796948D84030E006E002EDC
:1004C000FED796948D94000C056AA60E006E002E41
:1004D000FED70000765303E0010E056E01D0056AD9
:1004E000000096948D947739786F0F0E781778C046
:1004F00079F005C07AF0C7DF77510F0B786F796F0D
:1005000005C07AF0C0DF000C056A96948D94140E35
:10051000726FA6DF706B705102080AE3030E796FE9
:1005200005C07AF0B0DF050E726F9ADF702BF3D73B
:10053000020E796F05C07AF0A6DF706B7051030868
:1005400011E3036A7051F2CF71F0F29E5BDD71BF6F
:10055000F28E716F766B776FB7DF050E726F80DF8B
:10056000702BECD75EEF07F060EF07F0010E735DC4
:10057000FC0F0FE2040FD3EF02F0800E746F09D06E
:10058000C00E746F06D0940E746F03D0D40E746FC7
:1005900000D0010E725D742774518009756F766BFF
:1005A000776F92DF000CE824F76AF736C10FF66E1A
:1005B000050EF7220A00F550FA6E0800F550F96EA4
:1005C0007A05800586058C0571510C0A0BE0060A38
:1005D00013E0020A18E06B0A1BE0040A1EE00F0A8F
:1005E00021E025D0766B010E776F6EDF010E066E6F
:1005F000080E726F35DF21D0062A010E726F06C019
:1006000073F0B4DF1AD0766B100E776F5DDF15D004
:10061000766B0C0E776F58DF10D0766B0F0E776FFE
:1006200053DF0BD0766B0F0E776F4EDF06D0010EC7
:10063000766F71C077F048DF00D0000C6A6B6A51AA
:10064000010818E3036A6A515E0FE96E000E032089
:10065000EA6EF2CF72F0F29E6AC0A9FFA69CA69E37
:10066000A680A85072BFF28EEF6E050E726FF8DE94
:100670006A2BE5D71AEF08F0080E016E050E006E22
:10068000002EFED789909290060E006E002EFED7A7
:1006900077378992D8B09282D8A09292928080A027
:1006A000FED7012EEBD7050E006E002EFED78990E7
:1006B000929000009282060E006E002EFED7060E6B
:1006C000006E002EFED7928080A0FED7016A060E33
:1006D000006E002EFED780B20180899092908992A0
:1006E0009292000C080E766F00C077F09282060E90
:1006F000006E002EFED7928080A0FED780B2D880F8
:1007000080A2D8900136050E006E002EFED7929082
:100710008990762FEBD79282060E006E002EFED7C0
:1007200089927751D8A492920000928080A0FED73F
:10073000050E006E002EFED789909290060E006E78
:10074000002EFED789929292DDEF03F09282050E81
:10075000006E002EFED79280060E006E002EFED791
:1007600089929292050E006E002EFED7899092908B
:10077000A00E776F81DF73C075F0766B73C077F072
:100780007BDF72C077F078DF9282050E006E002E5C
:10079000FED79280060E006E002EFED780A0FED7F8
:1007A00089929292050E006E002EFED7899092904B
:1007B000A10E776F61DF006A95D701C074F0929245
:1007C0000000928080A0FED7050E006E002EFED79E
:1007D00000D000009282050E006E002EFED774C07D
:1007E00001F006EF04F0020E6A6F6A51030819E384
:1007F000036A6A51620F016E000E032201C070F09D
:1008000003C071F0736B6AC072F0A0D771C0EAFFC9
:1008100070C0E9FF01C0EFFF050E726F21DE6A2B89
:10082000E4D71CEF08F08E0E006E73C001F072C0AA
:1008300002F0036A015209E102C001F0026A080EE7
:10084000005E015202E1006A08D0D89001BE04D0D7
:10085000023601360006F9D7019E72EF04F073C02C
:100860007AF077517A1B7AAF05D0D894D89073BFBD
:10087000D8802FD073C07AF076C07BF072517B5F46
:1008800006E07AAF26D0D850010AD86E22D077C0C1
:100890007BF073517B5F06E07AAF1BD0D850010A22
:1008A000D86E17D078C07BF074517B5F06E07AAFCA
:1008B00010D0D850010AD86E0CD079C07BF0755199
:1008C0007B5F06E07AAF05D0D850010AD86E01D020
:1008D000D89083EF04F0F19E706B072A736B07C00A
:1008E00072F0A1D7CD0E756FCC0E746F4C0E736F76
:1008F0007C0E726F03C079F002C078F001C077F00F
:1009000000C076F0ACD75BE30A50FC0F17E2040F8F
:10091000E6EF04F0F00E936E0E0E816E0FD0F00E27
:10092000936E0D0E816E0AD0F00E936E0B0E816EDB
:1009300005D0F00E936E070E816E00D008A009D08E
:100940008150F00BF00804E1089009C070F0096ACA
:1009500035D08150F00BF0082CE08150100B02E1F3
:10096000716B11D08150200B03E1010E716F0BD020
:100970008150400B03E1020E716F05D08150800B56
:1009800002E1030E716F7151040DF350736B726FBE
:10099000036A0A507225016E735103220150F2CF8F
:1009A00072F0F29E0CEC00F072BFF28E096E0880BD
:1009B00005D00A2A0A50040801E10A6A076A09C038
:1009C00070F0F00E936E70C001F0000CE824F76A2E
:1009D000F736E70FF66E090EF7220A00F550FA6EA9
:1009E0000800F550F96E14091E0928093209676BD1
:1009F000666B696B686B060E6B6F0C0E716FE4DDD6
:100A00006A6B6A510308D8A0A5D065DF01C06FF0FA
:100A10003C0E726F25DD6F53D8B464D0010E6A2589
:100A2000FF0FFC0F53E2040FABEF05F0300E6F5DCC
:100A30005A6E060E726F010E736F98DD706B7051F7
:100A40001CEC00F0000904E0702B716FBDDDF7D7DE
:100A50005A3A320E726F04DD39D0300E6F5D5B6E24
:100A6000706B70511CEC00F0000904E0702B716F8A
:100A7000ABDDF7D75B505A26320E726FF1DC26D011
:100A8000300E6F5D5C6E5C3A706B70511CEC00F068
:100A9000000904E0702B716F97DDF7D7320E726F8B
:100AA000DFDC14D0300E6F5D5D6E5D505C245B6EDC
:100AB000706B70511CEC00F0000904E0702B716F3A
:100AC00083DDF7D7320E726FCBDC00D06A2B020EBB
:100AD000706FFA0E726FC4DC702FFBD7676B666B9A
:100AE000696B686B662BD8B4672B675303E166515B
:100AF000140805E2676B666B682BD8B4692B6953E1
:100B000007E16851050804E36A510308D8B07DD7AE
:100B1000036A6A515A0F016E000E032203C0EAFFF6
:100B200001C0E9FF230EEF6E6BC072F0010E736F10
:100B30001DDD706B70511CEC00F0000904E0702B9F
:100B4000716F42DDF7D76B2B696B686B676B666BF8
:100B50006A2B57D7000CE824F76AF736710FF66E48
:100B60000B0EF7220A00F550FA6E0800F550F96EE8
:100B70002C0A5A0A800AA40A0C0E716F25DD08920D
:100B8000676B666B696B686BA6DE01C06FF03C0E2D
:100B9000726F66DC6F530CE0080E726F010E736F9C
:100BA000E5DC6FC071F010DD300E6F5F08820DD094
:100BB000662BD8B4672B675303E16651140805E22E
:100BC000682BD8B4692B676B666B695303E1685176
:100BD000050802E2000E01D0010E706F000E08A29F
:100BE000010E7015D1E1000C6A6B6A51010825E312
:100BF000036A6A515A0FE96E000E0320EA6EEFCFC6
:100C000070F06EC0A9FF70C0A8FFA69CA69EA68427
:100C1000F2CF00F0F29E0F01550EA76EAA0EA76E3E
:100C2000A682A6B2FED7A6940050F212050E0001CD
:100C3000726F16DC6E2B6A2BD8D715EF0AF09282F2
:100C4000050E006E002EFED79280060E006E002E5E
:100C5000FED789929292050E006E002EFED78990E3
:100C60009290A00E776F08DD72C075F0766B72C03F
:100C700077F002DD71C077F0FFDC73C077F0FCDC49
:100C800092920000928080A0FED7050E006E002E8A
:100C9000FED700D000009282050E006E002EFED717
:100CA0009282050E006E002EFED79280060E006E18
:100CB000002EFED789929292050E006E002EFED76E
:100CC00089909290A00E776FD7DC0150749101B09B
:100CD000748174A11CD09282050E006E002EFED786
:100CE0009280060E006E002EFED780A0FED789925D
:100CF0009292050E006E002EFED789909290A00E63
:100D0000776FBADC0150749101B07481E2D792928E
:100D10000000928080A0FED7050E006E002EFED748
:100D200000D000009282050E006E002EFED7ACEFC0
:100D300006F06A6B6A51010816E3036A6A515A0F9A
:100D4000E96E000E0320EA6EEFCF70F0726B6EC09A
:100D500071F070C073F073D76E2B050E726F30ECAC
:100D600002F06A2BE7D7A7EF0BF0F86AD09EFE0ED1
:100D7000006E080E016E020EE96E000EEA6EEE6A5B
:100D8000002EFDD7012EFBD7EA6AE96AC150C00BDD
:100D90000F09C16E070EB46E076A0890096A0A6AE5
:100DA0004C0E0B6E750E0C6E6E0E0D6E650E0E6E8D
:100DB000730E0F6E106A116A126A136A146A156A4A
:100DC0004D0E166E610E176E720E186E740E196E41
:100DD000650E1A6E730E1B6E1C6A1D6A1E6A1F6AF0
:100DE000206A4D0E216E690E226EE90E236E720E80
:100DF000246E630E256E6F0E266E6C0E276E650ECA
:100E0000286E730E296E2A6A2B6A4A0E2C6E750E96
:100E10002D6E650E2E6E760E2F6E650E306E730E75
:100E2000316E326A336A346A356A366A560E376E04
:100E3000690E386E650E396E720E3A6E6E0E3B6E2E
:100E4000650E3C6E730E3D6E3E6A3F6A406A416AB3
:100E5000530E426EE10E436E620E446E610E456E9D
:100E6000640E466E6F0E476E486A496A4A6A4B6A5C
:100E70004C6A440E4D6E6F0E4E6E6D0E4F6E690EC7
:100E8000506E6E0E516E670E526E6F0E536E546A38
:100E9000556A586A666B676B686B696B060E6B6F99
:100EA000000E926E070E966E000E956E926A896A1B
:100EB000966A8D6A956A8C6A84EF02F0B4EF02F04C
:100EC0000C0E716FE4EC02F0020E726F010E736F84
:100ED000B6EC02F0706B705125EC00F0000905E0F3
:100EE000702B716FE4EC02F0F6D7010E726F020EF8
:100EF000736FB6EC02F0706B705133EC00F00009C8
:100F000005E0702B716FE4EC02F0F6D70C0E706FF9
:100F1000FA0E726F30EC02F0702FFAD70C0E716F70
:100F2000E4EC02F0040E726F010E736FB6EC02F087
:100F3000706B705143EC00F0000905E0702B716F8D
:100F4000E4EC02F0F6D7030E726F020E736FB6EC8C
:100F500002F0706B70514EEC00F0000905E0702B50
:100F6000716FE4EC02F0F6D70C0E706FFA0E726F30
:100F700030EC02F0702FFAD70C0E716FE4EC02F037
:100F8000040E726F010E736FB6EC02F0706B70514D
:100F90005BEC00F0000905E0702B716FE4EC02F0EF
:100FA000F6D7030E726F020E736FB6EC02F0706B21
:100FB000705166EC00F0000905E0702B716FE4ECF5
:100FC00002F0F6D70C0E706FFA0E726F30EC02F072
:100FD000702FFAD70C0E716FE4EC02F0020E726FF4
:100FE000010E736FB6EC02F0706B705173EC00F091
:100FF000000905E0702B716FE4EC02F0F6D7010EEA
:10100000726F020E736FB6EC02F0706B705180EC71
:1010100000F0000905E0702B716FE4EC02F0F6D7E8
:101020000C0E706FFA0E726F30EC02F0702FFAD760
:101030001EEF03F0F3EF03F0DADC5A50430802E04E
:10104000000E01D0010E706F5B50890802E0000EA7
:1010500001D0010E7015D8B4EFD00C0E716FE4EC16
:1010600002F0020E726F010E736FB6EC02F0706B3D
:10107000705125EC00F0000905E0702B716FE4EC75
:1010800002F0F6D7030E726F020E736FB6EC02F029
:10109000706B70518FEC00F0000905E0702B716FE0
:1010A000E4EC02F0F6D70C0E706FFA0E726F30ECB3
:1010B00002F0702FFAD70C0E716FE4EC02F0010E03
:1010C000726F736FB6EC02F0706B70519FEC00F0B2
:1010D000000905E0702B716FE4EC02F0F6D7030E07
:1010E000726F020E736FB6EC02F0706B7051AFEC62
:1010F00000F0000905E0702B716FE4EC02F0F6D708
:101100000C0E706FFA0E726F30EC02F0702FFAD77F
:101110000C0E716FE4EC02F0010E726F736FB6EC9F
:1011200002F0706B7051BEEC00F0000905E0702B0E
:10113000716FE4EC02F0F6D7030E726F020E736F5C
:10114000B6EC02F0706B7051CFEC00F0000905E0D6
:10115000702B716FE4EC02F0F6D70C0E706FFA0E84
:10116000726F30EC02F0702FFAD706DD6F2D01D0D0
:101170006BD06F51020801E1EED16F51030801E11C
:10118000FF000C0E716FE4EC02F0010E726F736FD2
:10119000B6EC02F0706B7051DCEC00F0000905E079
:1011A000702B716FE4EC02F0F6D7030E726F020E33
:1011B000736FB6EC02F0706B7051EAEC00F000094E
:1011C00005E0702B716FE4EC02F0F6D70C0E706F37
:1011D000FA0E726F30EC02F0702FFAD70C0E716FAE
:1011E000E4EC02F0726B010E736FB6EC02F0706B00
:1011F0007051FCEC00F0000905E0702B716FE4EC1D
:1012000002F0F6D7010E726F020E736FB6EC02F0A9
:10121000706B70510DEC01F0000905E0702B716FDF
:10122000E4EC02F0F6D70C0E706FFA0E726F30EC31
:1012300002F0702FFAD711D75F505A5CD8A483D12F
:101240005E505B5CD8A47FD16E6B0C0E716FE4ECCA
:1012500002F0010E726F736FB6EC02F0706B70519A
:101260001CEC01F0000905E0702B716FE4EC02F05A
:10127000F6D7726B020E736FB6EC02F0706B7051A2
:101280002BEC01F0000905E0702B716FE4EC02F02B
:10129000F6D70C0E706FFA0E726F30EC02F0702FF2
:1012A000FAD70C0E716FE4EC02F0010E726F736FDF
:1012B000B6EC02F0706B70513CEC01F0000905E0F7
:1012C000702B716FE4EC02F0F6D7726B020E736F45
:1012D000B6EC02F0706B7051CFEC00F0000905E045
:1012E000702B716FE4EC02F0F6D70C0E706FFA0EF3
:1012F000726F30EC02F0702FFAD73EDC6F2DEFD01A
:101300000C0E716FE4EC02F0010E726F736FB6ECAD
:1013100002F0706B70514CEC01F0000905E0702B8D
:10132000716FE4EC02F0F6D7726B020E736FB6ECDD
:1013300002F0706B705159EC01F0000905E0702B60
:10134000716FE4EC02F0F6D70C0E706FFA0E726F4C
:1013500030EC02F0702FFAD70C0E716FE4EC02F053
:10136000726B010E736FB6EC02F0706B705168EC2B
:1013700001F0000905E0702B716FE4EC02F0F6D784
:10138000010E726F020E736FB6EC02F0706B70514B
:1013900079EC01F0000905E0702B716FE4EC02F0CC
:1013A000F6D70C0E706FFA0E726F30EC02F0702FE1
:1013B000FAD7F7EC04F05AC06CF05BC06DF00C0E7D
:1013C000716FE4EC02F0010E726F736FB6EC02F015
:1013D000706B705189EC01F0000905E0702B716FA2
:1013E000E4EC02F0F6D7020E726F736FB6EC02F007
:1013F000706B705199EC01F0000905E0702B716F72
:10140000E4EC02F0F6D70C0E706FFA0E726F30EC4F
:1014100002F0702FFAD7F7EC04F06C515A5C32E10D
:101420006D515B5C2FE1F4EF05F00C0E716FE4EC95
:1014300002F0010E726F736FB6EC02F0706B7051B8
:10144000A7EC01F0000905E0702B716FE4EC02F0ED
:10145000F6D7726B020E736FB6EC02F0706B7051C0
:10146000B8EC01F0000905E0702B716FE4EC02F0BC
:10147000F6D70C0E706FFA0E726F30EC02F0702F10
:10148000FAD72DD00C0E716FE4EC02F0010E726FE2
:10149000736FB6EC02F0706B7051C7EC01F000098D
:1014A00005E0702B716FE4EC02F0F6D7726B020E60
:1014B000736FB6EC02F0706B7051D8EC01F000095C
:1014C00005E0702B716FE4EC02F0F6D70C0E706F34
:1014D000FA0E726F30EC02F0702FFAD711D76F51FD
:1014E00002082DE10C0E716FE4EC02F0010E726F38
:1014F000736FB6EC02F0706B7051E5EC01F000090F
:1015000005E0702B716FE4EC02F0F6D7726B020EFF
:10151000736FB6EC02F0706B7051F6EC01F00009DD
:1015200005E0702B716FE4EC02F0F6D70C0E706FD3
:10153000FA0E726F30EC02F0702FFAD785D66F5129
:10154000030801E18AD564515A5CD8A490D1655151
:101550005B5CD8A48CD1020E6E6F0C0E716FE4EC44
:1015600002F0010E726F736FB6EC02F0706B705187
:1015700006EC02F0000905E0702B716FE4EC02F05C
:10158000F6D7726B020E736FB6EC02F0706B70518F
:101590002BEC01F0000905E0702B716FE4EC02F018
:1015A000F6D70C0E706FFA0E726F30EC02F0702FDF
:1015B000FAD70C0E716FE4EC02F0010E726F736FCC
:1015C000B6EC02F0706B70513CEC01F0000905E0E4
:1015D000702B716FE4EC02F0F6D7726B020E736F32
:1015E000B6EC02F0706B7051CFEC00F0000905E032
:1015F000702B716FE4EC02F0F6D70C0E706FFA0EE0
:10160000726F30EC02F0702FFAD7BCEC05F06F2D42
:10161000F9D00C0E716FE4EC02F0010E726F736F73
:10162000B6EC02F0706B70514CEC01F0000905E073
:10163000702B716FE4EC02F0F6D7726B020E736FD1
:10164000B6EC02F0706B705159EC01F0000905E046
:10165000702B716FE4EC02F0F6D70C0E706FFA0E7F
:10166000726F30EC02F0702FFAD70C0E716FE4EC51
:1016700002F0726B010E736FB6EC02F0706B70517A
:1016800068EC01F0000905E0702B716FE4EC02F0EA
:10169000F6D7010E726F020E736FB6EC02F0706B2C
:1016A000705179EC01F0000905E0702B716FE4ECEA
:1016B00002F0F6D70C0E706FFA0E726F30EC02F07B
:1016C000702FFAD7F7EC04F05AC06CF05BC06DF0E5
:1016D0000C0E716FE4EC02F0010E726F736FB6ECDA
:1016E00002F0706B705189EC01F0000905E0702B7D
:1016F000716FE4EC02F0F6D7020E726F736FB6EC06
:1017000002F0706B705199EC01F0000905E0702B4C
:10171000716FE4EC02F0F6D70C0E706FFA0E726F78
:1017200030EC02F0702FFAD7F7EC04F06C515A5CF1
:1017300002E0000E01D0010E706F6D515B5C02E0A3
:10174000000E01D0010E70152FE099EF06F00C0E7F
:10175000716FE4EC02F0010E726F736FB6EC02F081
:10176000706B7051A7EC01F0000905E0702B716FF0
:10177000E4EC02F0F6D7726B020E736FB6EC02F077
:10178000706B7051B8EC01F0000905E0702B716FBF
:10179000E4EC02F0F6D70C0E706FFA0E726F30ECBC
:1017A00002F0702FFAD72DD00C0E716FE4EC02F01E
:1017B000010E726F736FB6EC02F0706B7051C7EC74
:1017C00001F0000905E0702B716FE4EC02F0F6D730
:1017D000726B020E736FB6EC02F0706B7051D8EC46
:1017E00001F0000905E0702B716FE4EC02F0F6D710
:1017F0000C0E706FFA0E726F30EC02F0702FFAD789
:1018000008D7A9D66F5102082DE10C0E716FE4ECD8
:1018100002F0010E726F736FB6EC02F0706B7051D4
:10182000E5EC01F0000905E0702B716FE4EC02F0CB
:10183000F6D7726B020E736FB6EC02F0706B7051DC
:10184000F6EC01F0000905E0702B716FE4EC02F09A
:10185000F6D70C0E706FFA0E726F30EC02F0702F2C
:10186000FAD779D66F51030802E12DEF08F00C0E7C
:10187000716FE4EC02F0040E726F010E736FB6EC40
:1018800002F0706B705117EC02F0000905E0702B4C
:10189000716FE4EC02F0F6D7020E726F736FB6EC64
:1018A00002F0706B705122EC02F0000905E0702B21
:1018B000716FE4EC02F0F6D70C0E706FFA0E726FD7
:0C18C00030EC02F0702FFAD7FF0003009C
:0200000400F00A
:02000000553475
:020000040030CA
:0E000000000C181E000381000FC00FE00F401F
:00000001FF
;PIC18F4550
;CRC=4F24  CREATED="15-mar.-22 17:43"
