:100000006BEF07F0F76A140FF66E000EF722090087
:10001000F5501200280C0106F76A280FF66E000E44
:10002000F7220900F550120031323341343536429F
:10003000373839432A302344F76A480FF66E000EEA
:10004000F7220900F55012002020204249454E5663
:10005000454E49444F5320200000F76A6A0FF66E60
:10006000000EF7220900F55012004152512E204394
:100070004F4D502E2054415244450000F76A8C0FDA
:10008000F66E000EF7220900F55012004D49475553
:10009000454C204D454E44455A00F76AAA0FF66E6E
:1000A000000EF7220900F550120020444156494441
:1000B000204D415254494E455A200000F76ACC0F5A
:1000C000F66E000EF7220900F55012004752555007
:1000D0004F00F76AE20FF66E000EF7220900F550A6
:1000E0001200204E554D45524F00F76AFA0FF66E3A
:1000F000000EF7220900F5501200504F52204641E1
:10010000564F5200F76A140FF66E010EF7220900DF
:10011000F5501200494E475245534520434C415635
:100120004500F76A320FF66E010EF7220900F5500E
:1001300012004249454E56454E49444F5320414CCA
:100140000000F76A520FF66E010EF7220900F55013
:100150001200204D454E5500F76A680FF66E010EED
:10016000F7220900F55012004D41525155452031FA
:10017000205041524120454C0000F76A8A0FF66E2C
:10018000010EF7220900F55012004D454E5520444E
:100190004520444156494400F76AA80FF66E010E07
:1001A000F7220900F55012004D41525155452032B9
:1001B000205041524120454C0000F76ACA0FF66EAC
:1001C000010EF7220900F55012004D454E5520440E
:1001D00045204D494755454C0000F76AEA0FF66E39
:1001E000010EF7220900F55012004D4152515545BC
:1001F00020332050415241200000F76A0A0FF66E6A
:10020000020EF7220900F550120053414C495200EA
:10021000F76A200FF66E020EF7220900F550120061
:100220004552524F52204445204E554D45524F00A5
:10023000F76A400FF66E020EF7220900F550120021
:100240004D454E552055535541522E00F76A5C0FCF
:10025000F66E020EF7220900F55012004D4947557F
:10026000454C0000F76A740FF66E020EF722090083
:10027000F55012004D4152515545204E554D2050DC
:1002800041524100F76A940FF66E020EF722090000
:10029000F5501200312043414D4249415220434C18
:1002A00041564500F76AB40FF66E020EF7220900B8
:1002B000F550120032204645434841205920484F0E
:1002C00052410000F76AD40FF66E020EF7220900C1
:1002D000F550120033205245504F52544553000000
:1002E000F76AF00FF66E020EF7220900F5501200C1
:1002F00034204D4F544F5220504153204120504103
:100300000000F76A120FF66E030EF7220900F5508F
:1003100012003520534552564F4D4F544F52000056
:10032000F76A300FF66E030EF7220900F55012003F
:10033000362043414400F76A460FF66E030EF7225B
:100340000900F5501200372044544D460000F76A6A
:100350005E0FF66E030EF7220900F55012003820EA
:1003600053454E534F5245530000F76A7A0FF66ECD
:10037000030EF7220900F5501200392053414C4971
:100380005200F76A920FF66E030EF7220900F5503D
:1003900012004D454E2043414D4249415220434CAD
:1003A00041560000F76AB40FF66E030EF7220900FB
:1003B000F5501200444947495445204E552E2043DC
:1003C0004C4156450000F76AD60FF66E030EF72231
:1003D0000900F5501200504F52204641564F52200E
:1003E0004449474954450000F76AF80FF66E030E7A
:1003F000F7220900F5501200444947495445204E60
:1004000055452E434C4156450000F76A1A0FF66ECB
:10041000040EF7220900F5501200434C41564520C6
:100420004D4F44494649434144410000F76A3C0F5F
:10043000F66E040EF7220900F5501200434F4E20CD
:10044000455849544F00F76A560FF66E040EF722CE
:100450000900F55012004552524F522044452043A6
:100460004C4156450000F76A760FF66E040EF722EF
:100470000900F55012004D454E20464543484120A5
:100480005920484F52410000F76A980FF66E040E4B
:10049000F7220900F5501200454E20434F4E5354A9
:1004A00052554343494F4E00F76AB80FF66E040E9B
:1004B000F7220900F55012004D454E552052455087
:1004C0004F5254455300F76AD60FF66E040EF722CA
:1004D0000900F55012004D454E204D4F544F52200B
:1004E00050415320412E0000F76AF80FF66E040EBB
:1004F000F7220900F55012004D454E205345525643
:100500004F4D4F544F520000F76A180FF66E050E0C
:10051000F7220900F55012004D454E552043414445
:100520000000F76A320FF66E050EF7220900F5504B
:1005300012004D454E2044544D460000F76A4C0FC2
:10054000F66E050EF7220900F55012004D454E20BB
:1005500053454E534F5245530000F76A6A0FF66EEB
:10056000050EF7220900F550120044415649440097
:10057000F76A800FF66E050EF7220900F55012009B
:10058000434F4E5452412E204552524F4E4541004A
:10059000EA6A2F0EE96EEF500DE0060E016E006A5A
:1005A000002EFED7012EFBD77B0E006E002EFED74D
:1005B000EF2EF3D7000C372C01D03688386A38502C
:1005C000040811E3D890363202E28D9001D08D807C
:1005D0009690000096928D9200D000D000009692E6
:1005E0008D82382AECD796948D84030E006E002EEF
:1005F000FED796948D94000C0B6AA60E006E002E0A
:10060000FED70000335203E0010E0B6E01D00B6ADF
:10061000000096948D943438356E0F0E351635C023
:1006200036F00BC037F0C7DF34500F0B356E366E27
:100630000BC037F0C0DF000C0B6A96948D94140E3B
:100640002F6EA6DF2C6A2C5002080AE3030E366ECA
:100650000BC037F0B0DF050E2F6E9ADF2C2AF3D7D0
:10066000020E366E0BC037F0A6DF2C6A2C50030842
:1006700011E3036A2C50F2CF2DF0F29EC3DC2DBEA5
:10068000F28E2D6E336A346EB7DF050E2F6E80DF6B
:100690002C2AECD78FEF07F091EF07F0010E305CBA
:1006A000FC0F0FE2040F6BEF03F0800E316E09D0E8
:1006B000C00E316E06D0940E316E03D0D40E316E62
:1006C00000D0010E2F5C312631508009326E336A22
:1006D000346E92DF000CE824F76AF736F10FF66EFD
:1006E000060EF7220A00F550FA6E0800F550F96E72
:1006F000AA06B006B606BC062E500C0A0BE0060A87
:1007000013E0020A18E06B0A1BE0040A1EE00F0A5D
:1007100021E025D0336A010E346E6EDF010E0C6EBF
:10072000080E2F6E35DF21D00C2A010E2F6E0CC063
:1007300030F0B4DF1AD0336A100E346E5DDF15D09E
:10074000336A0C0E346E58DF10D0336A0F0E346EDD
:1007500053DF0BD0336A0F0E346E4EDF06D0010E1E
:10076000336E2EC034F048DF00D0000C116A1150F7
:10077000030818E3036A1150180FE96E000E0320F6
:10078000EA6EF2CF2EF0F29E11C0A9FFA69CA69EA3
:10079000A680A8502EBEF28EEF6E010E2F6EF8DEF0
:1007A000112AE5D74EEF08F0080E016E050E006E17
:1007B000002EFED789909290060E006E002EFED776
:1007C00033368992D8B09282D8A09292928080A03B
:1007D000FED7012EEBD7050E006E002EFED78990B6
:1007E000929000009282060E006E002EFED7060E3A
:1007F000006E002EFED7928080A0FED7016A060E02
:10080000006E002EFED780B201808990929089926E
:100810009292000C080E326E00C033F09282060EE7
:10082000006E002EFED7928080A0FED780B2D880C6
:1008300080A2D8900136050E006E002EFED7929051
:100840008990322EEBD79282060E006E002EFED7D4
:1008500089923350D8A492920000928080A0FED753
:10086000050E006E002EFED789909290060E006E47
:10087000002EFED78992929275EF04F09282050EB7
:10088000006E002EFED79280060E006E002EFED760
:1008900089929292050E006E002EFED7899092905A
:1008A000A00E336E81DF2FC031F0326A2FC033F0DB
:1008B0007BDF2EC033F078DF9282050E006E002EB3
:1008C000FED79280060E006E002EFED780A0FED7C7
:1008D00089929292050E006E002EFED7899092901A
:1008E000A10E336E61DF006A95D701C030F092929D
:1008F0000000928080A0FED7050E006E002EFED76D
:1009000000D000009282050E006E002EFED730C08F
:1009100001F09DEF04F0116A1150030819E3036A16
:1009200011501C0F016E000E032201C02CF003C0F9
:100930002DF02F6A11C02EF0A1D72DC0EAFF2CC0D8
:10094000E9FF01C0EFFF010E2F6E22DE112AE4D76E
:100950004FEF08F08E0E006E2FC001F02EC002F097
:10096000036A015209E102C001F0026A080E005E4A
:10097000015202E1006A08D0D89001BE04D00236CC
:1009800001360006F9D7019E09EF05F02FC036F0B9
:100990003350361A36AE05D0D894D8902FBED880B2
:1009A0002FD02FC036F032C037F02E50375E06E021
:1009B00036AE26D0D850010AD86E22D033C037F0D8
:1009C0002F50375E06E036AE1BD0D850010AD86EE5
:1009D00017D034C037F03050375E06E036AE10D056
:1009E000D850010AD86E0CD035C037F03150375E80
:1009F00006E036AE05D0D850010AD86E01D0D890A6
:100A00001AEF05F0F19E2C6A0D2A2F6A0DC02EF008
:100A1000A1D7CD0E316ECC0E306E4C0E2F6E7C0EEB
:100A20002E6E03C035F002C034F001C033F000C0B8
:100A300032F0ACD75BE31050FC0F17E2040F7DEFF0
:100A400005F0F00E936E0E0E816E0FD0F00E936EC9
:100A50000D0E816E0AD0F00E936E0B0E816E05D0D6
:100A6000F00E936E070E816E00D00EA009D081505B
:100A7000F00BF00804E10E900FC02CF00F6A35D097
:100A80008150F00BF0082CE08150100B02E12D6A30
:100A900011D08150200B03E1010E2D6E0BD081503F
:100AA000400B03E1020E2D6E05D08150800B02E158
:100AB000030E2D6E2D50040DF3502F6A2E6E036A17
:100AC00010502E24016E2F5003220150F2CF2EF031
:100AD000F29E0CEC00F02EBEF28E0F6E0E8005D052
:100AE000102A1050040801E1106A0D6A0FC02CF0A2
:100AF000F00E936E2CC001F0000CE824F76AF73674
:100B0000150FF66E0B0EF7220A00F550FA6E08006C
:100B1000F550F96E420A4C0A560A600A0C0E2E6E07
:100B2000EBDD296A286A2B6A2A6A060E126E116AA0
:100B300011500308D8A0F7D065DF01C023F03C0EA8
:100B40002F6E26DD2352D8B4C0D0010E1124FF0F22
:100B5000FC0FD8B0AED0040F94EF06F0060E2F6E47
:100B6000010E306E9BDDEA6A23C0E9FF000EEF1034
:100B70000FE0EACF2DF0E9CF2CF0EFCF2EF0BCDD67
:100B80002DC0EAFF2CC0E9FFE92AD8B4EA2AEED743
:100B9000300E235C146E143A060E2F6E020E306E69
:100BA0007DDD2A0E2E6EA8DD320E2F6EF1DC81D097
:100BB000070E2F6E010E306E71DDEA6A23C0E9FF69
:100BC000000EEF100FE0EACF2DF0E9CF2CF0EFCFC1
:100BD0002EF092DD2DC0EAFF2CC0E9FFE92AD8B43F
:100BE000EA2AEED7300E235C156E15501426070E38
:100BF0002F6E020E306E52DD2A0E2E6E7DDD320E0D
:100C00002F6EC6DC56D0080E2F6E010E306E46DDFC
:100C1000EA6A23C0E9FF000EEF100FE0EACF2DF0E3
:100C2000E9CF2CF0EFCF2EF067DD2DC0EAFF2CC00E
:100C3000E9FFE92AD8B4EA2AEED7300E235C166E13
:100C4000163A080E2F6E020E306E28DD2A0E2E6E1A
:100C500053DD320E2F6E9CDC2CD0090E2F6E010E50
:100C6000306E1CDDEA6A23C0E9FF000EEF100FE0D2
:100C7000EACF2DF0E9CF2CF0EFCF2EF03DDD2DC0E7
:100C8000EAFF2CC0E9FFE92AD8B4EA2AEED7300EF1
:100C9000235C176E17501624156E090E2F6E020E68
:100CA000306EFCDC2A0E2E6E27DD320E2F6E70DCCD
:100CB00000D0112A020E2C6EFA0E2F6E69DC2C2E3B
:100CC000FBD72B6A2A6A296A286A2A2AD8B42B2ACF
:100CD0002B5203E12A50140805E2282AD8B4292A05
:100CE0002B6A2A6A1150030806E3295204E12850AE
:100CF0000508D8B021D7036A1150140FE96E000E11
:100D00000320EA6E230EEF6E12C02FF0010E306E3C
:100D1000C5DC2A0E2E6EF0DC122A2B6A2A6A296A9A
:100D2000286A112A05D7000CE824F76AF736430F22
:100D3000F66E0D0EF7220A00F550FA6E0800F55017
:100D4000F96E5C0BB00B060C5A0C0C0E2E6ED4DC3C
:100D5000296A286A2B6A2A6A0E9254DE01C023F09F
:100D60003C0E2F6E15DC23520CE0080E2F6E010E88
:100D7000306E94DC23C02EF0BFDC300E235E0E827A
:100D80000DD02A2AD8B42B2A2B5203E12A5014085A
:100D900005E2282AD8B4292A2B6A2A6A295205E1B1
:100DA0002850050802E30EA2D8D7000C9282050E47
:100DB000006E002EFED79280060E006E002EFED72B
:100DC00089929292050E006E002EFED78990929025
:100DD000A00E336EE9DC2EC031F0326A2EC033F043
:100DE000E3DC2DC033F0E0DC2FC033F0DDDC929289
:100DF0000000928080A0FED7050E006E002EFED768
:100E000000D000009282050E006E002EFED7928266
:100E1000050E006E002EFED79280060E006E002E8C
:100E2000FED789929292050E006E002EFED7899011
:100E30009290A00E336EB8DC0150309001B030803B
:100E400030A01CD09282050E006E002EFED792803C
:100E5000060E006E002EFED780A0FED789929292D9
:100E6000050E006E002EFED789909290A00E336E74
:100E70009BDC0150309001B03080E2D792920000AC
:100E8000928080A0FED7050E006E002EFED700D007
:100E900000009282050E006E002EFED763EF07F071
:100EA000116A1150010816E3036A1150140FE96E1C
:100EB000000E0320EA6EEFCF2CF02E6A20C02DF03A
:100EC0002CC02FF073D7050E2F6EC8EC02F0202A2D
:100ED000112AE7D7000CF86AD09EFE0E006E080EAD
:100EE000016E020EE96E000EEA6EEE6A002EFDD76C
:100EF000012EFBD7EA6AE96AC150C00B0F09C16E27
:100F0000070EB46E056A066A0D6A0E900F6A106AC3
:100F1000280E926E000E936E956E1CEF03F04CEF50
:100F200003F0926A896A936A8A6A956A8C6A0C0EDF
:100F30002E6E7CEC03F0010E2F6E306E4EEC03F043
:100F40002C6A2C501CEC00F0000905E02C2A2E6EB7
:100F50007CEC03F0F6D7010E2F6E020E306E4EECD5
:100F600003F02C6A2C502DEC00F0000905E02C2A2F
:100F70002E6E7CEC03F0F6D70C0E2C6EFA0E2F6E54
:100F8000C8EC02F02C2EFAD70C0E2E6E7CEC03F07F
:100F9000010E2F6E306E4EEC03F02C6A2C503EEC9E
:100FA00000F0000905E02C2A2E6E7CEC03F0F6D749
:100FB000010E2F6E020E306E4EEC03F02C6A2C5098
:100FC0004DEC00F0000905E02C2A2E6E7CEC03F0BD
:100FD000F6D70C0E2C6EFA0E2F6EC8EC02F02C2EEB
:100FE000FAD70C0E2E6E7CEC03F0030E2F6E010E62
:100FF000306E4EEC03F02C6A2C505EEC00F00009D1
:1010000005E02C2A2E6E7CEC03F0F6D7020E2F6E34
:10101000306E4EEC03F02C6A2C5069EC00F00009A5
:1010200005E02C2A2E6E7CEC03F0F6D70C0E2C6E0D
:10103000FA0E2F6EC8EC02F02C2EFAD70C0E2E6E84
:101040007CEC03F0020E2F6E010E306E4EEC03F0BE
:101050002C6A2C5075EC00F0000905E02C2A2E6E4D
:101060007CEC03F0F6D7010E2F6E020E306E4EECC4
:1010700003F02C6A2C5082EC00F0000905E02C2AC9
:101080002E6E7CEC03F0F6D70C0E2C6EFA0E2F6E43
:10109000C8EC02F02C2EFAD7B6EF03F03CD43EDDBC
:1010A0001450120802E0000E01D0010E2C6E1550F3
:1010B000340802E0000E01D0010E2C14D8B4E1D0A7
:1010C0000C0E2E6E7CEC03F0010E2F6E306E4EEC8B
:1010D00003F02C6A2C5091EC00F0000905E02C2A5A
:1010E0002E6E7CEC03F0F6D7040E2F6E020E306EDF
:1010F0004EEC03F02C6A2C50A1EC00F0000905E046
:101100002C2A2E6E7CEC03F0F6D70C0E2C6EFA0E09
:101110002F6EC8EC02F02C2EFAD70C0E2E6E7CEC43
:1011200003F0010E2F6E306E4EEC03F02C6A2C5043
:10113000ACEC00F0000905E02C2A2E6E7CEC03F0EC
:10114000F6D7010E2F6E020E306E4EEC03F02C6AB5
:101150002C50BDEC00F0000905E02C2A2E6E7CEC32
:1011600003F0F6D70C0E2C6EFA0E2F6EC8EC02F0C0
:101170002C2EFAD70C0E2E6E7CEC03F0010E2F6E87
:10118000306E4EEC03F02C6A2C50CCEC00F00009D1
:1011900005E02C2A2E6E7CEC03F0F6D7010E2F6EA4
:1011A000020E306E4EEC03F02C6A2C50DDEC00F099
:1011B000000905E02C2A2E6E7CEC03F0F6D70C0E0D
:1011C0002C6EFA0E2F6EC8EC02F02C2EFAD70C0EF5
:1011D0002E6E7CEC03F0010E2F6E306E4EEC03F0A1
:1011E0002C6A2C50EDEC00F0000905E02C2A2E6E44
:1011F0007CEC03F0F6D7010E2F6E020E306E4EEC33
:1012000003F02C6A2C50FDEC00F0000905E02C2ABC
:101210002E6E7CEC03F0F6D70C0E2C6EFA0E2F6EB1
:10122000C8EC02F02C2EFAD790DD232C02D0B9EFB7
:101230000CF02350020801E134D02350030801E1EF
:10124000FF000C0E2E6E7CEC03F0010E2F6E020ED2
:10125000306E4EEC03F02C6A2C5008EC01F00009C3
:1012600005E02C2A2E6E7CEC03F0F6D70C0E2C6ECB
:10127000FA0E2F6EC8EC02F02C2EFAD721D730EFE1
:1012800010F01D50145C02E0000E01D0010E2C6E17
:101290001C50155C02E0000E01D0010E2C14D8B4D5
:1012A00058D3206A0C0E2E6E7CEC03F0010E2F6ECC
:1012B000306E4EEC03F02C6A2C5018EC01F0000953
:1012C00005E02C2A2E6E7CEC03F0F6D7010E2F6E73
:1012D000020E306E4EEC03F02C6A2C5026EC01F01E
:1012E000000905E02C2A2E6E7CEC03F0F6D70C0EDC
:1012F0002C6EFA0E2F6EC8EC02F02C2EFAD70C0EC4
:101300002E6E7CEC03F0010E2F6E306E4EEC03F06F
:101310002C6A2C5032EC01F0000905E02C2A2E6ECC
:101320007CEC03F0F6D7010E2F6E020E306E4EEC01
:1013300003F02C6A2C5042EC01F0000905E02C2A45
:101340002E6E7CEC03F0F6D70C0E2C6EFA0E2F6E80
:10135000C8EC02F02C2EFAD70C0E2E6E7CEC03F0AB
:10136000010E2F6E306E4EEC03F02C6A2C5052ECB6
:1013700001F0000905E02C2A2E6E7CEC03F0F6D774
:10138000010E2F6E020E306E4EEC03F02C6A2C50C4
:1013900062EC01F0000905E02C2A2E6E7CEC03F0D3
:1013A000F6D70C0E2C6EFA0E2F6EC8EC02F02C2E17
:1013B000FAD70C0E2E6E7CEC03F0010E2F6E306E01
:1013C0004EEC03F02C6A2C5070EC01F0000905E0A3
:1013D0002C2A2E6E7CEC03F0F6D7010E2F6E020E37
:1013E000306E4EEC03F02C6A2C5081EC01F00009B9
:1013F00005E02C2A2E6E7CEC03F0F6D70C0E2C6E3A
:10140000FA0E2F6EC8EC02F02C2EFAD70C0E2E6EB0
:101410007CEC03F0010E2F6E306E4EEC03F02C6A64
:101420002C5090EC01F0000905E02C2A2E6E7CEC8B
:1014300003F0F6D7010E2F6E020E306E4EEC03F065
:101440002C6A2C509BEC01F0000905E02C2A2E6E32
:101450007CEC03F0F6D70C0E2C6EFA0E2F6EC8EC57
:1014600002F02C2EFAD70C0E2E6E7CEC03F0010E3F
:101470002F6E306E4EEC03F02C6A2C50A7EC01F06E
:10148000000905E02C2A2E6E7CEC03F0F6D7030E43
:101490002F6E020E306E4EEC03F02C6A2C50B5EC21
:1014A00001F0000905E02C2A2E6E7CEC03F0F6D743
:1014B0000C0E2C6EFA0E2F6EC8EC02F02C2EFAD702
:1014C00044DC232CBFD00C0E2E6E7CEC03F0010EFE
:1014D0002F6E306E4EEC03F02C6A2C50C1EC01F0F4
:1014E000000905E02C2A2E6E7CEC03F0F6D7030EE3
:1014F0002F6E020E306E4EEC03F02C6A2C50D2ECA4
:1015000001F0000905E02C2A2E6E7CEC03F0F6D7E2
:101510000C0E2C6EFA0E2F6EC8EC02F02C2EFAD7A1
:101520008EEC05F014C021F015C022F00C0E2E6ECA
:101530007CEC03F0010E2F6E306E4EEC03F02C6A43
:101540002C50E3EC01F0000905E02C2A2E6E7CEC17
:1015500003F0F6D7010E2F6E020E306E4EEC03F044
:101560002C6A2C50F4EC01F0000905E02C2A2E6EB8
:101570007CEC03F0F6D70C0E2C6EFA0E2F6EC8EC36
:1015800002F02C2EFAD78EEC05F02150145C02E00C
:10159000000E01D0010E2C6E2250155C02E0000EF0
:1015A00001D0010E2C1430E07BDC0C0E2E6E7CEC96
:1015B00003F0010E2F6E306E4EEC03F02C6A2C50AF
:1015C00005EC02F0000905E02C2A2E6E7CEC03F0FD
:1015D000F6D7030E2F6E020E306E4EEC03F02C6A1F
:1015E0002C5016EC02F0000905E02C2A2E6E7CEC43
:1015F00003F0F6D70C0E2C6EFA0E2F6EC8EC02F02C
:101600002C2EFAD74ED61DD00C0E2E6E7CEC03F08D
:10161000010E2F6E306E4EEC03F02C6A2C5023EC32
:1016200002F0000905E02C2A2E6E7CEC03F0F6D7C0
:101630000C0E2C6EFA0E2F6EC8EC02F02C2EFAD780
:1016400030D685D1235002082FE10C0E2E6E7CEC93
:1016500003F0010E2F6E306E4EEC03F02C6A2C500E
:1016600033EC02F0000905E02C2A2E6E7CEC03F02E
:10167000F6D7030E2F6E020E306E4EEC03F02C6A7E
:101680002C5044EC02F0000905E02C2A2E6E7CEC74
:1016900003F0F6D70C0E2C6EFA0E2F6EC8EC02F08B
:1016A0002C2EFAD7FED553D1235003082FE10C0E70
:1016B0002E6E7CEC03F0010E2F6E306E4EEC03F0BC
:1016C0002C6A2C5054EC02F0000905E02C2A2E6EF6
:1016D0007CEC03F0F6D7030E2F6E020E306E4EEC4C
:1016E00003F02C6A2C5044EC02F0000905E02C2A8F
:1016F0002E6E7CEC03F0F6D70C0E2C6EFA0E2F6ECD
:10170000C8EC02F02C2EFAD7CCD521D123500408F6
:101710002FE10C0E2E6E7CEC03F0010E2F6E306E5E
:101720004EEC03F02C6A2C5063EC02F0000905E04B
:101730002C2A2E6E7CEC03F0F6D7030E2F6E020ED1
:10174000306E4EEC03F02C6A2C5044EC02F0000991
:1017500005E02C2A2E6E7CEC03F0F6D70C0E2C6ED6
:10176000FA0E2F6EC8EC02F02C2EFAD79AD5EFD0D5
:10177000235005082FE10C0E2E6E7CEC03F0010EB9
:101780002F6E306E4EEC03F02C6A2C5074EC02F08D
:10179000000905E02C2A2E6E7CEC03F0F6D7030E30
:1017A0002F6E020E306E4EEC03F02C6A2C5044EC7F
:1017B00002F0000905E02C2A2E6E7CEC03F0F6D72F
:1017C0000C0E2C6EFA0E2F6EC8EC02F02C2EFAD7EF
:1017D00068D5BDD0235006082FE10C0E2E6E7CEC90
:1017E00003F0010E2F6E306E4EEC03F02C6A2C507D
:1017F00084EC02F0000905E02C2A2E6E7CEC03F04C
:10180000F6D7030E2F6E020E306E4EEC03F02C6AEC
:101810002C5044EC02F0000905E02C2A2E6E7CECE2
:1018200003F0F6D70C0E2C6EFA0E2F6EC8EC02F0F9
:101830002C2EFAD736D58BD0235007082FE10C0E6B
:101840002E6E7CEC03F0010E2F6E306E4EEC03F02A
:101850002C6A2C5091EC02F0000905E02C2A2E6E27
:101860007CEC03F0F6D7030E2F6E020E306E4EECBA
:1018700003F02C6A2C5044EC02F0000905E02C2AFD
:101880002E6E7CEC03F0F6D70C0E2C6EFA0E2F6E3B
:10189000C8EC02F02C2EFAD704D559D023500808F2
:1018A0002FE10C0E2E6E7CEC03F0010E2F6E306ECD
:1018B0004EEC03F02C6A2C509EEC02F0000905E07F
:1018C0002C2A2E6E7CEC03F0F6D7030E2F6E020E40
:1018D000306E4EEC03F02C6A2C5044EC02F0000900
:1018E00005E02C2A2E6E7CEC03F0F6D70C0E2C6E45
:1018F000FA0E2F6EC8EC02F02C2EFAD7D2D427D0D5
:101900002350090803E160EF08F021D00C0E2E6E81
:101910007CEC03F0010E2F6E020E306E4EEC03F0E5
:101920002C6A2C5008EC01F0000905E02C2A2E6EE0
:101930007CEC03F0F6D70C0E2C6EFA0E2F6EC8EC72
:1019400002F02C2EFAD797EF07F060EF08F030EF97
:1019500010F01E50145C02E0000E01D0010E2C6E3F
:101960001F50155C02E0000E01D0010E2C14D8B4FB
:1019700058D3020E206E0C0E2E6E7CEC03F0010E7E
:101980002F6E306E4EEC03F02C6A2C5018EC01F0E8
:10199000000905E02C2A2E6E7CEC03F0F6D7040E2D
:1019A0002F6E020E306E4EEC03F02C6A2C50ADEC14
:1019B00002F0000905E02C2A2E6E7CEC03F0F6D72D
:1019C0000C0E2C6EFA0E2F6EC8EC02F02C2EFAD7ED
:1019D0000C0E2E6E7CEC03F0010E2F6E306E4EEC72
:1019E00003F02C6A2C5032EC01F0000905E02C2A9F
:1019F0002E6E7CEC03F0F6D7010E2F6E020E306EC9
:101A00004EEC03F02C6A2C5042EC01F0000905E08A
:101A10002C2A2E6E7CEC03F0F6D70C0E2C6EFA0EF0
:101A20002F6EC8EC02F02C2EFAD70C0E2E6E7CEC2A
:101A300003F0010E2F6E306E4EEC03F02C6A2C502A
:101A400052EC01F0000905E02C2A2E6E7CEC03F02C
:101A5000F6D7010E2F6E020E306E4EEC03F02C6A9C
:101A60002C5062EC01F0000905E02C2A2E6E7CEC73
:101A700003F0F6D70C0E2C6EFA0E2F6EC8EC02F0A7
:101A80002C2EFAD70C0E2E6E7CEC03F0010E2F6E6E
:101A9000306E4EEC03F02C6A2C5070EC01F0000913
:101AA00005E02C2A2E6E7CEC03F0F6D7010E2F6E8B
:101AB000020E306E4EEC03F02C6A2C5081EC01F0DB
:101AC000000905E02C2A2E6E7CEC03F0F6D70C0EF4
:101AD0002C6EFA0E2F6EC8EC02F02C2EFAD70C0EDC
:101AE0002E6E7CEC03F0010E2F6E306E4EEC03F088
:101AF0002C6A2C5090EC01F0000905E02C2A2E6E87
:101B00007CEC03F0F6D7010E2F6E020E306E4EEC19
:101B100003F02C6A2C509BEC01F0000905E02C2A04
:101B20002E6E7CEC03F0F6D70C0E2C6EFA0E2F6E98
:101B3000C8EC02F02C2EFAD70C0E2E6E7CEC03F0C3
:101B4000010E2F6E306E4EEC03F02C6A2C50A7EC79
:101B500001F0000905E02C2A2E6E7CEC03F0F6D78C
:101B6000030E2F6E020E306E4EEC03F02C6A2C50DA
:101B7000B5EC01F0000905E02C2A2E6E7CEC03F098
:101B8000F6D70C0E2C6EFA0E2F6EC8EC02F02C2E2F
:101B9000FAD7A5EC06F0232CC0D00C0E2E6E7CECF0
:101BA00003F0010E2F6E306E4EEC03F02C6A2C50B9
:101BB000C1EC01F0000905E02C2A2E6E7CEC03F04C
:101BC000F6D7030E2F6E020E306E4EEC03F02C6A29
:101BD0002C50D2EC01F0000905E02C2A2E6E7CEC92
:101BE00003F0F6D70C0E2C6EFA0E2F6EC8EC02F036
:101BF0002C2EFAD78EEC05F014C021F015C022F07F
:101C00000C0E2E6E7CEC03F0010E2F6E306E4EEC3F
:101C100003F02C6A2C50E3EC01F0000905E02C2ABB
:101C20002E6E7CEC03F0F6D7010E2F6E020E306E96
:101C30004EEC03F02C6A2C50F4EC01F0000905E0A6
:101C40002C2A2E6E7CEC03F0F6D70C0E2C6EFA0EBE
:101C50002F6EC8EC02F02C2EFAD78EEC05F0215036
:101C6000145C02E0000E01D0010E2C6E2250155CB7
:101C700002E0000E01D0010E2C1431E050EC07F010
:101C80000C0E2E6E7CEC03F0010E2F6E306E4EECBF
:101C900003F02C6A2C5005EC02F0000905E02C2A18
:101CA0002E6E7CEC03F0F6D7030E2F6E020E306E14
:101CB0004EEC03F02C6A2C5016EC02F0000905E003
:101CC0002C2A2E6E7CEC03F0F6D70C0E2C6EFA0E3E
:101CD0002F6EC8EC02F02C2EFAD74BD61DD00C0E6E
:101CE0002E6E7CEC03F0010E2F6E306E4EEC03F086
:101CF0002C6A2C5023EC02F0000905E02C2A2E6EF1
:101D00007CEC03F0F6D70C0E2C6EFA0E2F6EC8EC9E
:101D100002F02C2EFAD72DD683D1235002082FE1C2
:101D20000C0E2E6E7CEC03F0010E2F6E306E4EEC1E
:101D300003F02C6A2C5033EC02F0000905E02C2A49
:101D40002E6E7CEC03F0F6D7030E2F6E020E306E73
:101D50004EEC03F02C6A2C5044EC02F0000905E034
:101D60002C2A2E6E7CEC03F0F6D70C0E2C6EFA0E9D
:101D70002F6EC8EC02F02C2EFAD7FBD551D1235090
:101D800003082FE10C0E2E6E7CEC03F0010E2F6E7B
:101D9000306E4EEC03F02C6A2C5054EC02F000092B
:101DA00005E02C2A2E6E7CEC03F0F6D7030E2F6E86
:101DB000020E306E4EEC03F02C6A2C5044EC02F014
:101DC000000905E02C2A2E6E7CEC03F0F6D70C0EF1
:101DD0002C6EFA0E2F6EC8EC02F02C2EFAD7C9D555
:101DE0001FD1235004082FE10C0E2E6E7CEC03F063
:101DF000010E2F6E306E4EEC03F02C6A2C5063EC0B
:101E000002F0000905E02C2A2E6E7CEC03F0F6D7D8
:101E1000030E2F6E020E306E4EEC03F02C6A2C5027
:101E200044EC02F0000905E02C2A2E6E7CEC03F055
:101E3000F6D70C0E2C6EFA0E2F6EC8EC02F02C2E7C
:101E4000FAD797D5EDD0235005082FE10C0E2E6E52
:101E50007CEC03F0010E2F6E306E4EEC03F02C6A1A
:101E60002C5074EC02F0000905E02C2A2E6E7CEC5C
:101E700003F0F6D7030E2F6E020E306E4EEC03F019
:101E80002C6A2C5044EC02F0000905E02C2A2E6E3E
:101E90007CEC03F0F6D70C0E2C6EFA0E2F6EC8EC0D
:101EA00002F02C2EFAD765D5BBD0235006082FE1BF
:101EB0000C0E2E6E7CEC03F0010E2F6E306E4EEC8D
:101EC00003F02C6A2C5084EC02F0000905E02C2A67
:101ED0002E6E7CEC03F0F6D7030E2F6E020E306EE2
:101EE0004EEC03F02C6A2C5044EC02F0000905E0A3
:101EF0002C2A2E6E7CEC03F0F6D70C0E2C6EFA0E0C
:101F00002F6EC8EC02F02C2EFAD733D589D023508F
:101F100007082FE10C0E2E6E7CEC03F0010E2F6EE5
:101F2000306E4EEC03F02C6A2C5091EC02F000095C
:101F300005E02C2A2E6E7CEC03F0F6D7030E2F6EF4
:101F4000020E306E4EEC03F02C6A2C5044EC02F082
:101F5000000905E02C2A2E6E7CEC03F0F6D70C0E5F
:101F60002C6EFA0E2F6EC8EC02F02C2EFAD701D58B
:101F700057D0235008082FE10C0E2E6E7CEC03F096
:101F8000010E2F6E306E4EEC03F02C6A2C509EEC3E
:101F900002F0000905E02C2A2E6E7CEC03F0F6D747
:101FA000030E2F6E020E306E4EEC03F02C6A2C5096
:101FB00044EC02F0000905E02C2A2E6E7CEC03F0C4
:101FC000F6D70C0E2C6EFA0E2F6EC8EC02F02C2EEB
:101FD000FAD7CFD425D02350090803E160EF08F0E9
:101FE0001FD00C0E2E6E7CEC03F0010E2F6E020E35
:101FF000306E4EEC03F02C6A2C5008EC01F0000916
:1020000005E02C2A2E6E7CEC03F0F6D70C0E2C6E1D
:10201000FA0E2F6EC8EC02F02C2EFAD797EF07F0CD
:102020001FD00C0E2E6E7CEC03F0010E2F6E020EF4
:10203000306E4EEC03F02C6A2C50B8EC02F0000924
:1020400005E02C2A2E6E7CEC03F0F6D70C0E2C6EDD
:10205000FA0E2F6EC8EC02F02C2EFAD797EF07F08D
:0220600003007B
:0200000400F00A
:04000000234534560A
:020000040030CA
:0E000000000C181E000381000FC00FE00F401F
:00000001FF
;PIC18F4550
;CRC=A81A  CREATED="10-oct.-21 21:21"
