:10000000CCEF06F0F76A140FF66E000EF722090027
:10001000F5501200280C0106F76A280FF66E000E44
:10002000F7220900F550120031323341343536429F
:10003000373839432A302344F76A480FF66E000EEA
:10004000F7220900F550120020204249454E56453E
:100050004E49444F5300F76A660FF66E000EF722C2
:100060000900F55012004152512E20434F4D502EA1
:10007000204E4F4348450000F76A880FF66E000E89
:10008000F7220900F55012000C2043414D494C4F16
:100090002050494E4C4C410A205645524F4E494340
:1000A0004120464F5245524F0000F76ABA0FF66E94
:1000B000000EF7220900F55012000C2020202050DD
:1000C0004F52204641564F520A2020444947495436
:1000D0004520434C41564500F76AE80FF66E000E86
:1000E000F7220900F55012000C204249454E562EC9
:1000F00020414C204D454E550A2044454C20444952
:1001000053454E41444F5200F76A180FF66E010EE8
:10011000F7220900F55012000C204D41525155456F
:10012000203120504152413A0A204D454E5520443D
:10013000452043414D494C4F0000F76A4A0FF66E87
:10014000010EF7220900F55012000C204D415251CA
:100150005545203220504152413A0A204D454E55D6
:10016000205645524F4E49434100F76A7A0FF66ECA
:10017000010EF7220900F55012000C204D4152519A
:100180005545203320504152413A0A2053414C49B1
:100190005200F76AA20FF66E010EF7220900F55021
:1001A00012000C204552524F52204445204E554DCE
:1001B00045524F3A0A202000F76AC80FF66E010E2A
:1001C000F7220900F55012000C204249454E562EE8
:1001D00020414C204D454E550A2044452043414D79
:1001E000494C4F00F76AF40FF66E010EF722090032
:1001F000F55012000C204D415251554520312050F0
:10020000415241200A2043414D4249415220434C32
:1002100041564500F76A240FF66E020EF7220900D8
:10022000F55012000C204D415251554520322050BE
:10023000415241200A204645434841205920484F19
:1002400052410000F76A540FF66E020EF7220900C1
:10025000F55012000C204D4152515545203320508D
:10026000415241200A205245504F525445530000FC
:10027000F76A800FF66E020EF7220900F5501200A1
:100280000C204D41525155452034205041524120BF
:100290000A204D5452205041534F20412050415389
:1002A0004F00F76AB20FF66E020EF7220900F55002
:1002B00012000C204D4152515545203520504152DD
:1002C00041200A20534552564F4D4F544F52000083
:1002D000F76AE00FF66E020EF7220900F5501200E1
:1002E0000C204D415251554520362050415241205D
:1002F0000A2043414400F76A060FF66E030EF72208
:100300000900F55012000C204D415251554520373F
:100310002050415241200A204454464D0000F76AC3
:100320002E0FF66E030EF7220900F55012000C2076
:100330004D415251554520382050415241200A200C
:1003400053454E534F5245530000F76A5A0FF66E0D
:10035000030EF7220900F55012000C204D415251B6
:10036000554520392050415241200A2053414C49E3
:100370005200F76A820FF66E030EF7220900F5505D
:1003800012004D454E2043414D4249415220434CBD
:1003900041560000F76AA40FF66E030EF72209001B
:1003A000F5501200444947495445204E552E2043EC
:1003B0004C4156450000F76AC60FF66E030EF72251
:1003C0000900F5501200504F52204641564F52201E
:1003D0004449474954450000F76AE80FF66E030E9A
:1003E000F7220900F5501200444947495445204E70
:1003F00055452E434C4156450000F76A0A0FF66EEC
:10040000040EF7220900F5501200434C41564520D6
:100410004D4F44494649434144410000F76A2C0F7F
:10042000F66E040EF7220900F5501200434F4E20DD
:10043000455849544F00F76A460FF66E040EF722EE
:100440000900F55012004552524F522044452043B6
:100450004C4156450000F76A660FF66E040EF7220F
:100460000900F55012004D454E20464543484120B5
:100470005920484F52410000F76A880FF66E040E6B
:10048000F7220900F5501200454E20434F4E5354B9
:1004900052554343494F4E00F76AA80FF66E040EBB
:1004A000F7220900F55012004D454E552052455097
:1004B0004F5254455300F76AC60FF66E040EF722EA
:1004C0000900F55012004D454E204D4F544F52201B
:1004D00050415320412E0000F76AE80FF66E040EDB
:1004E000F7220900F55012004D454E205345525653
:1004F0004F4D4F544F520000F76A080FF66E050E2D
:10050000F7220900F55012004D454E552043414455
:100510000000F76A220FF66E050EF7220900F5506B
:1005200012004D454E2044544D460000F76A3C0FE2
:10053000F66E050EF7220900F55012004D454E20CB
:1005400053454E534F5245530000F76A5A0FF66E0B
:10055000050EF7220900F55012004552524F522065
:100560004445204E554D45524F00F76A7A0FF66EBE
:10057000050EF7220900F55012000C204249454EA5
:10058000562E20414C204D454E550A2044452056BC
:1005900045524F4E49434100F76AA80FF66E050ECB
:1005A000F7220900F5501200434F4E5452412E20BD
:1005B0004552524F4E454100EA6A2E0EE96EEF5009
:1005C0000DE0060E016E006A002EFED7012EFBD74D
:1005D0007B0E006E002EFED7EF2EF3D7000C362CCC
:1005E00001D03588376A3750040811E3D890353286
:1005F00002E28D9001D08D809690000096928D92AF
:1006000000D000D0000096928D82372AECD79694C5
:100610008D84030E006E002EFED796948D94000CF0
:100620000B6AA60E006E002EFED70000325203E0C9
:10063000010E0B6E01D00B6A000096948D94333836
:10064000346E0F0E341634C035F00BC036F0C7DFF1
:1006500033500F0B346E356E0BC036F0C0DF000C1C
:100660000B6A96948D94140E2E6EA6DF2C6A2C5075
:1006700002080AE3030E356E0BC036F0B0DF050E3C
:100680002E6E9ADF2C2AF3D7020E356E0BC036F091
:10069000A6DF2C6A2C50030811E3036A2C50F2CF1A
:1006A0002DF0F29EAFDC2DBEF28E2D6E326A336ECF
:1006B000B7DF050E2E6E80DF2C2AECD7EFEF06F0A9
:1006C000F0EF06F0010E2F5CFC0F0FE2040F7FEF3E
:1006D00003F0800E306E09D0C00E306E06D0940E3E
:1006E000306E03D0D40E306E00D0010E2E5C30265A
:1006F00030508009316E326A336E92DF000CE8248C
:10070000F76AF736190FF66E070EF7220A00F55052
:10071000FA6E0800F550F96ED206D806DE06E40639
:100720002D500C0A0BE0060A13E0020A18E06B0ACF
:100730001BE0040A1EE00F0A21E025D0326A010EF8
:10074000336E6EDF010E0C6E080E2E6E35DF21D07B
:100750000C2A010E2E6E0CC02FF0B4DF1AD0326AB4
:10076000100E336E5DDF15D0326A0C0E336E58DF1B
:1007700010D0326A0F0E336E53DF0BD0326A0F0E79
:10078000336E4EDF06D0010E326E2DC033F048DFDF
:1007900000D0000C116A1150030818E3036A1150CD
:1007A000180FE96E000E0320EA6EF2CF2EF0F29ED3
:1007B00011C0A9FFA69CA69EA680A8502EBEF28EB0
:1007C000EF6E010E2E6EF8DE112AE5D745EF07F029
:1007D000080E016E050E006E002EFED789909290D5
:1007E000060E006E002EFED733368992D8B0928264
:1007F000D8A09292928080A0FED7012EEBD7050E52
:10080000006E002EFED78990929000009282060E14
:10081000006E002EFED7060E006E002EFED79280D0
:1008200080A0FED7016A060E006E002EFED780B2B1
:1008300001808990929089929292000C080E326EFB
:1008400000C033F09282060E006E002EFED792801A
:1008500080A0FED780B2D88080A2D8900136050E45
:10086000006E002EFED792908990322EEBD79282A6
:10087000060E006E002EFED789923350D8A49292B5
:100880000000928080A0FED7050E006E002EFED7DD
:1008900089909290060E006E002EFED78992929259
:1008A00089EF04F09282050E006E002EFED7928032
:1008B000060E006E002EFED789929292050E006EF3
:1008C000002EFED789909290A00E336E81DF2FC04C
:1008D00031F0326A2FC033F07BDF2EC033F078DF87
:1008E0009282050E006E002EFED79280060E006EDC
:1008F000002EFED780A0FED789929292050E006E40
:10090000002EFED789909290A10E336E61DF006AAF
:1009100095D701C030F092920000928080A0FED75F
:10092000050E006E002EFED700D000009282050E4C
:10093000006E002EFED730C001F0B1EF04F0116A56
:100940001150030819E3036A11501C0F016E000EC9
:10095000032201C02CF003C02DF02F6A11C02EF02D
:10096000A1D72DC0EAFF2CC0E9FF01C0EFFF010EA7
:100970002E6E22DE112AE4D746EF07F08E0E006EAF
:100980002FC001F02EC002F0036A015209E102C03B
:1009900001F0026A080E005E015202E1006A08D00E
:1009A000D89001BE04D0023601360006F9D7019E68
:1009B0001DEF05F02FC036F03350361A36AE05D095
:1009C000D894D8902FBED8802FD02FC036F032C008
:1009D00037F02E50375E06E036AE26D0D850010AEA
:1009E000D86E22D033C037F02F50375E06E036AED7
:1009F0001BD0D850010AD86E17D034C037F0305011
:100A0000375E06E036AE10D0D850010AD86E0CD052
:100A100035C037F03150375E06E036AE05D0D850DD
:100A2000010AD86E01D0D8902EEF05F0F19E2C6A05
:100A30000D2A2F6A0DC02EF0A1D7CD0E316ECC0E2F
:100A4000306E4C0E2F6E7C0E2E6E03C035F002C041
:100A500034F001C033F000C032F0ACD75BE310508B
:100A6000FC0F17E2040F91EF05F0F00E936E0E0EDF
:100A7000816E0FD0F00E936E0D0E816E0AD0F00EC7
:100A8000936E0B0E816E05D0F00E936E070E816E85
:100A900000D00EA009D08150F00BF00804E10E90B8
:100AA0000FC02CF00F6A35D08150F00BF0082CE00D
:100AB0008150100B02E12D6A11D08150200B03E10F
:100AC000010E2D6E0BD08150400B03E1020E2D6EF6
:100AD00005D08150800B02E1030E2D6E2D50040DC8
:100AE000F3502F6A2E6E036A10502E24016E2F5081
:100AF00003220150F2CF2EF0F29E0CEC00F02EBE3D
:100B0000F28E0F6E0E8005D0102A1050040801E1FD
:100B1000106A0D6A0FC02CF0F00E936E2CC001F01D
:100B2000000CE824F76AF7363D0FF66E0B0EF7223D
:100B30000A00F550FA6E0800F550F96E6A0A740A58
:100B40007E0A880A0C0E2D6EEBDD296A286A2B6A54
:100B50002A6A060E126E116A11500308D8A0AFD08F
:100B600065DF01C023F03C0E2E6E26DD2352D8B483
:100B700078D0010E1124FF0FFC0FD8B066D0040FFF
:100B800060EF06F0060E2E6E020E2F6E9BDD23C068
:100B90002DF0C6DD300E235C146E143A060E2E6E58
:100BA000010E2F6E8FDD2A0E2D6EBADD320E2E6EE7
:100BB00003DD4BD0070E2E6E020E2F6E83DD23C099
:100BC0002DF0AEDD300E235C156E15501426070E89
:100BD0002E6E010E2F6E76DD2A0E2D6EA1DD320EE9
:100BE0002E6EEADC32D0080E2E6E020E2F6E6ADDFB
:100BF00023C02DF095DD300E235C166E163A080EDC
:100C00002E6E010E2F6E5EDD2A0E2D6E89DD320EE8
:100C10002E6ED2DC1AD0090E2E6E020E2F6E52DD11
:100C200023C02DF07DDD300E235C176E1750162487
:100C3000156E090E2E6E010E2F6E44DD2A0E2D6EDE
:100C40006FDD320E2E6EB8DC00D0112A020E2C6E33
:100C5000FA0E2E6EB1DC2C2EFBD72B6A2A6A296A7B
:100C6000286A2A2AD8B42B2A2B5203E12A501408C6
:100C700005E2282AD8B4292A2B6A2A6A11500308C7
:100C800006E3295204E128500508D8B069D7036A61
:100C90001150140FE96E000E0320EA6E230EEF6E62
:100CA00012C02EF0010E2F6E0DDD2A0E2D6E38DDD6
:100CB000122A2B6A2A6A296A286A112A4DD7000C3F
:100CC000E824F76AF736DB0FF66E0C0EF7220A00FF
:100CD000F550FA6E0800F550F96E840BB40BE60B74
:100CE000160C0C0E2D6E1CDD296A286A2B6A2A6AE6
:100CF0000E929CDE01C023F03C0E2E6E5DDC235272
:100D00000CE0080E2E6E010E2F6EDCDC23C02DF0E1
:100D100007DD300E235E0E820DD02A2AD8B42B2A8E
:100D20002B5203E12A50140805E2282AD8B4292AB4
:100D30002B6A2A6A295205E12850050802E30EA20F
:100D4000D8D7000C116A1150010825E3036A11502D
:100D5000140FE96E000E0320EA6EEFCF2CF020C0D6
:100D6000A9FF2CC0A8FFA69CA69EA684F2CF00F0E7
:100D7000F29E0F01550EA76EAA0EA76EA682A6B20E
:100D8000FED7A6940050F212050E2E6E000114DC60
:100D9000202A112AD8D7000CF86AD09EFE0E006EC9
:100DA000080E016E020EE96E000EEA6EEE6A002E6B
:100DB000FDD7012EFBD7EA6AE96AC150C00B0F09C3
:100DC000C16E070EB46E056A066A0D6A0E900F6A50
:100DD000106A280E926E000E936E956E41D470D4F8
:100DE000926A896A936A8A6A956A8C6A0C0E2D6E79
:100DF00097DC010E2E6E2F6E65DC2C6A2C501CECDD
:100E000000F0000904E02C2A2D6E8ADCF7D7010ED1
:100E10002E6E020E2F6E56DC2C6A2C502BEC00F03E
:100E2000000904E02C2A2D6E7BDCF7D70C0E2C6E0B
:100E3000FA0E2E6EDCEC02F02C2EFAD72C6A2C5017
:100E40003CEC00F02C2A006E2D6E6ADC200E2C5C2F
:100E5000F6E10C0E2C6EFA0E2E6EDCEC02F02C2E4F
:100E6000FAD72C6A2C5055EC00F02C2A006E2D6E0F
:100E700057DC1D0E2C5CF6E10C0E2C6EFA0E2E6E5D
:100E8000DCEC02F02C2EFAD785D459D55BDE145059
:100E9000150802E0000E01D0010E2C6E155052080C
:100EA00002E0000E01D0010E2C14D8B473D02C6ACD
:100EB0002C506CEC00F02C2A006E2D6E31DC1F0ED5
:100EC0002C5CF6E10C0E2C6EFA0E2E6EDCEC02F0B1
:100ED0002C2EFAD72C6A2C5084EC00F02C2A006EB1
:100EE0002D6E1EDC200E2C5CF6E10C0E2C6EFA0E24
:100EF0002E6EDCEC02F02C2EFAD72C6A2C509DECD6
:100F000000F02C2A006E2D6E0BDC1F0E2C5CF6E11F
:100F10000C0E2C6EFA0E2E6EDCEC02F02C2EFAD794
:100F20002C6A2C50B5EC00F02C2A006E2D6E90EC43
:100F300003F0170E2C5CF5E10C0E2C6EFA0E2E6EE3
:100F4000DCEC02F02C2EFAD7CCDE232C02D032D0EF
:100F50001FD02350020802E148D31AD023500308BF
:100F600002E1FF0015D02C6A2C50C9EC00F02C2AAD
:100F7000006E2D6E90EC03F0150E2C5CF5E10C0E5E
:100F80002C6EFA0E2E6EDCEC02F02C2EFAD78FD7D8
:100F900026EF0EF01950145C02E0000E01D0010E95
:100FA0002C6E1850155C02E0000E01D0010E2C14BE
:100FB000D8B40BD3206A2C6A2C50DCEC00F02C2A1D
:100FC000006E2D6E90EC03F01B0E2C5CF5E10C0E08
:100FD0002C6EFA0E2E6EDCEC02F02C2EFAD72C6A58
:100FE0002C50F2EC00F02C2A006E2D6E90EC03F0E9
:100FF0001F0E2C5CF5E10C0E2C6EFA0E2E6EDCEC46
:1010000002F02C2EFAD72C6A2C500AEC01F02C2A74
:10101000006E2D6E90EC03F01E0E2C5CF5E10C0EB4
:101020002C6EFA0E2E6EDCEC02F02C2EFAD72C6A07
:101030002C5022EC01F02C2A006E2D6E90EC03F067
:101040001A0E2C5CF5E10C0E2C6EFA0E2E6EDCECFA
:1010500002F02C2EFAD72C6A2C5038EC01F02C2AF6
:10106000006E2D6E90EC03F0210E2C5CF5E10C0E61
:101070002C6EFA0E2E6EDCEC02F02C2EFAD72C6AB7
:101080002C5051EC01F02C2A006E2D6E90EC03F0E8
:101090001C0E2C5CF5E10C0E2C6EFA0E2E6EDCECA8
:1010A00002F02C2EFAD72C6A2C5068EC01F02C2A76
:1010B000006E2D6E90EC03F0150E2C5CF5E10C0E1D
:1010C0002C6EFA0E2E6EDCEC02F02C2EFAD72C6A67
:1010D0002C507BEC01F02C2A006E2D6E90EC03F06E
:1010E000160E2C5CF5E10C0E2C6EFA0E2E6EDCEC5E
:1010F00002F02C2EFAD72C6A2C508FEC01F02C2AFF
:10110000006E2D6E90EC03F01A0E2C5CF5E10C0EC7
:101110002C6EFA0E2E6EDCEC02F02C2EFAD72C6A16
:101120002C50A5EC01F02C2A006E2D6E90EC03F0F3
:10113000170E2C5CF5E10C0E2C6EFA0E2E6EDCEC0C
:1011400002F02C2EFAD7CDDD232CBDD00C0E2D6E47
:1011500090EC03F0010E2E6E2F6E62EC03F02C6A01
:101160002C50B9EC01F0000905E02C2A2D6E90EC12
:1011700003F0F6D7030E2E6E020E2F6E62EC03F014
:101180002C6A2C50CAEC01F0000905E02C2A2D6EC7
:1011900090EC03F0F6D70C0E2C6EFA0E2E6EDCECF3
:1011A00002F02C2EFAD7CEDC14C021F015C022F0AC
:1011B0000C0E2D6E90EC03F0010E2E6E2F6E62EC75
:1011C00003F02C6A2C50DBEC01F0000905E02C2A1E
:1011D0002D6E90EC03F0F6D7010E2E6E020E2F6EE0
:1011E00062EC03F02C6A2C50ECEC01F0000905E0F5
:1011F0002C2A2D6E90EC03F0F6D70C0E2C6EFA0E06
:101200002E6EDCEC02F02C2EFAD79CDC2150145C04
:1012100002E0000E01D0010E2C6E2250155C02E09F
:10122000000E01D0010E2C1430E08CDD0C0E2D6E62
:1012300090EC03F0010E2E6E2F6E62EC03F02C6A20
:101240002C50FDEC01F0000905E02C2A2D6E90ECED
:1012500003F0F6D7030E2E6E020E2F6E62EC03F033
:101260002C6A2C500EEC02F0000905E02C2A2D6EA1
:1012700090EC03F0F6D70C0E2C6EFA0E2E6EDCEC12
:1012800002F02C2EFAD796D61DD00C0E2D6E90ECB7
:1012900003F0010E2E6E2F6E62EC03F02C6A2C50C0
:1012A0001BEC02F0000905E02C2A2D6E90EC03F0F7
:1012B000F6D70C0E2C6EFA0E2E6EDCEC02F02C2EF5
:1012C000FAD778D681D1235002082FE10C0E2D6E6B
:1012D00090EC03F0010E2E6E2F6E62EC03F02C6A80
:1012E0002C502BEC02F0000905E02C2A2D6E90EC1E
:1012F00003F0F6D7030E2E6E020E2F6E62EC03F093
:101300002C6A2C503CEC02F0000905E02C2A2D6ED2
:1013100090EC03F0F6D70C0E2C6EFA0E2E6EDCEC71
:1013200002F02C2EFAD746D64FD1235003082FE1D6
:101330000C0E2D6E90EC03F0010E2E6E2F6E62ECF3
:1013400003F02C6A2C504CEC02F0000905E02C2A2A
:101350002D6E90EC03F0F6D7030E2E6E020E2F6E5C
:1013600062EC03F02C6A2C503CEC02F0000905E022
:101370002C2A2D6E90EC03F0F6D70C0E2C6EFA0E84
:101380002E6EDCEC02F02C2EFAD714D61DD1235091
:1013900004082FE10C0E2D6E90EC03F0010E2E6E62
:1013A0002F6E62EC03F02C6A2C505BEC02F000090B
:1013B00005E02C2A2D6E90EC03F0F6D7030E2E6E6E
:1013C000020E2F6E62EC03F02C6A2C503CEC02F003
:1013D000000905E02C2A2D6E90EC03F0F6D70C0ED8
:1013E0002C6EFA0E2E6EDCEC02F02C2EFAD7E2D523
:1013F000EBD0235005082FE10C0E2D6E90EC03F07E
:10140000010E2E6E2F6E62EC03F02C6A2C506CECE9
:1014100002F0000905E02C2A2D6E90EC03F0F6D7BF
:10142000030E2E6E020E2F6E62EC03F02C6A2C500F
:101430003CEC02F0000905E02C2A2D6E90EC03F044
:10144000F6D70C0E2C6EFA0E2E6EDCEC02F02C2E63
:10145000FAD7B0D5B9D0235006082FE10C0E2D6E67
:1014600090EC03F0010E2E6E2F6E62EC03F02C6AEE
:101470002C507CEC02F0000905E02C2A2D6E90EC3B
:1014800003F0F6D7030E2E6E020E2F6E62EC03F001
:101490002C6A2C503CEC02F0000905E02C2A2D6E41
:1014A00090EC03F0F6D70C0E2C6EFA0E2E6EDCECE0
:1014B00002F02C2EFAD77ED587D0235007082FE1D3
:1014C0000C0E2D6E90EC03F0010E2E6E2F6E62EC62
:1014D00003F02C6A2C5089EC02F0000905E02C2A5C
:1014E0002D6E90EC03F0F6D7030E2E6E020E2F6ECB
:1014F00062EC03F02C6A2C503CEC02F0000905E091
:101500002C2A2D6E90EC03F0F6D70C0E2C6EFA0EF2
:101510002E6EDCEC02F02C2EFAD74CD555D0235091
:1015200008082FE10C0E2D6E90EC03F0010E2E6ECC
:101530002F6E62EC03F02C6A2C5096EC02F000093E
:1015400005E02C2A2D6E90EC03F0F6D7030E2E6EDC
:10155000020E2F6E62EC03F02C6A2C503CEC02F071
:10156000000905E02C2A2D6E90EC03F0F6D70C0E46
:101570002C6EFA0E2E6EDCEC02F02C2EFAD71AD559
:1015800023D02350090802E192D41ED00C0E2D6EF8
:1015900090EC03F0010E2E6E020E2F6E62EC03F043
:1015A0002C6A2C50A5EC02F0000905E02C2A2D6EC7
:1015B00090EC03F0F6D70C0E2C6EFA0E2E6EDCECCF
:1015C00002F02C2EFAD712D441D31B50145C02E047
:1015D000000E01D0010E2C6E1A50155C02E0000EB8
:1015E00001D0010E2C14D8B412D3020E206E2C6A36
:1015F0002C50B5EC02F02C2A006E2D6E90EC03F00E
:101600001D0E2C5CF5E10C0E2C6EFA0E2E6EDCEC31
:1016100002F02C2EFAD72C6A2C50F2EC00F02C2A77
:10162000006E2D6E90EC03F01F0E2C5CF5E10C0E9D
:101630002C6EFA0E2E6EDCEC02F02C2EFAD72C6AF1
:101640002C500AEC01F02C2A006E2D6E90EC03F069
:101650001E0E2C5CF5E10C0E2C6EFA0E2E6EDCECE0
:1016600002F02C2EFAD72C6A2C5022EC01F02C2AF6
:10167000006E2D6E90EC03F01A0E2C5CF5E10C0E52
:101680002C6EFA0E2E6EDCEC02F02C2EFAD72C6AA1
:101690002C5038EC01F02C2A006E2D6E90EC03F0EB
:1016A000210E2C5CF5E10C0E2C6EFA0E2E6EDCEC8D
:1016B00002F02C2EFAD72C6A2C5051EC01F02C2A77
:1016C000006E2D6E90EC03F01C0E2C5CF5E10C0E00
:1016D0002C6EFA0E2E6EDCEC02F02C2EFAD72C6A51
:1016E0002C5068EC01F02C2A006E2D6E90EC03F06B
:1016F000150E2C5CF5E10C0E2C6EFA0E2E6EDCEC49
:1017000002F02C2EFAD72C6A2C507BEC01F02C2AFC
:10171000006E2D6E90EC03F0160E2C5CF5E10C0EB5
:101720002C6EFA0E2E6EDCEC02F02C2EFAD72C6A00
:101730002C508FEC01F02C2A006E2D6E90EC03F0F3
:101740001A0E2C5CF5E10C0E2C6EFA0E2E6EDCECF3
:1017500002F02C2EFAD72C6A2C50A5EC01F02C2A82
:10176000006E2D6E90EC03F0170E2C5CF5E10C0E64
:101770002C6EFA0E2E6EDCEC02F02C2EFAD771ECE9
:1017800006F0232CC0D00C0E2D6E90EC03F0010E51
:101790002E6E2F6E62EC03F02C6A2C50B9EC01F027
:1017A000000905E02C2A2D6E90EC03F0F6D7030E0D
:1017B0002E6E020E2F6E62EC03F02C6A2C50CAECD7
:1017C00001F0000905E02C2A2D6E90EC03F0F6D70D
:1017D0000C0E2C6EFA0E2E6EDCEC02F02C2EFAD7CC
:1017E000A2EC05F014C021F015C022F00C0E2D6EF5
:1017F00090EC03F0010E2E6E2F6E62EC03F02C6A5B
:101800002C50DBEC01F0000905E02C2A2D6E90EC49
:1018100003F0F6D7010E2E6E020E2F6E62EC03F06F
:101820002C6A2C50ECEC01F0000905E02C2A2D6EFE
:1018300090EC03F0F6D70C0E2C6EFA0E2E6EDCEC4C
:1018400002F02C2EFAD7A2EC05F02150145C02E035
:10185000000E01D0010E2C6E2250155C02E0000E2D
:1018600001D0010E2C1431E0A2EC06F00C0E2D6E0E
:1018700090EC03F0010E2E6E2F6E62EC03F02C6ADA
:101880002C50FDEC01F0000905E02C2A2D6E90ECA7
:1018900003F0F6D7030E2E6E020E2F6E62EC03F0ED
:1018A0002C6A2C500EEC02F0000905E02C2A2D6E5B
:1018B00090EC03F0F6D70C0E2C6EFA0E2E6EDCECCC
:1018C00002F02C2EFAD791D61DD00C0E2D6E90EC76
:1018D00003F0010E2E6E2F6E62EC03F02C6A2C507A
:1018E0001BEC02F0000905E02C2A2D6E90EC03F0B1
:1018F000F6D70C0E2C6EFA0E2E6EDCEC02F02C2EAF
:10190000FAD773D683D1235002082FE10C0E2D6E27
:1019100090EC03F0010E2E6E2F6E62EC03F02C6A39
:101920002C502BEC02F0000905E02C2A2D6E90ECD7
:1019300003F0F6D7030E2E6E020E2F6E62EC03F04C
:101940002C6A2C503CEC02F0000905E02C2A2D6E8C
:1019500090EC03F0F6D70C0E2C6EFA0E2E6EDCEC2B
:1019600002F02C2EFAD741D651D1235003082FE193
:101970000C0E2D6E90EC03F0010E2E6E2F6E62ECAD
:1019800003F02C6A2C504CEC02F0000905E02C2AE4
:101990002D6E90EC03F0F6D7030E2E6E020E2F6E16
:1019A00062EC03F02C6A2C503CEC02F0000905E0DC
:1019B0002C2A2D6E90EC03F0F6D70C0E2C6EFA0E3E
:1019C0002E6EDCEC02F02C2EFAD70FD61FD123504E
:1019D00004082FE10C0E2D6E90EC03F0010E2E6E1C
:1019E0002F6E62EC03F02C6A2C505BEC02F00009C5
:1019F00005E02C2A2D6E90EC03F0F6D7030E2E6E28
:101A0000020E2F6E62EC03F02C6A2C503CEC02F0BC
:101A1000000905E02C2A2D6E90EC03F0F6D70C0E91
:101A20002C6EFA0E2E6EDCEC02F02C2EFAD7DDD5E1
:101A3000EDD0235005082FE10C0E2D6E90EC03F035
:101A4000010E2E6E2F6E62EC03F02C6A2C506CECA3
:101A500002F0000905E02C2A2D6E90EC03F0F6D779
:101A6000030E2E6E020E2F6E62EC03F02C6A2C50C9
:101A70003CEC02F0000905E02C2A2D6E90EC03F0FE
:101A8000F6D70C0E2C6EFA0E2E6EDCEC02F02C2E1D
:101A9000FAD7ABD5BBD0235006082FE10C0E2D6E24
:101AA00090EC03F0010E2E6E2F6E62EC03F02C6AA8
:101AB0002C507CEC02F0000905E02C2A2D6E90ECF5
:101AC00003F0F6D7030E2E6E020E2F6E62EC03F0BB
:101AD0002C6A2C503CEC02F0000905E02C2A2D6EFB
:101AE00090EC03F0F6D70C0E2C6EFA0E2E6EDCEC9A
:101AF00002F02C2EFAD779D589D0235007082FE190
:101B00000C0E2D6E90EC03F0010E2E6E2F6E62EC1B
:101B100003F02C6A2C5089EC02F0000905E02C2A15
:101B20002D6E90EC03F0F6D7030E2E6E020E2F6E84
:101B300062EC03F02C6A2C503CEC02F0000905E04A
:101B40002C2A2D6E90EC03F0F6D70C0E2C6EFA0EAC
:101B50002E6EDCEC02F02C2EFAD747D557D023504E
:101B600008082FE10C0E2D6E90EC03F0010E2E6E86
:101B70002F6E62EC03F02C6A2C5096EC02F00009F8
:101B800005E02C2A2D6E90EC03F0F6D7030E2E6E96
:101B9000020E2F6E62EC03F02C6A2C503CEC02F02B
:101BA000000905E02C2A2D6E90EC03F0F6D70C0E00
:101BB0002C6EFA0E2E6EDCEC02F02C2EFAD715D518
:101BC00025D02350090803E157EF07F01FD00C0E72
:101BD0002D6E90EC03F0010E2E6E020E2F6E62EC55
:101BE00003F02C6A2C50A5EC02F0000905E02C2A29
:101BF0002D6E90EC03F0F6D70C0E2C6EFA0E2E6EB6
:101C0000DCEC02F02C2EFAD7F6EF06F01FD00C0E0B
:101C10002D6E90EC03F0010E2E6E020E2F6E62EC14
:101C200003F02C6A2C50CCEC02F0000905E02C2AC1
:101C30002D6E90EC03F0F6D70C0E2C6EFA0E2E6E75
:0E1C4000DCEC02F02C2EFAD7F6EF06F00300D3
:0200000400F00A
:04000000234534560A
:020000040030CA
:0E000000000C181E000381000FC00FE00F401F
:00000001FF
;PIC18F4550
;CRC=FB3E  CREATED="28-sept.-21 19:44"
