:10000000EBEF00F0EA6A120EE96EEF5007E0A50E82
:10001000006E002EFED70000EF2EF9D7000C939053
:100020008A80020E116E960E126EECDF112EFBD737
:1000300093928A82020E116E960E126EE3DF112EDB
:10004000FBD793948A84020E116E960E126EDADF3D
:10005000112EFBD793968A8693908A90020E116E8A
:10006000960E126ECFDF112EFBD793988A8893924B
:100070008A92020E116E960E126EC4DF112EFBD7FD
:10008000939A8A8A93948A94020E116E960E126E37
:10009000B9DF112EFBD7939C8A8C93968A96020E19
:1000A000116E960E126EAEDF112EFBD7939E8A8EC6
:1000B00093988A98020E116E960E126EA3DF112E7F
:1000C000FBD7939A8A9A020E116E960E126E9ADFE1
:1000D000112EFBD7939C8A9C020E116E960E126E07
:1000E00091DF112EFBD7939E8A9E020E116E960E03
:1000F000126E88DF112EFBD7939E8A8E020E116E30
:10010000960E126E7FDF112EFBD7939C8A8C020E07
:10011000116E960E126E76DF112EFBD7939A8A8A95
:10012000020E116E960E126E6DDF112EFBD7939894
:100130008A88939E8A9E020E116E960E126E62DF60
:10014000112EFBD793968A86939C8A9C020E116E81
:10015000960E126E57DF112EFBD793948A84939AD2
:100160008A9A020E116E960E126E4CDF112EFBD77C
:1001700093928A8293988A98020E116E960E126E4E
:1001800041DF112EFBD793908A8093968A96020EB8
:10019000116E960E126E36DF112EFBD793948A9451
:1001A000020E116E960E126E2DDF112EFBD793925A
:1001B0008A92020E116E960E126E24DF112EFBD75C
:1001C00093908A90020E116E960E126E1BDF112E06
:1001D000FBD70EEF01F0F86AD09EFE0E006E080EFF
:1001E000016E020EE96E000EEA6EEE6A0400002E49
:1001F000FCD7012EFAD7EA6AE96AC150C00B0F0991
:10020000C16E070EB46E056A066A280E926E000E65
:10021000936E926A896A936A8A6A01D7FF00030023
:020000040030CA
:0E000000000C1E1E000381000FC00FE00F4019
:00000001FF
;PIC18F4550
;CRC=1560  CREATED="31-ago.-21 18:15"
