:10000000CCEF0BF0F76A140FF66E000EF722090022
:10001000F5501200280C0106F76A280FF66E000E44
:10002000F7220900F550120031323341343536429F
:10003000373839432A302344F76A480FF66E000EEA
:10004000F7220900F5501200444154453A00F76A7E
:100050005E0FF66E000EF7220900F55012004420E4
:100060000000F76A720FF66E000EF7220900F550D5
:100070001200484F52413A00F76A880FF66E000EA0
:10008000F7220900F5501200232344444D4D41410D
:1000900048484D4D535349440000F76AAA0FF66E85
:1000A000000EF7220900F550120020202042494599
:1000B0004E56454E49444F5320200000F76ACC0F5E
:1000C000F66E000EF7220900F55012004152512E33
:1000D00020434F4D502E2054415244450000F76AB2
:1000E000EE0FF66E000EF7220900F55012004D4992
:1000F0004755454C204D454E44455A00F76A0C0F74
:10010000F66E010EF7220900F55012002044415608
:100110004944204D415254494E455A200000F76A47
:100120002E0FF66E010EF7220900F550120047520D
:1001300055504F00F76A440FF66E010EF722090082
:10014000F5501200204E554D45524F00F76A5C0F96
:10015000F66E010EF7220900F5501200504F5220A2
:100160004641564F5200F76A760FF66E010EF7229F
:100170000900F5501200494E475245534520434C63
:1001800041564500F76A940FF66E010EF7220900FA
:10019000F55012004249454E56454E49444F5320B2
:1001A000414C0000F76AB40FF66E010EF722090009
:1001B000F5501200204D454E5500F76ACA0FF66EF5
:1001C000010EF7220900F55012004D4152515545DC
:1001D0002031205041524120454C0000F76AEC0F7D
:1001E000F66E010EF7220900F55012004D454E55EE
:1001F00020444520444156494400F76A0A0FF66EF0
:10020000020EF7220900F55012004D41525155459A
:100210002032205041524120454C0000F76A2C0FFB
:10022000F66E020EF7220900F55012004D454E55AC
:10023000204445204D494755454C0000F76A4C0F76
:10024000F66E020EF7220900F55012004D41525190
:10025000554520332050415241200000F76A6C0F71
:10026000F66E020EF7220900F550120053414C4978
:100270005200F76A820FF66E020EF7220900F5505F
:1002800012004552524F52204445204E554D455282
:100290004F00F76AA20FF66E020EF7220900F55022
:1002A00012004D454E552055535541522E00F76AC8
:1002B000BE0FF66E020EF7220900F55012004D49EE
:1002C0004755454C0000F76AD60FF66E020EF7222E
:1002D0000900F55012004D4152515545204E554DE3
:1002E000205041524100F76AF60FF66E020EF722D7
:1002F0000900F5501200312043414D42494152203E
:10030000434C41564500F76A160FF66E030EF7226E
:100310000900F5501200322046454348412059203B
:10032000484F52410000F76A360FF66E030EF7226F
:100330000900F550120033205245504F5254455396
:100340000000F76A520FF66E030EF7220900F5500F
:10035000120034204D4F544F5220504153415041D0
:100360005300F76A720FF66E030EF7220900F5507C
:1003700012003520534552564F4D4F544F520000F6
:10038000F76A900FF66E030EF7220900F55012007F
:10039000362043414400F76AA60FF66E030EF7229B
:1003A0000900F5501200372044544D460000F76A0A
:1003B000BE0FF66E030EF7220900F550120038202A
:1003C00053454E534F5245530000F76ADA0FF66E0D
:1003D000030EF7220900F5501200392053414C4911
:1003E0005200F76AF20FF66E030EF7220900F5507D
:1003F00012004D454E2043414D4249415220434C4D
:1004000041560000F76A140FF66E040EF722090039
:10041000F5501200444947495445204E552E20437B
:100420004C4156450000F76A360FF66E040EF7226F
:100430000900F5501200504F52204641564F5220AD
:100440004449474954450000F76A580FF66E040EB8
:10045000F7220900F5501200444947495445204EFF
:1004600055452E434C4156450000F76A7A0FF66E0B
:10047000040EF7220900F5501200434C4156452066
:100480004D4F44494649434144410000F76A9C0F9F
:10049000F66E040EF7220900F5501200434F4E206D
:1004A000455849544F00F76AB60FF66E040EF7220E
:1004B0000900F55012004552524F52204445204346
:1004C0004C4156450000F76AD60FF66E040EF7222F
:1004D0000900F55012004D454E2046454348412045
:1004E0005920484F52410000F76AF80FF66E040E8B
:1004F000F7220900F55012004D454E552052455047
:100500004F5254455300F76A160FF66E050EF72248
:100510000900F5501200312047454E455241522EF8
:100520005245504F52540000F76A380FF66E050ED0
:10053000F7220900F550120032204D4F535452411A
:10054000522E5245504F52540000F76A5A0FF66E21
:10055000050EF7220900F55012005245504F525433
:100560004520475541524441444F0000F76A7C0FF3
:10057000F66E050EF7220900F55012004D454D4F5D
:10058000524941204C4C454E4100F76A9A0FF66E95
:10059000050EF7220900F55012004E554D45524FF9
:1005A0000000F76AB20FF66E050EF7220900F5504B
:1005B00012004552524F5200F76AC80FF66E050EF0
:1005C000F7220900F55012004D454E204D4F544F73
:1005D000522050415320412E0000F76AEA0FF66E78
:1005E000050EF7220900F5501200454E20434F4EEC
:1005F000535452554343494F4E00F76A0A0FF66E63
:10060000060EF7220900F55012004D454E205345C5
:1006100052564F4D4F544F520000F76A2A0FF66E54
:10062000060EF7220900F55012004D454E552043A5
:1006300041440000F76A440FF66E060EF7220900E7
:10064000F55012004D454E2044544D460000F76AC7
:100650005E0FF66E060EF7220900F55012004D45AA
:100660004E2053454E534F5245530000F76A7C0FBE
:10067000F66E060EF7220900F55012004441564965
:100680004400F76A920FF66E060EF7220900F55045
:10069000120034204D4F544F5220504153204120DE
:1006A00050410000F76AB40FF66E060EF7220900FB
:1006B000F55012005245504F52544500F76ACC0F86
:1006C000F66E060EF7220900F5501200434F4E5405
:1006D00052412E204552524F4E454100EA6A940E37
:1006E000E96EEF500DE0060E016E006A002EFED797
:1006F000012EFBD77B0E006E002EFED7EF2EF3D718
:10070000000C9C2D01D09B899D6B9D51040811E329
:10071000D8909B3302E28D9001D08D80969000009E
:1007200096928D9200D000D0000096928D829D2BE3
:10073000ECD796948D84030E006E002EFED796940F
:100740008D94000C0B6AA60E006E002EFED70000E2
:10075000985303E0010E0B6E01D00B6A00009694D3
:100760008D9499399A6F0F0E9A179AC09BF00BC00F
:100770009CF0C7DF99510F0B9A6F9B6F0BC09CF0D9
:10078000C0DF000C0B6A96948D94140E946FA6DF54
:100790008C6B8C5102080AE3030E9B6F0BC09CF01C
:1007A000B0DF050E946F9ADF8C2BF3D7020E9B6F90
:1007B0000BC09CF0A6DF8C6B8C51030811E3036A1D
:1007C0008C51F2CF8DF0F29E1DDC8DBFF28E8D6FBD
:1007D000986B996FB7DF050E946F80DF8C2BECD789
:1007E0006AEF0CF06CEF0CF0010E955DFC0F0FE260
:1007F000040F11EF04F0800E966F09D0C00E966FB3
:1008000006D0940E966F03D0D40E966F00D0010ED2
:10081000945D962796518009976F986B996F92DF38
:10082000000CE824F76AF7363D0FF66E080EF72243
:100830000A00F550FA6E0800F550F96EF607FC074D
:100840000208080893510C0A0BE0060A13E0020A9A
:1008500018E06B0A1BE0040A1EE00F0A21E025D015
:10086000986B010E996F6EDF010E0C6E080E946F7F
:1008700035DF21D00C2A010E946F0CC095F0B4DF47
:100880001AD0986B100E996F5DDF15D0986B0C0E17
:10089000996F58DF10D0986B0F0E996F53DF0BD004
:1008A000986B0F0E996F4EDF06D0010E986F93C0B4
:1008B00099F048DF00D0000C606B6051030818E32A
:1008C000036A6051660FE96E000E0320EA6EF2CFF4
:1008D0008EF0F29E60C0A9FFA69CA69EA680A8509E
:1008E0008EBFF28EEF6E010E946FF8DE602BE5D7AF
:1008F00029EF0DF0080E016E050E006E002EFED7DA
:1009000089909290060E006E002EFED79337899242
:10091000D8B09282D8A09292928080A0FED7012E69
:10092000EBD7050E006E002EFED789909290000046
:100930009282060E006E002EFED7060E006E002E6E
:10094000FED7928080A0FED7016A060E006E002EB0
:10095000FED780B201808990929089929292000C89
:10096000080E926F00C093F09282060E006E002E69
:10097000FED7928080A0FED780B2D88080A2D89087
:100980000136050E006E002EFED792908990922FB0
:10099000EBD79282060E006E002EFED789929351FD
:1009A000D8A492920000928080A0FED7050E006E1F
:1009B000002EFED789909290060E006E002EFED774
:1009C000899292921BEF05F09282050E006E002E26
:1009D000FED79280060E006E002EFED7899292926C
:1009E000050E006E002EFED789909290A00E936F98
:1009F00081DF8FC091F0926B8FC093F07BDF8EC050
:100A000093F078DF9282050E006E002EFED7928062
:100A1000060E006E002EFED780A0FED7899292921D
:100A2000050E006E002EFED789909290A10E936F56
:100A300061DF006A95D701C090F092920000928029
:100A400080A0FED7050E006E002EFED700D000005D
:100A50009282050E006E002EFED790C001F0000CB1
:100A6000606B6051030819E3036A60516A0F016EFD
:100A7000000E032201C08CF003C08DF08F6B60C0AC
:100A80008EF0A2DF8DC0EAFF8CC0E9FF01C0EFFF4E
:100A9000010E946F23DE602BE4D72BEF0DF08E0E4A
:100AA000006E8FC001F08EC002F0036A015209E1AE
:100AB00002C001F0026A080E005E015202E1006A03
:100AC00008D0D89001BE04D0023601360006F9D70E
:100AD000019E000C8FC096F09351961B96AF05D0E7
:100AE000D894D8908FBFD8802FD08FC096F092C066
:100AF00097F08E51975F06E096AF26D0D850010A46
:100B0000D86E22D093C097F08F51975F06E096AFD2
:100B10001BD0D850010AD86E17D094C097F09051CE
:100B2000975F06E096AF10D0D850010AD86E0CD06F
:100B300095C097F09151975F06E096AF05D0D850D9
:100B4000010AD86E01D0D890000CF19E8C6B0D2A52
:100B50008F6B0DC08EF0A3DFCD0E916FCC0E906F1A
:100B60004C0E8F6F7C0E8E6F03C095F002C094F018
:100B700001C093F000C092F0ADDF5BE31050FC0FBA
:100B800017E2040F20EF06F0F00E936E0E0E816E4A
:100B90000FD0F00E936E0D0E816E0AD0F00E936E94
:100BA0000B0E816E05D0F00E936E070E816E00D095
:100BB0000EA009D08150F00BF00804E10E900FC098
:100BC0008CF00F6A35D08150F00BF0082CE081508A
:100BD000100B02E18D6B11D08150200B03E1010E4F
:100BE0008D6F0BD08150400B03E1020E8D6F05D04D
:100BF0008150800B02E1030E8D6F8D51040DF35077
:100C00008F6B8E6F036A10508E25016E8F510322F9
:100C10000150F2CF8EF0F29E0CEC00F08EBFF28EFF
:100C20000F6E0E8005D0102A1050040801E1106AE2
:100C30000D6A0FC08CF0F00E936E8CC001F0000CAA
:100C4000E824F76AF7365B0FF66E0C0EF7220A00FF
:100C5000F550FA6E0800F550F96E880B920B9C0B5C
:100C6000A60B0C0E936FEEDD786B776B7A6B796B5E
:100C7000060E616F606B60510308D8A0AFD065DFCE
:100C800001C072F03C0E946F29DD7253D8B478D055
:100C9000010E6025FF0FFC0FD8B066D0040FEFEFF8
:100CA00006F0060E946F010E956F9EDD72C093F0F4
:100CB000C9DD300E725D626F623B060E946F020EEC
:100CC000956F92DD2A0E936FBDDD320E946F06DDB7
:100CD0004BD0070E946F010E956F86DD72C093F0B6
:100CE000B1DD300E725D636F63516227070E946F42
:100CF000020E956F79DD2A0E936FA4DD320E946F8C
:100D0000EDDC32D0080E946F010E956F6DDD72C070
:100D100093F098DD300E725D646F643B080E946F43
:100D2000020E956F61DD2A0E936F8CDD320E946F8B
:100D3000D5DC1AD0090E946F010E956F55DD72C087
:100D400093F080DD300E725D656F65516425636FD1
:100D5000090E946F020E956F47DD2A0E936F72DDB8
:100D6000320E946FBBDC00D0602B020E8C6FFA0E3B
:100D7000946FB4DC8C2FFBD77A6B796B786B776BC5
:100D8000792BD8B47A2B7A5303E17951140805E210
:100D9000772BD8B4782B7A6B796B6051030806E314
:100DA000785304E177510508D8B069D7036A6051D8
:100DB000620FE96E000E0320EA6E230EEF6E61C033
:100DC00094F0010E956F10DD2A0E936F3BDD612BC1
:100DD0007A6B796B786B776B602B4DD7000CE824BE
:100DE000F76AF736F90FF66E0D0EF7220A00F55086
:100DF000FA6E0800F550F96EA20CD20C040D340DF9
:100E00000C0E936F1FDD786B776B7A6B796B0E929C
:100E10009CDE01C072F03C0E946F60DC72530CE0FB
:100E2000080E946F010E956FDFDC72C093F00ADD3F
:100E3000300E725F0E820DD0792BD8B47A2B7A5394
:100E400003E17951140805E2772BD8B4782B7A6B3B
:100E5000796B785305E17751050802E30EA2D8D7E4
:100E6000000C9282050E006E002EFED79280060EB8
:100E7000006E002EFED789929292050E006E002E13
:100E8000FED789909290A00E936F34DD8EC091F0C2
:100E9000926B8EC093F02EDD8DC093F02BDD8FC052
:100EA00093F028DD92920000928080A0FED7050E7C
:100EB000006E002EFED700D000009282050E006E5C
:100EC000002EFED79282050E006E002EFED7928075
:100ED000060E006E002EFED789929292050E006ECD
:100EE000002EFED789909290A00E936F03DD0150E3
:100EF000909101B0908190A11CD09282050E006E5D
:100F0000002EFED79280060E006E002EFED780A027
:100F1000FED789929292050E006E002EFED7899020
:100F20009290A00E936FE6DC0150909101B09081F9
:100F3000E2D792920000928080A0FED7050E006E4C
:100F4000002EFED700D000009282050E006E002E0B
:100F5000FED7000C606B6051010816E3036A605114
:100F6000620FE96E000E0320EA6EEFCF8CF08E6BFD
:100F70006EC08DF08CC08FF074DF050E946F6EEC38
:100F800003F06E2B602BE7D7000C080E016E050EE8
:100F9000006E002EFED789949294060E006E002EED
:100FA000FED790378996D8B09286D8A09296928430
:100FB00080A4FED7012EEBD7050E006E002EFED7C3
:100FC0008994929400009286060E006E002EFED741
:100FD000060E006E002EFED7928480A4FED7016A12
:100FE000060E006E002EFED780B601808994929482
:100FF00089969296000C080E916F00C092F092862E
:10100000060E006E002EFED7928480A4FED780B616
:10101000D88080A6D8900136050E006E002EFED72F
:1010200092948994912FEBD79286060E006E002E33
:10103000FED789969251D8A492960000928480A4FB
:10104000FED7050E006E002EFED789949294060EF0
:10105000006E002EFED789969296000C91C092F0F9
:10106000D8909233780E92179231006E00323F0E74
:10107000001600509225936F91510F0B9325016E2E
:10108000000C9451016A935D03E293C000F00CD010
:10109000006A080E956F933700369451005CD8B003
:1010A000006E0136952FF7D7000C200E8EA9300E5A
:1010B0008F6F8DC000F08DAF07D0001E002A00C0DA
:1010C0008DF02D0E8F6F8E8F01508DC093F0640EBA
:1010D000946FD7DF00C08DF0300E0124906F8DC06B
:1010E00093F00A0E946FCDDF300E0024926F300E15
:1010F0000124916F8FC000F08EA702D08EAF8E9525
:101100008EB90BD08EAF22D08EB520D000C090F01B
:101110008EB31CD000C091F019D0300E905D16E156
:1011200000C090F0200E8F6F8EA704D08E958E8316
:101130008EAF8E93300E915D09E100C091F0200ECC
:10114000906F8EA7F7D78E938EAF8E918EA504D019
:101150008FC093F022EC04F08EA304D090C093F0E3
:1011600022EC04F08EA104D091C093F022EC04F0A4
:1011700092C093F022EC04F0000CF29CF29EF2BEBE
:10118000FDD79286050E006E002EFED79284060EC5
:10119000006E002EFED789969296050E006E002EE8
:1011A000FED789949294D00E906FEFDE030E906F6D
:1011B000ECDE9286050E006E002EFED79284060E9F
:1011C000006E002EFED780A4FED789969296050E5B
:1011D000006E002EFED789949294D10E906FD5DECA
:1011E000010E006E08DF01507F0B8C6F916F36DFB0
:1011F00001C089F0010E006EFEDE01503F0B8C6FC6
:10120000916F2CDF01C086F0010E006EF4DE0150FC
:101210001F0B8C6F916F22DF01C087F0006AEBDE3D
:1012200001C08CF001C091F019DF01C088F09296E6
:101230000000928480A4FED7050E006E002EFED71B
:1012400000D000009286050E006E002EFED7C00E64
:10125000F2120C0E936F22EC04F0010E946F956F56
:10126000F4EC03F08C6B8C511CEC00F08C2B006EBA
:10127000936F22EC04F0050E8C5DF5E1030E606FB8
:101280006051050818E3036A6051830FE96E000E90
:101290000320EA6EEFCF8CF08CC08DF0110E8E6FB4
:1012A00004DF2F0E936F22EC04F0C80E946F6EECE7
:1012B00003F0602BE5D7100E946F010E956FF4ECE0
:1012C00003F08C6B8C5127EC00F0000905E08C2BAF
:1012D000936F22EC04F0F6D7606B60510908D8A038
:1012E000A8D0F29CF29EF2BEFDD79286050E006E4B
:1012F000002EFED79284060E006E002EFED7899631
:101300009296050E006E002EFED789949294D00E10
:10131000906F3BDE906B39DE9286050E006E002EDC
:10132000FED79284060E006E002EFED780A4FED754
:1013300089969296050E006E002EFED7899492949F
:10134000D10E906F22DE010E006E55DE01507F0B34
:101350008C6F916F83DE01C085F0010E006E4BDE55
:1013600001507F0B8C6F916F79DE01C084F0006AB1
:1013700042DE01503F0B8C6F916F70DE01C083F035
:1013800092960000928480A4FED7050E006E002E77
:10139000FED700D000009286050E006E002EFED70C
:1013A000C00EF212010E946F020E956FF4EC03F072
:1013B0008C6B8C5131EC00F08C2B006E936F22EC17
:1013C00004F0050E8C5DF5E1606B6051020818E3D6
:1013D000036A6051830FE96E000E0320EA6EEFCFBF
:1013E0008CF08CC08DF0110E8E6F5FDE3A0E936F15
:1013F00022EC04F0C80E946F6EEC03F0602BE5D77E
:10140000100E946F020E956FF4EC03F089C08DF00E
:10141000180E8E6F4ADE3A0E936F22EC04F0050E22
:101420008C6FC70E946F6EEC03F08C2FFAD7602B85
:1014300054D7000C0E94080E6E6F8B6B8F6B6EC0C2
:101440008EF0E4EC04F08F6B01C08EF04FEC05F0F1
:1014500003C076F002C075F001C074F000C073F0F4
:10146000030E946F6EEC03F076C091F075C090F0AF
:1014700074C08FF073C08EF0956B946B7F0E936F7A
:10148000860E926F6AEC05F002E10E8402D0080E1F
:101490006E27010E8B276E51F00802E30EA4CED703
:1014A000000CF29CF29EF2BEFDD79286050E006EF5
:1014B000002EFED79284060E006E002EFED789966F
:1014C0009296050E006E002EFED789949294D00E4F
:1014D000906F5BDD030E906F58DD9286050E006EF7
:1014E000002EFED79284060E006E002EFED780A43A
:1014F000FED789969296050E006E002EFED789942F
:101500009294D10E906F41DD010E006E74DD01509A
:101510007F0B8C6F916FA2DD01C081F0010E006E18
:101520006ADD01503F0B8C6F916F98DD01C07EF03A
:10153000010E006E60DD01501F0B8C6F916F8EDD10
:1015400001C07FF0006A57DD01C08CF001C091F04E
:1015500085DD01C080F092960000928480A4FED7C1
:10156000050E006E002EFED700D000009286050EFC
:10157000006E002EFED7C00EF212F29CF29EF2BE5A
:10158000FDD79286050E006E002EFED79284060EC1
:10159000006E002EFED789969296050E006E002EE4
:1015A000FED789949294D00E906FEFDC906BEDDCB7
:1015B0009286050E006E002EFED79284060E006EF7
:1015C000002EFED780A4FED789969296050E006E57
:1015D000002EFED789949294D10E906FD6DC010E26
:1015E000006E09DD01507F0B8C6F916F37DD01C0FC
:1015F00082F0010E006EFFDC01507F0B8C6F916F4B
:101600002DDD01C07DF0006AF6DC01503F0B8C6FD0
:10161000916F24DD01C07CF092960000928480A43A
:10162000FED7050E006E002EFED700D00000928679
:10163000050E006E002EFED7C00EF2128BC083F096
:101640007EC084F07FC085F080C086F07CC087F0CB
:101650007DC088F082C089F07BC08AF0000C080E43
:101660006E6F716B606B605107081CE3036A605119
:10167000830F016E000E032201C08CF003C08DF0B9
:101680008F6B6EC08EF0E4EC04F08DC0EAFF8CC06E
:10169000E9FF01C0EFFF030E946F6EEC03F06E2BB9
:1016A000602BE1D70C0E936F22EC04F0010E946FC7
:1016B000956FF4EC03F08C6B8C513CEC00F08C2BB0
:1016C000006E936F22EC04F0100E8C5DF5E1010EBC
:1016D000946F020E956FF4EC03F083C08DF0110E41
:1016E0008E6FE3DC030E946F020E956FF4EC03F043
:1016F00084C08DF0110E8E6FD8DC050E946F020E33
:10170000956FF4EC03F085C08DF0110E8E6FCDDC7B
:10171000070E946F020E956FF4EC03F086C08DF007
:10172000110E8E6FC2DC090E946F020E956FF4ECF1
:1017300003F087C08DF0110E8E6FB7DC0B0E946F27
:10174000020E956FF4EC03F088C08DF0110E8E6FD1
:10175000ACDC0D0E946F020E956FF4EC03F089C0B3
:101760008DF0110E8E6FA1DC0F0E946F020E956F2F
:10177000F4EC03F08AC08DF0110E8E6F96DC0C0E27
:101780008C6FFA0E946F6EEC03F08C2FFAD77151B8
:101790003208D8B067D7000CF86AD09EFE0E006EF3
:1017A000080E016E020EE96E000EEA6EEE6A002E61
:1017B000FDD7012EFBD7EA6AE96AC150C00B0F09B9
:1017C000C16E070EB46E056A066A0D6A0E900F6A46
:1017D000106A4C0E116E750E126E6E0E136E650E43
:1017E000146E730E156E166A176A186A196A1A6AE9
:1017F0001B6A4D0E1C6E610E1D6E720E1E6E740EF7
:101800001F6E650E206E730E216E226A236A246A93
:10181000256A266A4D0E276E690E286EE90E296E1E
:10182000720E2A6E630E2B6E6F0E2C6E6C0E2D6E6A
:10183000650E2E6E730E2F6E306A316A4A0E326E4E
:10184000750E336E650E346E760E356E650E366E21
:10185000730E376E386A396A3A6A3B6A3C6A560ECA
:101860003D6E690E3E6E650E3F6E720E406E6E0EE0
:10187000416E650E426E730E436E446A456A466A57
:10188000476A530E486EE10E496E620E4A6E610E53
:101890004B6E640E4C6E6F0E4D6E4E6A4F6A506A00
:1018A000516A526A440E536E6F0E546E6D0E556E31
:1018B000690E566E6E0E576E670E586E6F0E596E2D
:1018C0005A6A5B6A5E6A280E926E000E936E956E7F
:1018D000C2EF03F0F2EF03F0926A896A936A8A6AB0
:1018E000956A8C6A0C0E936F22EC04F0010E946FD3
:1018F000956FF4EC03F08C6B8C514DEC00F000090B
:1019000005E08C2B936F22EC04F0F6D7010E946F58
:10191000020E956FF4EC03F08C6B8C515EEC00F0D2
:10192000000905E08C2B936F22EC04F0F6D70C0E27
:101930008C6FFA0E946F6EEC03F08C2FFAD70C0EAE
:10194000936F22EC04F0010E946F956FF4EC03F0AA
:101950008C6B8C516FEC00F0000905E08C2B936FC1
:1019600022EC04F0F6D7010E946F020E956FF4ECA2
:1019700003F08C6B8C517EEC00F0000905E08C2BA1
:10198000936F22EC04F0F6D70C0E8C6FFA0E946F66
:101990006EEC03F08C2FFAD70C0E936F22EC04F050
:1019A000030E946F010E956FF4EC03F08C6B8C5169
:1019B0008FEC00F0000905E08C2B936F22EC04F013
:1019C000F6D7020E946F956FF4EC03F08C6B8C518C
:1019D0009AEC00F0000905E08C2B936F22EC04F0E8
:1019E000F6D70C0E8C6FFA0E946F6EEC03F08C2F02
:1019F000FAD70C0E936F22EC04F0020E946F010ED6
:101A0000956FF4EC03F08C6B8C51A6EC00F00009A0
:101A100005E08C2B936F22EC04F0F6D7010E946F47
:101A2000020E956FF4EC03F08C6B8C51B3EC00F06C
:101A3000000905E08C2B936F22EC04F0F6D70C0E16
:101A40008C6FFA0E946F6EEC03F08C2FFAD75CEF6C
:101A500004F030EF05F031EC06F06251120802E0BC
:101A6000000E01D0010E8C6F6351340802E0000EAD
:101A700001D0010E8C15D8B4E2D00C0E936F22EC7D
:101A800004F0010E946F956FF4EC03F08C6B8C51A5
:101A9000C2EC00F0000905E08C2B936F22EC04F0FF
:101AA000F6D7040E946F020E956FF4EC03F08C6B76
:101AB0008C51D2EC00F0000905E08C2B936F22ECE6
:101AC00004F0F6D70C0E8C6FFA0E946F6EEC03F0E8
:101AD0008C2FFAD70C0E936F22EC04F0010E946F4A
:101AE000956FF4EC03F08C6B8C51DDEC00F0000989
:101AF00005E08C2B936F22EC04F0F6D7010E946F67
:101B0000020E956FF4EC03F08C6B8C51EEEC00F050
:101B1000000905E08C2B936F22EC04F0F6D70C0E35
:101B20008C6FFA0E946F6EEC03F08C2FFAD70C0EBC
:101B3000936F22EC04F0010E946F956FF4EC03F0B8
:101B40008C6B8C51FDEC00F0000905E08C2B936F41
:101B500022EC04F0F6D7010E946F020E956FF4ECB0
:101B600003F08C6B8C510EEC01F0000905E08C2B1E
:101B7000936F22EC04F0F6D70C0E8C6FFA0E946F74
:101B80006EEC03F08C2FFAD70C0E936F22EC04F05E
:101B9000010E946F956FF4EC03F08C6B8C511EEC7E
:101BA00001F0000905E08C2B936F22EC04F0F6D7CE
:101BB000010E946F020E956FF4EC03F08C6B8C5158
:101BC0002EEC01F0000905E08C2B936F22EC04F061
:101BD000F6D70C0E8C6FFA0E946F6EEC03F08C2F10
:101BE000FAD700EC07F0722D02D053EF12F07251C9
:101BF000020801E135D07251030801E1FF000C0E2B
:101C0000936F22EC04F0010E946F020E956FF4ECCA
:101C100003F08C6B8C5139EC01F0000905E08C2B42
:101C2000936F22EC04F0F6D70C0E8C6FFA0E946FC3
:101C30006EEC03F08C2FFAD720D784EF16F06A51A0
:101C4000625D02E0000E01D0010E8C6F6B51635D8E
:101C500002E0000E01D0010E8C15D8B442EF12F054
:101C60006E6B0C0E936F22EC04F0010E946F956F67
:101C7000F4EC03F08C6B8C5149EC01F0000905E0A9
:101C80008C2B936F22EC04F0F6D7010E946F020EAA
:101C9000956FF4EC03F08C6B8C5157EC01F000095C
:101CA00005E08C2B936F22EC04F0F6D70C0E8C6FB2
:101CB000FA0E946F6EEC03F08C2FFAD70C0E936F24
:101CC00022EC04F0010E946F956FF4EC03F08C6B32
:101CD0008C5163EC01F0000905E08C2B936F22EC32
:101CE00004F0F6D7010E946F020E956FF4EC03F03A
:101CF0008C6B8C5173EC01F0000905E08C2B936F19
:101D000022EC04F0F6D70C0E8C6FFA0E946F6EEC8A
:101D100003F08C2FFAD70C0E936F22EC04F0010E17
:101D2000946F956FF4EC03F08C6B8C5183EC01F0A5
:101D3000000905E08C2B936F22EC04F0F6D7010E1E
:101D4000946F020E956FF4EC03F08C6B8C5193EC56
:101D500001F0000905E08C2B936F22EC04F0F6D71C
:101D60000C0E8C6FFA0E946F6EEC03F08C2FFAD77A
:101D70000C0E936F22EC04F0010E946F956FF4EC4F
:101D800003F08C6B8C51A1EC01F0000905E08C2B69
:101D9000936F22EC04F0F6D7010E946F020E956F4C
:101DA000F4EC03F08C6B8C51B1EC01F0000905E010
:101DB0008C2B936F22EC04F0F6D70C0E8C6FFA0E7E
:101DC000946F6EEC03F08C2FFAD70C0E936F22EC0D
:101DD00004F0010E946F956FF4EC03F08C6B8C5152
:101DE000C0EC01F0000905E08C2B936F22EC04F0AD
:101DF000F6D7010E946F020E956FF4EC03F08C6B26
:101E00008C51CBEC01F0000905E08C2B936F22EC98
:101E100004F0F6D70C0E8C6FFA0E946F6EEC03F094
:101E20008C2FFAD70C0E936F22EC04F0010E946FF6
:101E3000956FF4EC03F08C6B8C51D7EC01F000093A
:101E400005E08C2B936F22EC04F0F6D7030E946F11
:101E5000020E956FF4EC03F08C6B8C51E5EC01F005
:101E6000000905E08C2B936F22EC04F0F6D70C0EE2
:101E70008C6FFA0E946F6EEC03F08C2FFAD700EC97
:101E800007F0722DC0D00C0E936F22EC04F0010EFF
:101E9000946F956FF4EC03F08C6B8C51F1EC01F0C6
:101EA000000905E08C2B936F22EC04F0F6D7030EAB
:101EB000946F020E956FF4EC03F08C6B8C5102EC76
:101EC00002F0000905E08C2B936F22EC04F0F6D7AA
:101ED0000C0E8C6FFA0E946F6EEC03F08C2FFAD709
:101EE00031EC06F062C06FF063C070F00C0E936FBF
:101EF00022EC04F0010E946F956FF4EC03F08C6B00
:101F00008C5113EC02F0000905E08C2B936F22EC4E
:101F100004F0F6D7010E946F020E956FF4EC03F007
:101F20008C6B8C5124EC02F0000905E08C2B936F34
:101F300022EC04F0F6D70C0E8C6FFA0E946F6EEC58
:101F400003F08C2FFAD731EC06F06F51625D02E09E
:101F5000000E01D0010E8C6F7051635D02E0000E27
:101F600001D0010E8C1531E0AAEC07F00C0E936F36
:101F700022EC04F0010E946F956FF4EC03F08C6B7F
:101F80008C5135EC02F0000905E08C2B936F22ECAC
:101F900004F0F6D7030E946F020E956FF4EC03F085
:101FA0008C6B8C5146EC02F0000905E08C2B936F92
:101FB00022EC04F0F6D70C0E8C6FFA0E946F6EECD8
:101FC00003F08C2FFAD74CD61DD00C0E936F22EC59
:101FD00004F0010E946F956FF4EC03F08C6B8C5150
:101FE00053EC02F0000905E08C2B936F22EC04F017
:101FF000F6D70C0E8C6FFA0E946F6EEC03F08C2FEC
:10200000FAD72ED63DD27251020828E10C0E936FFA
:1020100022EC04F0010E946F956FF4EC03F08C6BDE
:102020008C5163EC02F0000905E08C2B936F22ECDD
:1020300004F0F6D70C0E8C6FFA0E946F6EEC03F072
:102040008C2FFAD7BDEC08F0280E8C6FFA0E946F27
:102050006EEC03F08C2FFAD703D612D2725103081C
:10206000D8A4EFD0130E7B6F0C0E936F22EC04F00C
:10207000010E946F956FF4EC03F08C6B8C5174EC43
:1020800002F0000905E08C2B936F22EC04F0F6D7E8
:102090000C0E8C6FFA0E946F6EEC03F08C2FFAD747
:1020A0000C0E936F22EC04F0010E946F956FF4EC1C
:1020B00003F08C6B8C5183EC02F0000905E08C2B53
:1020C000936F22EC04F0F6D7010E946F020E956F19
:1020D000F4EC03F08C6B8C5194EC02F0000905E0F9
:1020E0008C2B936F22EC04F0F6D70C0E8C6FFA0E4B
:1020F000946F6EEC03F08C2FFAD700EC07F0722D82
:102100006ED01AEC0AF00EA44CD051EC0AF0606BC1
:102110006051070817E3036A6051830FE96E000EF0
:102120000320EA6EEFCF8CF08E6B6EC08DF08CC00A
:102130008FF031EC07F06E2B050E946F6EEC03F010
:10214000602BE6D70C0E936F22EC04F0010E946F17
:10215000956FF4EC03F08C6B8C51A5EC02F0000948
:1021600005E08C2B936F22EC04F0F6D7010E946FF0
:10217000020E956FF4EC03F08C6B8C5146EC02F080
:10218000000905E08C2B936F22EC04F0F6D70C0EBF
:102190008C6FFA0E946F6EEC03F08C2FFAD760D52B
:1021A0001DD00C0E936F22EC04F0010E946F956F0E
:1021B000F4EC03F08C6B8C51B6EC02F0000905E0F6
:1021C0008C2B936F22EC04F0F6D70C0E8C6FFA0E6A
:1021D000946F6EEC03F08C2FFAD742D531D0725148
:1021E000020804E12FEC0BF03BD52AD0010E946FCE
:1021F000956FF4EC03F08C6B8C51C5EC02F0000988
:1022000005E08C2B936F22EC04F0F6D7010E946F4F
:10221000020E956FF4EC03F08C6B8C51D1EC02F054
:10222000000905E08C2B936F22EC04F0F6D70C0E1E
:102230008C6FFA0E946F6EEC03F08C2FFAD710D5DA
:102240001FD1725104082FE10C0E936F22EC04F0A1
:10225000010E946F956FF4EC03F08C6B8C51DCECF9
:1022600002F0000905E08C2B936F22EC04F0F6D706
:10227000030E946F020E956FF4EC03F08C6B8C518F
:10228000EDEC02F0000905E08C2B936F22EC04F0DA
:10229000F6D70C0E8C6FFA0E946F6EEC03F08C2F49
:1022A000FAD7DED4EDD0725105082FE10C0E936FF2
:1022B00022EC04F0010E946F956FF4EC03F08C6B3C
:1022C0008C51FDEC02F0000905E08C2B936F22ECA1
:1022D00004F0F6D7030E946F020E956FF4EC03F042
:1022E0008C6B8C51EDEC02F0000905E08C2B936FA8
:1022F00022EC04F0F6D70C0E8C6FFA0E946F6EEC95
:1023000003F08C2FFAD7ACD4BBD0725106082FE162
:102310000C0E936F22EC04F0010E946F956FF4ECA9
:1023200003F08C6B8C510DEC03F0000905E08C2B55
:10233000936F22EC04F0F6D7030E946F020E956FA4
:10234000F4EC03F08C6B8C51EDEC02F0000905E02D
:102350008C2B936F22EC04F0F6D70C0E8C6FFA0ED8
:10236000946F6EEC03F08C2FFAD77AD489D0725127
:1023700007082FE10C0E936F22EC04F0010E946F0E
:10238000956FF4EC03F08C6B8C511AEC03F00009A0
:1023900005E08C2B936F22EC04F0F6D7030E946FBC
:1023A000020E956FF4EC03F08C6B8C51EDEC02F0A7
:1023B000000905E08C2B936F22EC04F0F6D70C0E8D
:1023C0008C6FFA0E946F6EEC03F08C2FFAD748D412
:1023D00057D0725108082FE10C0E936F22EC04F0D5
:1023E000010E946F956FF4EC03F08C6B8C5127EC1D
:1023F00003F0000905E08C2B936F22EC04F0F6D774
:10240000030E946F020E956FF4EC03F08C6B8C51FD
:10241000EDEC02F0000905E08C2B936F22EC04F048
:10242000F6D70C0E8C6FFA0E946F6EEC03F08C2FB7
:10243000FAD716D425D07251090803E13DEF0DF00B
:102440001FD00C0E936F22EC04F0010E946F020E5D
:10245000956FF4EC03F08C6B8C5139EC01F00009B2
:1024600005E08C2B936F22EC04F0F6D70C0E8C6FEA
:10247000FA0E946F6EEC03F08C2FFAD772EF0CF01B
:1024800084EF16F06C51625D02E0000E01D0010E87
:102490008C6F6D51635D02E0000E01D0010E8C1552
:1024A000D8B465EF16F0020E6E6F0C0E936F22EC2F
:1024B00004F0010E946F956FF4EC03F08C6B8C516B
:1024C00049EC01F0000905E08C2B936F22EC04F03D
:1024D000F6D7040E946F020E956FF4EC03F08C6B3C
:1024E0008C5136EC03F0000905E08C2B936F22EC45
:1024F00004F0F6D70C0E8C6FFA0E946F6EEC03F0AE
:102500008C2FFAD70C0E936F22EC04F0010E946F0F
:10251000956FF4EC03F08C6B8C5163EC01F00009C7
:1025200005E08C2B936F22EC04F0F6D7010E946F2C
:10253000020E956FF4EC03F08C6B8C5173EC01F090
:10254000000905E08C2B936F22EC04F0F6D70C0EFB
:102550008C6FFA0E946F6EEC03F08C2FFAD70C0E82
:10256000936F22EC04F0010E946F956FF4EC03F07E
:102570008C6B8C5183EC01F0000905E08C2B936F80
:1025800022EC04F0F6D7010E946F020E956FF4EC76
:1025900003F08C6B8C5193EC01F0000905E08C2B5F
:1025A000936F22EC04F0F6D70C0E8C6FFA0E946F3A
:1025B0006EEC03F08C2FFAD70C0E936F22EC04F024
:1025C000010E946F956FF4EC03F08C6B8C5141EC21
:1025D00003F0000905E08C2B936F22EC04F0F6D792
:1025E000010E946F020E956FF4EC03F08C6B8C511E
:1025F000B1EC01F0000905E08C2B936F22EC04F0A4
:10260000F6D70C0E8C6FFA0E946F6EEC03F08C2FD5
:10261000FAD70C0E936F22EC04F0010E946F956FB5
:10262000F4EC03F08C6B8C51C0EC01F0000905E078
:102630008C2B936F22EC04F0F6D7010E946F020EF0
:10264000956FF4EC03F08C6B8C51CBEC01F000092E
:1026500005E08C2B936F22EC04F0F6D70C0E8C6FF8
:10266000FA0E946F6EEC03F08C2FFAD70C0E936F6A
:1026700022EC04F0010E946F956FF4EC03F08C6B78
:102680008C51D7EC01F0000905E08C2B936F22EC04
:1026900004F0F6D7030E946F020E956FF4EC03F07E
:1026A0008C6B8C51E5EC01F0000905E08C2B936FED
:1026B00022EC04F0F6D70C0E8C6FFA0E946F6EECD1
:1026C00003F08C2FFAD700EC07F0722DC0D00C0E5F
:1026D000936F22EC04F0010E946F956FF4EC03F00D
:1026E0008C6B8C51F1EC01F0000905E08C2B936FA1
:1026F00022EC04F0F6D7030E946F020E956FF4EC03
:1027000003F08C6B8C5102EC02F0000905E08C2B7D
:10271000936F22EC04F0F6D70C0E8C6FFA0E946FC8
:102720006EEC03F08C2FFAD731EC06F062C06FF03C
:1027300063C070F00C0E936F22EC04F0010E946FE6
:10274000956FF4EC03F08C6B8C5113EC02F00009E4
:1027500005E08C2B936F22EC04F0F6D7010E946FFA
:10276000020E956FF4EC03F08C6B8C5124EC02F0AC
:10277000000905E08C2B936F22EC04F0F6D70C0EC9
:102780008C6FFA0E946F6EEC03F08C2FFAD731EC4D
:1027900006F06F51625D02E0000E01D0010E8C6FF9
:1027A0007051635D02E0000E01D0010E8C1531E026
:1027B000AAEC07F00C0E936F22EC04F0010E946F5C
:1027C000956FF4EC03F08C6B8C5135EC02F0000942
:1027D00005E08C2B936F22EC04F0F6D7030E946F78
:1027E000020E956FF4EC03F08C6B8C5146EC02F00A
:1027F000000905E08C2B936F22EC04F0F6D70C0E49
:102800008C6FFA0E946F6EEC03F08C2FFAD74BD6C8
:102810001DD00C0E936F22EC04F0010E946F956F97
:10282000F4EC03F08C6B8C5153EC02F0000905E0E2
:102830008C2B936F22EC04F0F6D70C0E8C6FFA0EF3
:10284000946F6EEC03F08C2FFAD72DD63DD27251D7
:10285000020828E10C0E936F22EC04F0010E946F35
:10286000956FF4EC03F08C6B8C5163EC02F0000973
:1028700005E08C2B936F22EC04F0F6D70C0E8C6FD6
:10288000FA0E946F6EEC03F08C2FFAD7BDEC08F0C3
:102890000C0E8C6FFA0E946F6EEC03F08C2FFAD73F
:1028A00002D612D272510308D8A4EFD0100E7B6F5B
:1028B0000C0E936F22EC04F0010E946F956FF4EC04
:1028C00003F08C6B8C5152EC03F0000905E08C2B6B
:1028D000936F22EC04F0F6D70C0E8C6FFA0E946F07
:1028E0006EEC03F08C2FFAD70C0E936F22EC04F0F1
:1028F000010E946F956FF4EC03F08C6B8C5183ECAC
:1029000002F0000905E08C2B936F22EC04F0F6D75F
:10291000010E946F020E956FF4EC03F08C6B8C51EA
:1029200094EC02F0000905E08C2B936F22EC04F08C
:10293000F6D70C0E8C6FFA0E946F6EEC03F08C2FA2
:10294000FAD700EC07F0722D6ED01AEC0AF00EA444
:102950004CD051EC0AF0606B6051070817E3036A32
:102960006051830FE96E000E0320EA6EEFCF8CF00A
:102970008E6B6EC08DF08CC08FF031EC07F06E2B3B
:10298000050E946F6EEC03F0602BE6D70C0E936F80
:1029900022EC04F0010E946F956FF4EC03F08C6B55
:1029A0008C51A5EC02F0000905E08C2B936F22EC12
:1029B00004F0F6D7010E946F020E956FF4EC03F05D
:1029C0008C6B8C5146EC02F0000905E08C2B936F68
:1029D00022EC04F0F6D70C0E8C6FFA0E946F6EECAE
:1029E00003F08C2FFAD75FD51DD00C0E936F22EC1D
:1029F00004F0010E946F956FF4EC03F08C6B8C5126
:102A0000B6EC02F0000905E08C2B936F22EC04F089
:102A1000F6D70C0E8C6FFA0E946F6EEC03F08C2FC1
:102A2000FAD741D531D07251020804E12FEC0BF0F6
:102A30003AD52AD0010E946F956FF4EC03F08C6BAD
:102A40008C51C5EC02F0000905E08C2B936F22EC51
:102A500004F0F6D7010E946F020E956FF4EC03F0BC
:102A60008C6B8C51D1EC02F0000905E08C2B936F3C
:102A700022EC04F0F6D70C0E8C6FFA0E946F6EEC0D
:102A800003F08C2FFAD70FD51FD1725104082FE114
:102A90000C0E936F22EC04F0010E946F956FF4EC22
:102AA00003F08C6B8C51DCEC02F0000905E08C2B00
:102AB000936F22EC04F0F6D7030E946F020E956F1D
:102AC000F4EC03F08C6B8C51EDEC02F0000905E0A6
:102AD0008C2B936F22EC04F0F6D70C0E8C6FFA0E51
:102AE000946F6EEC03F08C2FFAD7DDD4EDD07251D9
:102AF00005082FE10C0E936F22EC04F0010E946F89
:102B0000956FF4EC03F08C6B8C51FDEC02F0000936
:102B100005E08C2B936F22EC04F0F6D7030E946F34
:102B2000020E956FF4EC03F08C6B8C51EDEC02F01F
:102B3000000905E08C2B936F22EC04F0F6D70C0E05
:102B40008C6FFA0E946F6EEC03F08C2FFAD7ABD427
:102B5000BBD0725106082FE10C0E936F22EC04F0EB
:102B6000010E946F956FF4EC03F08C6B8C510DECAF
:102B700003F0000905E08C2B936F22EC04F0F6D7EC
:102B8000030E946F020E956FF4EC03F08C6B8C5176
:102B9000EDEC02F0000905E08C2B936F22EC04F0C1
:102BA000F6D70C0E8C6FFA0E946F6EEC03F08C2F30
:102BB000FAD779D489D0725107082FE10C0E936FA0
:102BC00022EC04F0010E946F956FF4EC03F08C6B23
:102BD0008C511AEC03F0000905E08C2B936F22EC6A
:102BE00004F0F6D7030E946F020E956FF4EC03F029
:102BF0008C6B8C51EDEC02F0000905E08C2B936F8F
:102C000022EC04F0F6D70C0E8C6FFA0E946F6EEC7B
:102C100003F08C2FFAD747D457D0725108082FE110
:102C20000C0E936F22EC04F0010E946F956FF4EC90
:102C300003F08C6B8C5127EC03F0000905E08C2B22
:102C4000936F22EC04F0F6D7030E946F020E956F8B
:102C5000F4EC03F08C6B8C51EDEC02F0000905E014
:102C60008C2B936F22EC04F0F6D70C0E8C6FFA0EBF
:102C7000946F6EEC03F08C2FFAD715D425D07251D7
:102C8000090803E13DEF0DF01FD00C0E936F22EC0D
:102C900004F0010E946F020E956FF4EC03F08C6B50
:102CA0008C5139EC01F0000905E08C2B936F22EC7C
:102CB00004F0F6D70C0E8C6FFA0E946F6EEC03F0E6
:102CC0008C2FFAD772EF0CF01FD00C0E936F22EC02
:102CD00004F0010E946F020E956FF4EC03F08C6B10
:102CE0008C515EEC03F0000905E08C2B936F22EC15
:102CF00004F0F6D70C0E8C6FFA0E946F6EEC03F0A6
:0A2D00008C2FFAD772EF0CF00300DD
:0200000400F00A
:04000000234534560A
:020000040030CA
:0E000000000C181E000381000FC00FE00F401F
:00000001FF
;PIC18F4550
;CRC=873A  CREATED="12-oct.-21 18:57"
