:1000000076EF0CF0F76A140FF66E000EF722090077
:10001000F5501200280C0106F76A280FF66E000E44
:10002000F7220900F550120031323341343536429F
:10003000373839432A302344F76A480FF66E000EEA
:10004000F7220900F5501200444154453A00F76A7E
:100050005E0FF66E000EF7220900F55012004420E4
:100060000000F76A720FF66E000EF7220900F550D5
:100070001200484F52413A00F76A880FF66E000EA0
:10008000F7220900F5501200232344444D4D41410D
:1000900048484D4D535349440000F76AAA0FF66E85
:1000A000000EF7220900F550120020202042494599
:1000B0004E56454E49444F5320200000F76ACC0F5E
:1000C000F66E000EF7220900F55012004152512E33
:1000D00020434F4D502E2054415244450000F76AB2
:1000E000EE0FF66E000EF7220900F55012004D4992
:1000F0004755454C204D454E44455A00F76A0C0F74
:10010000F66E010EF7220900F55012002044415608
:100110004944204D415254494E455A200000F76A47
:100120002E0FF66E010EF7220900F550120047520D
:1001300055504F00F76A440FF66E010EF722090082
:10014000F5501200204E554D45524F00F76A5C0F96
:10015000F66E010EF7220900F5501200504F5220A2
:100160004641564F5200F76A760FF66E010EF7229F
:100170000900F5501200494E475245534520434C63
:1001800041564500F76A940FF66E010EF7220900FA
:10019000F55012004249454E56454E49444F5320B2
:1001A000414C0000F76AB40FF66E010EF722090009
:1001B000F5501200204D454E5500F76ACA0FF66EF5
:1001C000010EF7220900F55012004D4152515545DC
:1001D0002031205041524120454C0000F76AEC0F7D
:1001E000F66E010EF7220900F55012004D454E55EE
:1001F00020444520444156494400F76A0A0FF66EF0
:10020000020EF7220900F55012004D41525155459A
:100210002032205041524120454C0000F76A2C0FFB
:10022000F66E020EF7220900F55012004D454E55AC
:10023000204445204D494755454C0000F76A4C0F76
:10024000F66E020EF7220900F55012004D41525190
:10025000554520332050415241200000F76A6C0F71
:10026000F66E020EF7220900F550120053414C4978
:100270005200F76A820FF66E020EF7220900F5505F
:1002800012004552524F52204445204E554D455282
:100290004F00F76AA20FF66E020EF7220900F55022
:1002A00012004D454E552055535541522E00F76AC8
:1002B000BE0FF66E020EF7220900F55012004D49EE
:1002C0004755454C0000F76AD60FF66E020EF7222E
:1002D0000900F55012004D4152515545204E554DE3
:1002E000205041524100F76AF60FF66E020EF722D7
:1002F0000900F5501200312043414D42494152203E
:10030000434C41564500F76A160FF66E030EF7226E
:100310000900F5501200322046454348412059203B
:10032000484F52410000F76A360FF66E030EF7226F
:100330000900F550120033205245504F5254455396
:100340000000F76A520FF66E030EF7220900F5500F
:10035000120034204D4F544F5220504153415041D0
:100360005300F76A720FF66E030EF7220900F5507C
:1003700012003520534552564F4D4F544F520000F6
:10038000F76A900FF66E030EF7220900F55012007F
:10039000362043414400F76AA60FF66E030EF7229B
:1003A0000900F5501200372044544D460000F76A0A
:1003B000BE0FF66E030EF7220900F550120038202A
:1003C00053454E534F5245530000F76ADA0FF66E0D
:1003D000030EF7220900F5501200392053414C4911
:1003E0005200F76AF20FF66E030EF7220900F5507D
:1003F00012004D454E2043414D4249415220434C4D
:1004000041560000F76A140FF66E040EF722090039
:10041000F5501200444947495445204E552E20437B
:100420004C4156450000F76A360FF66E040EF7226F
:100430000900F5501200504F52204641564F5220AD
:100440004449474954450000F76A580FF66E040EB8
:10045000F7220900F5501200444947495445204EFF
:1004600055452E434C4156450000F76A7A0FF66E0B
:10047000040EF7220900F5501200434C4156452066
:100480004D4F44494649434144410000F76A9C0F9F
:10049000F66E040EF7220900F5501200434F4E206D
:1004A000455849544F00F76AB60FF66E040EF7220E
:1004B0000900F55012004552524F52204445204346
:1004C0004C4156450000F76AD60FF66E040EF7222F
:1004D0000900F55012004D454E2046454348412045
:1004E0005920484F52410000F76AF80FF66E040E8B
:1004F000F7220900F55012004D454E552052455047
:100500004F5254455300F76A160FF66E050EF72248
:100510000900F5501200312047454E455241522EF8
:100520005245504F52540000F76A380FF66E050ED0
:10053000F7220900F550120032204D4F535452411A
:10054000522E5245504F52540000F76A5A0FF66E21
:10055000050EF7220900F55012005245504F525433
:100560004520475541524441444F0000F76A7C0FF3
:10057000F66E050EF7220900F55012004D454D4F5D
:10058000524941204C4C454E4100F76A9A0FF66E95
:10059000050EF7220900F55012004E554D45524FF9
:1005A0000000F76AB20FF66E050EF7220900F5504B
:1005B00012004552524F5200F76AC80FF66E050EF0
:1005C000F7220900F55012004D454E204D4F544F73
:1005D000522050415320412E0000F76AEA0FF66E78
:1005E000050EF7220900F55012003120504152410A
:1005F00020444552454348410000F76A0A0FF66E11
:10060000060EF7220900F5501200322050415241E7
:1006100020495A515549455244410000F76A2C0F70
:10062000F66E060EF7220900F55012004D454E20D9
:10063000534552564F4D4F544F520000F76A4C0FDE
:10064000F66E060EF7220900F5501200454E2043C3
:100650004F4E535452554343494F4E00F76A6C0F67
:10066000F66E060EF7220900F55012004D454E5564
:10067000204341440000F76A860FF66E060EF7220B
:100680000900F55012004D454E2044544D460000DF
:10069000F76AA00FF66E060EF7220900F550120059
:1006A0004D454E2053454E534F5245530000F76A77
:1006B000BE0FF66E060EF7220900F55012004441F7
:1006C00056494400F76AD40FF66E060EF722090069
:1006D000F550120034204D4F544F522050415320BA
:1006E000412050410000F76AF60FF66E060EF72221
:1006F0000900F55012005245504F52544500F76A18
:100700000E0FF66E070EF7220900F5501200434F48
:100710004E5452412E204552524F4E454100EA6AF6
:10072000950EE96EEF500DE0060E016E006A002E88
:10073000FED7012EFBD77B0E006E002EFED7EF2ECC
:10074000F3D7000C9D2D01D09C899E6B9E5104080F
:1007500011E3D8909C3302E28D9001D08D80969069
:10076000000096928D9200D000D0000096928D826B
:100770009E2BECD796948D84030E006E002EFED730
:1007800096948D94000C0B6AA60E006E002EFED778
:100790000000995303E0010E0B6E01D00B6A0000BC
:1007A00096948D949A399B6F0F0E9B179BC09CF06B
:1007B0000BC09DF0C7DF9A510F0B9B6F9C6F0BC056
:1007C0009DF0C0DF000C0B6A96948D94140E956F0B
:1007D000A6DF8D6B8D5102080AE3030E9C6F0BC0E0
:1007E0009DF0B0DF050E956F9ADF8D2BF3D7020ECB
:1007F0009C6F0BC09DF0A6DF8D6B8D51030812E33B
:10080000036A8D51F2CF8EF0F29E02EC00F08EBFA3
:10081000F28E8E6F996B9A6FB6DF050E956F7FDF44
:100820008D2BEBD716EF0DF018EF0DF0010E965D46
:10083000FC0F0FE2040F33EF04F0800E976F09D026
:10084000C00E976F06D0940E976F03D0D40E976F9B
:1008500000D0010E955D972797518009986F996B8D
:100860009A6F91DF000CE824F76AF736810FF66E75
:10087000080EF7220A00F550FA6E0800F550F96EDE
:100880003A08400846084C0894510C0A0BE0060A46
:1008900013E0020A18E06B0A1BE0040A1EE00F0ACC
:1008A00021E025D0996B010E9A6F6DDF010E0C6E61
:1008B000080E956F34DF21D00C2A010E956F0CC005
:1008C00096F0B4DF1AD0996B100E9A6F5CDF15D0DA
:1008D000996B0C0E9A6F57DF10D0996B0F0E9A6FB1
:1008E00052DF0BD0996B0F0E9A6F4DDF06D0010EC1
:1008F000996F94C09AF047DF00D0000C606B605194
:10090000030818E3036A6051660FE96E000E0320C6
:10091000EA6EF2CF8FF0F29E60C0A9FFA69CA69E61
:10092000A680A8508FBFF28EEF6E010E956FF7DE96
:10093000602BE5D7D5EF0DF0080E016E050E006EA9
:10094000002EFED789909290060E006E002EFED7E4
:1009500094378992D8B09282D8A09292928080A047
:10096000FED7012EEBD7050E006E002EFED7899024
:10097000929000009282060E006E002EFED7060EA8
:10098000006E002EFED7928080A0FED7016A060E70
:10099000006E002EFED780B20180899092908992DD
:1009A0009292000C080E936F00C094F09282060E93
:1009B000006E002EFED7928080A0FED780B2D88035
:1009C00080A2D8900136050E006E002EFED79290C0
:1009D0008990932FEBD79282060E006E002EFED7E1
:1009E00089929451D8A492920000928080A0FED760
:1009F000050E006E002EFED789909290060E006EB6
:100A0000002EFED7899292923DEF05F09282050E5C
:100A1000006E002EFED79280060E006E002EFED7CE
:100A200089929292050E006E002EFED789909290C8
:100A3000A00E946F81DF90C092F0936B90C094F001
:100A40007BDF8FC094F078DF9282050E006E002E5F
:100A5000FED79280060E006E002EFED780A0FED735
:100A600089929292050E006E002EFED78990929088
:100A7000A10E946F61DF006A95D701C091F0929248
:100A80000000928080A0FED7050E006E002EFED7DB
:100A900000D000009282050E006E002EFED791C09D
:100AA00001F0000C606B6051030819E3036A6051A8
:100AB0006A0F016E000E032201C08DF003C08EF09C
:100AC000906B60C08FF0A2DF8EC0EAFF8DC0E9FF9F
:100AD00001C0EFFF010E956F22DE602BE4D7D7EF48
:100AE0000DF08E0E006E90C001F08FC002F0036A10
:100AF000015209E102C001F0026A080E005E0152D3
:100B000002E1006A08D0D89001BE04D00236013656
:100B10000006F9D7019E000C90C097F09451971BE6
:100B200097AF05D0D894D89090BFD8802FD090C0E0
:100B300097F093C098F08F51985F06E097AF26D05A
:100B4000D850010AD86E22D094C098F09051985F86
:100B500006E097AF1BD0D850010AD86E17D095C0C9
:100B600098F09151985F06E097AF10D0D850010AE5
:100B7000D86E0CD096C098F09251985F06E097AF6F
:100B800005D0D850010AD86E01D0D890000CF19E43
:100B90008D6B0D2A906B0DC08FF0A3DFCD0E926F81
:100BA000CC0E916F4C0E906F7C0E8F6F03C096F041
:100BB00002C095F001C094F000C093F0ADDF5BE39C
:100BC0001050FC0F17E2040F42EF06F0F00E936E88
:100BD0000E0E816E0FD0F00E936E0D0E816E0AD048
:100BE000F00E936E0B0E816E05D0F00E936E070E15
:100BF000816E00D00EA009D08150F00BF00804E106
:100C00000E900FC08DF00F6A35D08150F00BF008B8
:100C10002CE08150100B02E18E6B11D08150200B23
:100C200003E1010E8E6F0BD08150400B03E1020EE9
:100C30008E6F05D08150800B02E1030E8E6F8E51B6
:100C4000040DF350906B8F6F036A10508F25016E67
:100C5000905103220150F2CF8FF0F29E0CEC00F085
:100C60008FBFF28E0F6E0E8005D0102A1050040830
:100C700001E1106A0D6A0FC08DF0F00E936E8DC009
:100C800001F0000CE824F76AF7369F0FF66E0C0EA1
:100C9000F7220A00F550FA6E0800F550F96ECC0BF9
:100CA000D60BE00BEA0B0C0E946FEEDD786B776BD6
:100CB0007A6B796B060E616F606B60510308D8A088
:100CC000AFD065DF01C072F03C0E956F28DD725326
:100CD000D8B478D0010E6025FF0FFC0FD8B066D0D5
:100CE000040F11EF07F0060E956F010E966F9EDD53
:100CF00072C094F0C9DD300E725D626F623B060E09
:100D0000956F020E966F92DD2A0E946FBDDD320E46
:100D1000956F05DD4BD0070E956F010E966F86DD42
:100D200072C094F0B1DD300E725D636F6351622763
:100D3000070E956F020E966F79DD2A0E946FA4DD73
:100D4000320E956FECDC32D0080E956F010E966F67
:100D50006DDD72C094F098DD300E725D646F643B9F
:100D6000080E956F020E966F61DD2A0E946F8CDD72
:100D7000320E956FD4DC1AD0090E956F010E966F66
:100D800055DD72C094F080DD300E725D656F655187
:100D90006425636F090E956F020E966F47DD2A0E6C
:100DA000946F72DD320E956FBADC00D0602B020EAC
:100DB0008D6FFA0E956FB3DC8D2FFBD77A6B796B45
:100DC000786B776B792BD8B47A2B7A5303E179510E
:100DD000140805E2772BD8B4782B7A6B796B6051C5
:100DE000030806E3785304E177510508D8B069D7C2
:100DF000036A6051620FE96E000E0320EA6E230E53
:100E0000EF6E61C095F0010E966F10DD2A0E946FA3
:100E10003BDD612B7A6B796B786B776B602B4DD7F1
:100E2000000CE824F76AF7363D0FF66E0E0EF72237
:100E30000A00F550FA6E0800F550F96EE60C160D32
:100E4000480D780D0C0E946F1FDD786B776B7A6B05
:100E5000796B0E929CDE01C072F03C0E956F5FDCE8
:100E600072530CE0080E956F010E966FDFDC72C0B6
:100E700094F00ADD300E725F0E820DD0792BD8B45B
:100E80007A2B7A5303E17951140805E2772BD8B411
:100E9000782B7A6B796B785305E17751050802E37B
:100EA0000EA2D8D7000C9282050E006E002EFED73F
:100EB0009280060E006E002EFED789929292050E49
:100EC000006E002EFED789909290A00E946F34DDB4
:100ED0008FC092F0936B8FC094F02EDD8EC094F093
:100EE0002BDD90C094F028DD92920000928080A0CB
:100EF000FED7050E006E002EFED700D000009282B5
:100F0000050E006E002EFED79282050E006E002E9A
:100F1000FED79280060E006E002EFED78992929226
:100F2000050E006E002EFED789909290A00E946F51
:100F300003DD0150919101B0918191A11CD0928269
:100F4000050E006E002EFED79280060E006E002E5B
:100F5000FED780A0FED789929292050E006E002ED9
:100F6000FED789909290A00E946FE6DC015091918B
:100F700001B09181E2D792920000928080A0FED7CA
:100F8000050E006E002EFED700D000009282050EE6
:100F9000006E002EFED7000C606B6051010816E356
:100FA000036A6051620FE96E000E0320EA6EEFCF14
:100FB0008DF08F6B6EC08EF08DC090F074DF050EDB
:100FC000956F8FEC03F06E2B602BE7D7000C080EAB
:100FD000016E050E006E002EFED789949294060EC7
:100FE000006E002EFED791378996D8B09286D8A091
:100FF0009296928480A4FED7012EEBD7050E006E48
:10100000002EFED78994929400009286060E006E00
:10101000002EFED7060E006E002EFED7928480A40E
:10102000FED7016A060E006E002EFED780B6018044
:101030008994929489969296000C080E926F00C043
:1010400093F09286060E006E002EFED7928480A446
:10105000FED780B6D88080A6D8900136050E006EE7
:10106000002EFED792948994922FEBD79286060E8B
:10107000006E002EFED789969351D8A49296000058
:10108000928480A4FED7050E006E002EFED78994B0
:101090009294060E006E002EFED789969296000C52
:1010A00092C093F0D8909333780E93179331006EDB
:1010B00000323F0E001600509325946F92510F0B93
:1010C0009425016E000C9551016A945D03E294C071
:1010D00000F00CD0006A080E966F943700369551D8
:1010E000005CD8B0006E0136962FF7D7000C200EAA
:1010F0008FA9300E906F8EC000F08EAF07D0001E0B
:10110000002A00C08EF02D0E906F8F8F01508EC080
:1011100094F0640E956FD7DF00C08EF0300E01247E
:10112000916F8EC094F00A0E956FCDDF300E0024C3
:10113000936F300E0124926F90C000F08FA702D001
:101140008FAF8F958FB90BD08FAF22D08FB520D0B6
:1011500000C091F08FB31CD000C092F019D0300EB7
:10116000915D16E100C091F0200E906F8FA704D022
:101170008F958F838FAF8F93300E925D09E100C002
:1011800092F0200E916F8FA7F7D78F938FAF8F912B
:101190008FA504D090C094F044EC04F08FA304D049
:1011A00091C094F044EC04F08FA104D092C094F06C
:1011B00044EC04F093C094F044EC04F0000CF29C76
:1011C000F29EF2BEFDD79286050E006E002EFED76F
:1011D0009284060E006E002EFED789969296050E1A
:1011E000006E002EFED789949294D00E916FEFDEA0
:1011F000030E916FECDE9286050E006E002EFED778
:101200009284060E006E002EFED780A4FED789962B
:101210009296050E006E002EFED789949294D10E00
:10122000916FD5DE010E006E08DF01507F0B8D6FD0
:10123000926F36DF01C089F0010E006EFEDE0150B4
:101240003F0B8D6F926F2CDF01C086F0010E006E98
:10125000F4DE01501F0B8D6F926F22DF01C087F00B
:10126000006AEBDE01C08DF001C092F019DF01C011
:1012700088F092960000928480A4FED7050E006E3E
:10128000002EFED700D000009286050E006E002EC4
:10129000FED7C00EF2120C0E946F44EC04F0010E57
:1012A000956F966F16EC04F08D6B8D511CEC00F071
:1012B0008D2B006E946F44EC04F0050E8D5DF5E10E
:1012C000030E606F6051050818E3036A6051830FD5
:1012D000E96E000E0320EA6EEFCF8DF08DC08EF028
:1012E000110E8F6F04DF2F0E946F44EC04F0C80EC4
:1012F000956F8FEC03F0602BE5D7100E956F010E04
:10130000966F16EC04F08D6B8D5127EC00F0000900
:1013100005E08D2B946F44EC04F0F6D7606B6051C0
:101320000908D8A0A8D0F29CF29EF2BEFDD7928602
:10133000050E006E002EFED79284060E006E002E63
:10134000FED789969296050E006E002EFED78994E0
:101350009294D00E916F3BDE916B39DE9286050E32
:10136000006E002EFED79284060E006E002EFED771
:1013700080A4FED789969296050E006E002EFED7A9
:1013800089949294D10E916F22DE010E006E55DE8B
:1013900001507F0B8D6F926F83DE01C085F0010ECF
:1013A000006E4BDE01507F0B8D6F926F79DE01C0B6
:1013B00084F0006A42DE01503F0B8D6F926F70DE49
:1013C00001C083F092960000928480A4FED7050E9F
:1013D000006E002EFED700D000009286050E006E33
:1013E000002EFED7C00EF212010E956F020E966F00
:1013F00016EC04F08D6B8D5131EC00F08D2B006EEE
:10140000946F44EC04F0050E8D5DF5E1606B605166
:10141000020818E3036A6051830FE96E000E03208F
:10142000EA6EEFCF8DF08DC08EF0110E8F6F5FDE04
:101430003A0E946F44EC04F0C80E956F8FEC03F0F5
:10144000602BE5D7100E956F020E966F16EC04F028
:1014500089C08EF0180E8F6F4ADE3A0E946F44ECFE
:1014600004F0050E8D6FC70E956F8FEC03F08D2F76
:10147000FAD7602B54D7000C0E94080E6E6F8B6B4E
:10148000906B6EC08FF006EC05F0906B01C08FF092
:1014900071EC05F003C076F002C075F001C074F085
:1014A00000C073F0030E956F8FEC03F076C092F0DE
:1014B00075C091F074C090F073C08FF0966B956B0F
:1014C0007F0E946F860E936F8CEC05F002E10E8414
:1014D00002D0080E6E27010E8B276E51F00802E332
:1014E0000EA4CED7000CF29CF29EF2BEFDD79286DF
:1014F000050E006E002EFED79284060E006E002EA2
:10150000FED789969296050E006E002EFED789941E
:101510009294D00E916F5BDD030E916F58DD928631
:10152000050E006E002EFED79284060E006E002E71
:10153000FED780A4FED789969296050E006E002EE7
:10154000FED789949294D10E916F41DD010E006E09
:1015500074DD01507F0B8D6F926FA2DD01C081F0B1
:10156000010E006E6ADD01503F0B8D6F926F98DDAA
:1015700001C07EF0010E006E60DD01501F0B8D6F0B
:10158000926F8EDD01C07FF0006A57DD01C08DF0E3
:1015900001C092F085DD01C080F092960000928437
:1015A00080A4FED7050E006E002EFED700D00000EE
:1015B0009286050E006E002EFED7C00EF212F29C2F
:1015C000F29EF2BEFDD79286050E006E002EFED76B
:1015D0009284060E006E002EFED789969296050E16
:1015E000006E002EFED789949294D00E916FEFDC9E
:1015F000916BEDDC9286050E006E002EFED7928474
:10160000060E006E002EFED780A4FED78996929615
:10161000050E006E002EFED789949294D10E916F24
:10162000D6DC010E006E09DD01507F0B8D6F926FCD
:1016300037DD01C082F0010E006EFFDC01507F0B30
:101640008D6F926F2DDD01C07DF0006AF6DC0150D8
:101650003F0B8D6F926F24DD01C07CF092960000ED
:10166000928480A4FED7050E006E002EFED700D017
:1016700000009286050E006E002EFED7C00EF212FC
:101680008BC083F07EC084F07FC085F080C086F080
:101690007CC087F07DC088F082C089F07BC08AF072
:1016A000000C080E6E6F716B606B605107081CE3D5
:1016B000036A6051830F016E000E032201C08DF09A
:1016C00003C08EF0906B6EC08FF006EC05F08EC0FC
:1016D000EAFF8DC0E9FF01C0EFFF030E956F8FECAD
:1016E00003F06E2B602BE1D70C0E946F44EC04F0EA
:1016F000010E956F966F16EC04F08D6B8D513CECDE
:1017000000F08D2B006E946F44EC04F0100E8D5D94
:10171000F5E1010E956F020E966F16EC04F083C092
:101720008EF0110E8F6FE3DC030E956F020E966F35
:1017300016EC04F084C08EF0110E8F6FD8DC050E0D
:10174000956F020E966F16EC04F085C08EF0110EA8
:101750008F6FCDDC070E956F020E966F16EC04F0BE
:1017600086C08EF0110E8F6FC2DC090E956F020ECF
:10177000966F16EC04F087C08EF0110E8F6FB7DCF9
:101780000B0E956F020E966F16EC04F088C08EF06B
:10179000110E8F6FACDC0D0E956F020E966F16EC6E
:1017A00004F089C08EF0110E8F6FA1DC0F0E956FC3
:1017B000020E966F16EC04F08AC08EF0110E8F6F39
:1017C00096DC0C0E8D6FFA0E956F8FEC03F08D2F5B
:1017D000FAD771513208D8B067D7000C606B95907A
:1017E0008C8095928C8295948C9495968C968CC0D6
:1017F00095F08FEC03F095908C9095928C82959457
:101800008C8495968C968CC095F08FEC03F0959017
:101810008C9095928C9295948C8495968C868CC0A5
:1018200095F08FEC03F095908C8095928C92959426
:101830008C9495968C868CC095F08FEC03F0602B81
:10184000CED795908C9095928C9295948C949596F9
:101850008C96140E8D6FFA0E956F8FEC03F08D2F12
:10186000FAD7000C606B95908C9095928C92959421
:101870008C9495968C868CC095F08FEC03F09590A7
:101880008C9095928C9295948C8495968C968CC025
:1018900095F08FEC03F095908C9095928C829594B6
:1018A0008C9495968C968CC095F08FEC03F0959067
:1018B0008C8095928C9295948C9495968C968CC0F5
:1018C00095F08FEC03F0602BCED795908C9095928D
:1018D0008C9295948C9495968C96140E8D6FFA0E2E
:1018E000956F8FEC03F08D2FFAD7000CF86AD09E1D
:1018F000FE0E006E080E016E020EE96E000EEA6E1C
:10190000EE6A002EFDD7012EFBD7EA6AE96AC150C4
:10191000C00B0F09C16E070EB46E056A066A0D6A28
:101920000E900F6A106A4C0E116E750E126E6E0ECE
:10193000136E650E146E730E156E166A176A186AAA
:10194000196A1A6A1B6A4D0E1C6E610E1D6E720EAC
:101950001E6E740E1F6E650E206E730E216E226A4F
:10196000236A246A256A266A4D0E276E690E286E40
:10197000E90E296E720E2A6E630E2B6E6F0E2C6EA0
:101980006C0E2D6E650E2E6E730E2F6E306A316AE0
:101990004A0E326E750E336E650E346E760E356EEF
:1019A000650E366E730E376E386A396A3A6A3B6A6C
:1019B0003C6A560E3D6E690E3E6E650E3F6E720EAF
:1019C000406E6E0E416E650E426E730E436E446A3B
:1019D000456A466A476A530E486EE10E496E620ECA
:1019E0004A6E610E4B6E640E4C6E6F0E4D6E4E6AFB
:1019F0004F6A506A516A526A440E536E6F0E546EAB
:101A00006D0E556E690E566E6E0E576E670E586EE1
:101A10006F0E596E5A6A5B6A5E6A140E8C6F280EDE
:101A2000926E000E936E956EE3EF03F014EF04F0E8
:101A3000926A896A936A8A6A956A8C6A0C0E946FB4
:101A400044EC04F0010E956F966F16EC04F08D6B6C
:101A50008D514DEC00F0000905E08D2B946F44ECA6
:101A600004F0F6D7010E956F020E966F16EC04F097
:101A70008D6B8D515EEC00F0000905E08D2B946FAD
:101A800044EC04F0F6D70C0E8D6FFA0E956F8FECC8
:101A900003F08D2FFAD70C0E946F44EC04F0010E76
:101AA000956F966F16EC04F08D6B8D516FEC00F016
:101AB000000905E08D2B946F44EC04F0F6D7010E7D
:101AC000956F020E966F16EC04F08D6B8D517EECC7
:101AD00000F0000905E08D2B946F44EC04F0F6D77C
:101AE0000C0E8D6FFA0E956F8FEC03F08D2FFAD7D9
:101AF0000C0E946F44EC04F0030E956F010E966F7C
:101B000016EC04F08D6B8D518FEC00F0000905E0B0
:101B10008D2B946F44EC04F0F6D7020E956F966F00
:101B200016EC04F08D6B8D519AEC00F0000905E085
:101B30008D2B946F44EC04F0F6D70C0E8D6FFA0EDB
:101B4000956F8FEC03F08D2FFAD70C0E946F44EC49
:101B500004F0020E956F010E966F16EC04F08D6B7B
:101B60008D51A6EC00F0000905E08D2B946F44EC3C
:101B700004F0F6D7010E956F020E966F16EC04F086
:101B80008D6B8D51B3EC00F0000905E08D2B946F47
:101B900044EC04F0F6D70C0E8D6FFA0E956F8FECB7
:101BA00003F08D2FFAD77EEF04F052EF05F053ECDF
:101BB00006F06251120802E0000E01D0010E8D6F96
:101BC0006351340802E0000E01D0010E8D15D8B427
:101BD000E2D00C0E946F44EC04F0010E956F966FFA
:101BE00016EC04F08D6B8D51C2EC00F0000905E09D
:101BF0008D2B946F44EC04F0F6D7040E956F020E13
:101C0000966F16EC04F08D6B8D51D2EC00F000094C
:101C100005E08D2B946F44EC04F0F6D70C0E8D6F1D
:101C2000FA0E956F8FEC03F08D2FFAD70C0E946F90
:101C300044EC04F0010E956F966F16EC04F08D6B7A
:101C40008D51DDEC00F0000905E08D2B946F44EC24
:101C500004F0F6D7010E956F020E966F16EC04F0A5
:101C60008D6B8D51EEEC00F0000905E08D2B946F2B
:101C700044EC04F0F6D70C0E8D6FFA0E956F8FECD6
:101C800003F08D2FFAD70C0E946F44EC04F0010E84
:101C9000956F966F16EC04F08D6B8D51FDEC00F096
:101CA000000905E08D2B946F44EC04F0F6D7010E8B
:101CB000956F020E966F16EC04F08D6B8D510EEC45
:101CC00001F0000905E08D2B946F44EC04F0F6D789
:101CD0000C0E8D6FFA0E956F8FEC03F08D2FFAD7E7
:101CE0000C0E946F44EC04F0010E956F966F16EC99
:101CF00004F08D6B8D511EEC01F0000905E08D2B79
:101D0000946F44EC04F0F6D7010E956F020E966FB7
:101D100016EC04F08D6B8D512EEC01F0000905E0FE
:101D20008D2B946F44EC04F0F6D70C0E8D6FFA0EE9
:101D3000956F8FEC03F08D2FFAD722EC07F0722D00
:101D400002D04AEF13F07251020801E135D072510E
:101D5000030801E1FF000C0E946F44EC04F0010E47
:101D6000956F020E966F16EC04F08D6B8D5139EC69
:101D700001F0000905E08D2B946F44EC04F0F6D7D8
:101D80000C0E8D6FFA0E956F8FEC03F08D2FFAD736
:101D900020D7C3EF17F06A51625D02E0000E01D058
:101DA000010E8D6F6B51635D02E0000E01D0010EDC
:101DB0008D15D8B439EF13F06E6B0C0E946F44ECA4
:101DC00004F0010E956F966F16EC04F08D6B8D513B
:101DD00049EC01F0000905E08D2B946F44EC04F010
:101DE000F6D7010E956F020E966F16EC04F08D6B10
:101DF0008D5157EC01F0000905E08D2B946F44ECF8
:101E000004F0F6D70C0E8D6FFA0E956F8FEC03F081
:101E10008D2FFAD70C0E946F44EC04F0010E956FE1
:101E2000966F16EC04F08D6B8D5163EC01F0000998
:101E300005E08D2B946F44EC04F0F6D7010E956FFE
:101E4000020E966F16EC04F08D6B8D5173EC01F061
:101E5000000905E08D2B946F44EC04F0F6D70C0ECE
:101E60008D6FFA0E956F8FEC03F08D2FFAD70C0E55
:101E7000946F44EC04F0010E956F966F16EC04F02D
:101E80008D6B8D5183EC01F0000905E08D2B946F73
:101E900044EC04F0F6D7010E956F020E966F16EC27
:101EA00004F08D6B8D5193EC01F0000905E08D2B52
:101EB000946F44EC04F0F6D70C0E8D6FFA0E956F0C
:101EC0008FEC03F08D2FFAD70C0E946F44EC04F0D6
:101ED000010E956F966F16EC04F08D6B8D51A1EC91
:101EE00001F0000905E08D2B946F44EC04F0F6D767
:101EF000010E956F020E966F16EC04F08D6B8D51EE
:101F0000B1EC01F0000905E08D2B946F44EC04F076
:101F1000F6D70C0E8D6FFA0E956F8FEC03F08D2FA8
:101F2000FAD70C0E946F44EC04F0010E956F966F87
:101F300016EC04F08D6B8D51C0EC01F0000905E04A
:101F40008D2B946F44EC04F0F6D7010E956F020EC2
:101F5000966F16EC04F08D6B8D51CBEC01F00009FF
:101F600005E08D2B946F44EC04F0F6D70C0E8D6FCA
:101F7000FA0E956F8FEC03F08D2FFAD70C0E946F3D
:101F800044EC04F0010E956F966F16EC04F08D6B27
:101F90008D51D7EC01F0000905E08D2B946F44ECD6
:101FA00004F0F6D7030E956F020E966F16EC04F050
:101FB0008D6B8D51E5EC01F0000905E08D2B946FE0
:101FC00044EC04F0F6D70C0E8D6FFA0E956F8FEC83
:101FD00003F08D2FFAD722EC07F0722DC0D00C0E33
:101FE000946F44EC04F0010E956F966F16EC04F0BC
:101FF0008D6B8D51F1EC01F0000905E08D2B946F94
:1020000044EC04F0F6D7030E956F020E966F16ECB3
:1020100004F08D6B8D5102EC02F0000905E08D2B70
:10202000946F44EC04F0F6D70C0E8D6FFA0E956F9A
:102030008FEC03F08D2FFAD753EC06F062C06FF0EF
:1020400063C070F00C0E946F44EC04F0010E956FB9
:10205000966F16EC04F08D6B8D5113EC02F00009B5
:1020600005E08D2B946F44EC04F0F6D7010E956FCC
:10207000020E966F16EC04F08D6B8D5124EC02F07D
:10208000000905E08D2B946F44EC04F0F6D70C0E9C
:102090008D6FFA0E956F8FEC03F08D2FFAD753ECFE
:1020A00006F06F51625D02E0000E01D0010E8D6FEF
:1020B0007051635D02E0000E01D0010E8D1531E01C
:1020C000CCEC07F00C0E946F44EC04F0010E956F0D
:1020D000966F16EC04F08D6B8D5135EC02F0000913
:1020E00005E08D2B946F44EC04F0F6D7030E956F4A
:1020F000020E966F16EC04F08D6B8D5146EC02F0DB
:10210000000905E08D2B946F44EC04F0F6D70C0E1B
:102110008D6FFA0E956F8FEC03F08D2FFAD74CD69A
:102120001DD00C0E946F44EC04F0010E956F966F69
:1021300016EC04F08D6B8D5153EC02F0000905E0B4
:102140008D2B946F44EC04F0F6D70C0E8D6FFA0EC5
:10215000956F8FEC03F08D2FFAD72ED688D272515F
:10216000020828E10C0E946F44EC04F0010E956F08
:10217000966F16EC04F08D6B8D5163EC02F0000944
:1021800005E08D2B946F44EC04F0F6D70C0E8D6FA8
:10219000FA0E956F8FEC03F08D2FFAD7DFEC08F075
:1021A000280E8D6FFA0E956F8FEC03F08D2FFAD7F6
:1021B00003D65DD272510308D8A4EFD0130E7B6F03
:1021C0000C0E946F44EC04F0010E956F966F16ECB4
:1021D00004F08D6B8D5174EC02F0000905E08D2B3D
:1021E000946F44EC04F0F6D70C0E8D6FFA0E956FD9
:1021F0008FEC03F08D2FFAD70C0E946F44EC04F0A3
:10220000010E956F966F16EC04F08D6B8D5183EC7B
:1022100002F0000905E08D2B946F44EC04F0F6D732
:10222000010E956F020E966F16EC04F08D6B8D51BA
:1022300094EC02F0000905E08D2B946F44EC04F05F
:10224000F6D70C0E8D6FFA0E956F8FEC03F08D2F75
:10225000FAD722EC07F0722D6ED03CEC0AF00EA4F7
:102260004CD073EC0AF0606B6051070817E3036A07
:102270006051830FE96E000E0320EA6EEFCF8DF000
:102280008F6B6EC08EF08DC090F053EC07F06E2B0C
:10229000050E956F8FEC03F0602BE6D70C0E946F54
:1022A00044EC04F0010E956F966F16EC04F08D6B04
:1022B0008D51A5EC02F0000905E08D2B946F44ECE4
:1022C00004F0F6D7010E956F020E966F16EC04F02F
:1022D0008D6B8D5146EC02F0000905E08D2B946F5B
:1022E00044EC04F0F6D70C0E8D6FFA0E956F8FEC60
:1022F00003F08D2FFAD760D51DD00C0E946F44ECEF
:1023000004F0010E956F966F16EC04F08D6B8D51F5
:10231000B6EC02F0000905E08D2B946F44EC04F05C
:10232000F6D70C0E8D6FFA0E956F8FEC03F08D2F94
:10233000FAD742D531D07251020804E151EC0BF0CA
:102340003BD52AD0010E956F966F16EC04F08D6B7D
:102350008D51C5EC02F0000905E08D2B946F44EC23
:1023600004F0F6D7010E956F020E966F16EC04F08E
:102370008D6B8D51D1EC02F0000905E08D2B946F2F
:1023800044EC04F0F6D70C0E8D6FFA0E956F8FECBF
:1023900003F08D2FFAD710D56AD172510408D8A452
:1023A00077D00C0E946F44EC04F0010E956F966F8D
:1023B00016EC04F08D6B8D51DCEC02F0000905E0A9
:1023C0008D2B946F44EC04F0F6D70C0E8D6FFA0E43
:1023D000956F8FEC03F08D2FFAD70C0E946F44ECB1
:1023E00004F0010E956F966F16EC04F08D6B8D5115
:1023F000EDEC02F0000905E08D2B946F44EC04F045
:10240000F6D7010E956F020E966F16EC04F08D6BE9
:102410008D51FDEC02F0000905E08D2B946F44EC2A
:1024200004F0F6D70C0E8D6FFA0E956F8FEC03F05B
:102430008D2FFAD722EC07F0722D04D0EEEC0BF0C2
:10244000BBD424D07251020804E132EC0CF0B4D4B5
:102450001DD00C0E946F44EC04F0010E956F966F36
:1024600016EC04F08D6B8D5139EC01F0000905E09C
:102470008D2B946F44EC04F0F6D70C0E8D6FFA0E92
:10248000956F8FEC03F08D2FFAD796D495D4EFD0BB
:10249000725105082FE10C0E946F44EC04F0010E0C
:1024A000956F966F16EC04F08D6B8D510EEC03F06A
:1024B000000905E08D2B946F44EC04F0F6D7030E71
:1024C000956F020E966F16EC04F08D6B8D511EEC1D
:1024D00003F0000905E08D2B946F44EC04F0F6D76F
:1024E0000C0E8D6FFA0E956F8FEC03F08D2FFAD7CF
:1024F00063D4BDD0725106082FE10C0E946F44ECEA
:1025000004F0010E956F966F16EC04F08D6B8D51F3
:102510002EEC03F0000905E08D2B946F44EC04F0E1
:10252000F6D7030E956F020E966F16EC04F08D6BC6
:102530008D511EEC03F0000905E08D2B946F44ECE7
:1025400004F0F6D70C0E8D6FFA0E956F8FEC03F03A
:102550008D2FFAD731D48BD07251070830E10C0E91
:10256000946F44EC04F0010E956F966F16EC04F036
:102570008D6B8D513BEC03F0000905E08D2B946FC2
:1025800044EC04F0F6D7030E956F020E966F16EC2E
:1025900004F08D6B8D511EEC03F0000905E08D2BCE
:1025A000946F44EC04F0F6D70C0E8D6FFA0E956F15
:1025B0008FEC03F08D2FFAD7DCEF0EF058D072516C
:1025C000080830E10C0E946F44EC04F0010E956F96
:1025D000966F16EC04F08D6B8D5148EC03F00009FA
:1025E00005E08D2B946F44EC04F0F6D7030E956F45
:1025F000020E966F16EC04F08D6B8D511EEC03F0FD
:10260000000905E08D2B946F44EC04F0F6D70C0E16
:102610008D6FFA0E956F8FEC03F08D2FFAD7DCEFEC
:102620000EF025D07251090803E1E9EF0DF01FD03B
:102630000C0E946F44EC04F0010E956F020E966F31
:1026400016EC04F08D6B8D5139EC01F0000905E0BA
:102650008D2B946F44EC04F0F6D70C0E8D6FFA0EB0
:10266000956F8FEC03F08D2FFAD71EEF0DF0C3EFAF
:1026700017F06C51625D02E0000E01D0010E8D6F0B
:102680006D51635D02E0000E01D0010E8D15D8B4CE
:10269000A4EF17F0020E6E6F0C0E946F44EC04F072
:1026A000010E956F966F16EC04F08D6B8D5149EC11
:1026B00001F0000905E08D2B946F44EC04F0F6D78F
:1026C000040E956F020E966F16EC04F08D6B8D5113
:1026D00057EC03F0000905E08D2B946F44EC04F0F7
:1026E000F6D70C0E8D6FFA0E956F8FEC03F08D2FD1
:1026F000FAD70C0E946F44EC04F0010E956F966FB0
:1027000016EC04F08D6B8D5163EC01F0000905E0CF
:102710008D2B946F44EC04F0F6D7010E956F020EEA
:10272000966F16EC04F08D6B8D5173EC01F000097F
:1027300005E08D2B946F44EC04F0F6D70C0E8D6FF2
:10274000FA0E956F8FEC03F08D2FFAD70C0E946F65
:1027500044EC04F0010E956F966F16EC04F08D6B4F
:102760008D5183EC01F0000905E08D2B946F44EC52
:1027700004F0F6D7010E956F020E966F16EC04F07A
:102780008D6B8D5193EC01F0000905E08D2B946F5A
:1027900044EC04F0F6D70C0E8D6FFA0E956F8FECAB
:1027A00003F08D2FFAD70C0E946F44EC04F0010E59
:1027B000956F966F16EC04F08D6B8D5162EC03F003
:1027C000000905E08D2B946F44EC04F0F6D7010E60
:1027D000956F020E966F16EC04F08D6B8D51B1EC77
:1027E00001F0000905E08D2B946F44EC04F0F6D75E
:1027F0000C0E8D6FFA0E956F8FEC03F08D2FFAD7BC
:102800000C0E946F44EC04F0010E956F966F16EC6D
:1028100004F08D6B8D51C0EC01F0000905E08D2BAB
:10282000946F44EC04F0F6D7010E956F020E966F8C
:1028300016EC04F08D6B8D51CBEC01F0000905E036
:102840008D2B946F44EC04F0F6D70C0E8D6FFA0EBE
:10285000956F8FEC03F08D2FFAD70C0E946F44EC2C
:1028600004F0010E956F966F16EC04F08D6B8D5190
:10287000D7EC01F0000905E08D2B946F44EC04F0D7
:10288000F6D7030E956F020E966F16EC04F08D6B63
:102890008D51E5EC01F0000905E08D2B946F44ECBF
:1028A00004F0F6D70C0E8D6FFA0E956F8FEC03F0D7
:1028B0008D2FFAD722EC07F0722DC0D00C0E946F3A
:1028C00044EC04F0010E956F966F16EC04F08D6BDE
:1028D0008D51F1EC01F0000905E08D2B946F44EC73
:1028E00004F0F6D7030E956F020E966F16EC04F007
:1028F0008D6B8D5102EC02F0000905E08D2B946F79
:1029000044EC04F0F6D70C0E8D6FFA0E956F8FEC39
:1029100003F08D2FFAD753EC06F062C06FF063C05E
:1029200070F00C0E946F44EC04F0010E956F966FEE
:1029300016EC04F08D6B8D5113EC02F0000905E0EC
:102940008D2B946F44EC04F0F6D7010E956F020EB8
:10295000966F16EC04F08D6B8D5124EC02F000099B
:1029600005E08D2B946F44EC04F0F6D70C0E8D6FC0
:10297000FA0E956F8FEC03F08D2FFAD753EC06F01B
:102980006F51625D02E0000E01D0010E8D6F70513B
:10299000635D02E0000E01D0010E8D1531E0CCEC3C
:1029A00007F00C0E946F44EC04F0010E956F966FD7
:1029B00016EC04F08D6B8D5135EC02F0000905E04A
:1029C0008D2B946F44EC04F0F6D7030E956F020E36
:1029D000966F16EC04F08D6B8D5146EC02F00009F9
:1029E00005E08D2B946F44EC04F0F6D70C0E8D6F40
:1029F000FA0E956F8FEC03F08D2FFAD74BD61DD0C2
:102A00000C0E946F44EC04F0010E956F966F16EC6B
:102A100004F08D6B8D5153EC02F0000905E08D2B15
:102A2000946F44EC04F0F6D70C0E8D6FFA0E956F90
:102A30008FEC03F08D2FFAD72DD685D27251020874
:102A400028E10C0E946F44EC04F0010E956F966F24
:102A500016EC04F08D6B8D5163EC02F0000905E07B
:102A60008D2B946F44EC04F0F6D70C0E8D6FFA0E9C
:102A7000956F8FEC03F08D2FFAD7DFEC08F00C0E7A
:102A80008D6FFA0E956F8FEC03F08D2FFAD702D66B
:102A90005AD272510308D8A4EFD0100E7B6F0C0EDF
:102AA000946F44EC04F0010E956F966F16EC04F0F1
:102AB0008D6B8D5173EC03F0000905E08D2B946F45
:102AC00044EC04F0F6D70C0E8D6FFA0E956F8FEC78
:102AD00003F08D2FFAD70C0E946F44EC04F0010E26
:102AE000956F966F16EC04F08D6B8D5183EC02F0B0
:102AF000000905E08D2B946F44EC04F0F6D7010E2D
:102B0000956F020E966F16EC04F08D6B8D5194EC60
:102B100002F0000905E08D2B946F44EC04F0F6D729
:102B20000C0E8D6FFA0E956F8FEC03F08D2FFAD788
:102B300022EC07F0722D6ED03CEC0AF00EA44CD0C3
:102B400073EC0AF0606B6051070817E3036A605189
:102B5000830FE96E000E0320EA6EEFCF8DF08F6BCE
:102B60006EC08EF08DC090F053EC07F06E2B050E0A
:102B7000956F8FEC03F0602BE6D70C0E946F44EC4E
:102B800004F0010E956F966F16EC04F08D6B8D516D
:102B9000A5EC02F0000905E08D2B946F44EC04F0E5
:102BA000F6D7010E956F020E966F16EC04F08D6B42
:102BB0008D5146EC02F0000905E08D2B946F44EC3A
:102BC00004F0F6D70C0E8D6FFA0E956F8FEC03F0B4
:102BD0008D2FFAD75FD51DD00C0E946F44EC04F006
:102BE000010E956F966F16EC04F08D6B8D51B6EC5F
:102BF00002F0000905E08D2B946F44EC04F0F6D749
:102C00000C0E8D6FFA0E956F8FEC03F08D2FFAD7A7
:102C100041D531D07251020804E151EC0BF03AD5A4
:102C20002AD0010E956F966F16EC04F08D6B8D51C6
:102C3000C5EC02F0000905E08D2B946F44EC04F024
:102C4000F6D7010E956F020E966F16EC04F08D6BA1
:102C50008D51D1EC02F0000905E08D2B946F44EC0E
:102C600004F0F6D70C0E8D6FFA0E956F8FEC03F013
:102C70008D2FFAD70FD567D172510408D8A475D01B
:102C80000C0E946F44EC04F0010E956F966F16ECE9
:102C900004F08D6B8D51DCEC02F0000905E08D2B0A
:102CA000946F44EC04F0F6D70C0E8D6FFA0E956F0E
:102CB0008FEC03F08D2FFAD70C0E946F44EC04F0D8
:102CC000010E956F966F16EC04F08D6B8D51EDEC47
:102CD00002F0000905E08D2B946F44EC04F0F6D768
:102CE000010E956F020E966F16EC04F08D6B8D51F0
:102CF000FDEC02F0000905E08D2B946F44EC04F02C
:102D0000F6D70C0E8D6FFA0E956F8FEC03F08D2FAA
:102D1000FAD722EC07F0722D03D0EEEC0BF023D0A3
:102D20007251020803E132EC0CF01DD00C0E946FCE
:102D300044EC04F0010E956F966F16EC04F08D6B69
:102D40008D5139EC01F0000905E08D2B946F44ECB6
:102D500004F0F6D70C0E8D6FFA0E956F8FEC03F022
:102D60008D2FFAD797D496D4EED0725105082FE163
:102D70000C0E946F44EC04F0010E956F966F16ECF8
:102D800004F08D6B8D510EEC03F0000905E08D2BE6
:102D9000946F44EC04F0F6D7030E956F020E966F15
:102DA00016EC04F08D6B8D511EEC03F0000905E06C
:102DB0008D2B946F44EC04F0F6D70C0E8D6FFA0E49
:102DC000956F8FEC03F08D2FFAD764D4BCD072517D
:102DD00006082FE10C0E946F44EC04F0010E956F81
:102DE000966F16EC04F08D6B8D512EEC03F00009FC
:102DF00005E08D2B946F44EC04F0F6D7030E956F2D
:102E0000020E966F16EC04F08D6B8D511EEC03F0E4
:102E1000000905E08D2B946F44EC04F0F6D70C0EFE
:102E20008D6FFA0E956F8FEC03F08D2FFAD732D499
:102E30008AD0725107082FE10C0E946F44EC04F015
:102E4000010E956F966F16EC04F08D6B8D513BEC77
:102E500003F0000905E08D2B946F44EC04F0F6D7E5
:102E6000030E956F020E966F16EC04F08D6B8D516C
:102E70001EEC03F0000905E08D2B946F44EC04F088
:102E8000F6D70C0E8D6FFA0E956F8FEC03F08D2F29
:102E9000FAD700D458D07251080830E10C0E946F64
:102EA00044EC04F0010E956F966F16EC04F08D6BF8
:102EB0008D5148EC03F0000905E08D2B946F44EC34
:102EC00004F0F6D7030E956F020E966F16EC04F021
:102ED0008D6B8D511EEC03F0000905E08D2B946F76
:102EE00044EC04F0F6D70C0E8D6FFA0E956F8FEC54
:102EF00003F08D2FFAD74AEF13F025D0725109084D
:102F000003E1E9EF0DF01FD00C0E946F44EC04F0D8
:102F1000010E956F020E966F16EC04F08D6B8D51BD
:102F200039EC01F0000905E08D2B946F44EC04F0BE
:102F3000F6D70C0E8D6FFA0E956F8FEC03F08D2F78
:102F4000FAD71EEF0DF01FD00C0E946F44EC04F076
:102F5000010E956F020E966F16EC04F08D6B8D517D
:102F60007FEC03F0000905E08D2B946F44EC04F036
:102F7000F6D70C0E8D6FFA0E956F8FEC03F08D2F38
:082F8000FAD71EEF0DF003006B
:0200000400F00A
:04000000234534560A
:020000040030CA
:0E000000000C181E000381000FC00FE00F401F
:00000001FF
;PIC18F4550
;CRC=0562  CREATED="23-oct.-21 10:44"
