:1000000074EF01F0F76A140FF66E000EF722090084
:10001000F5501200280C0106F76A280FF66E000E44
:10002000F7220900F55012002020204249454E5683
:10003000454E49444F5320200000F76A4A0FF66EA0
:10004000000EF7220900F55012004152512E2043B4
:100050004F4D502E2054415244450000F76A6C0F1A
:10006000F66E000EF7220900F55012002020202025
:100070002020202020204D494755454C204D454EFD
:1000800044455A00F76A940FF66E000EF7220900F5
:10009000F5501200204441564944204D41525449E4
:1000A0004E455A200000F76AB60FF66E000EF72292
:1000B0000900F550120020202020202020202020A0
:1000C000475255504F00F76AD60FF66E000EF722D2
:1000D0000900F5501200204E554D45524F00F76A69
:1000E000EE0FF66E000EF7220900F55012002020E8
:1000F000202020202020202020504F5220464156F2
:100100004F520000F76A140FF66E010EF722090035
:10011000F550120020494E475245534520434C416B
:1001200056450000EA6A130EE96EEF5007E0A50E8F
:10013000006E002EFED70000EF2EF9D7000C1B2C0E
:1001400001D01A881C6A1C5004080EE3D8901A3299
:1001500002E28D9001D08D809690000096928D9253
:1001600096928D821C2AEFD796948D8400009694E7
:100170008D94000C0B6A100E006E002EFED700004E
:10018000175203E0010E0B6E01D00B6A000096942B
:100190008D941838196E0F0E191619C01AF00BC06D
:1001A0001BF0CDDF18500F0B196E1A6E0BC01BF031
:1001B000C6DF000C0B6A96948D94140E136EB2DF9A
:1001C000116A115002080AE3030E1A6E0BC01BF0ED
:1001D000B6DF050E136EA6DF112AF3D7020E1A6ED4
:1001E0000BC01BF0ACDF116A1150030811E3036A66
:1001F0001150F2CF12F0F29E05DF12BEF28E126E97
:10020000176A186EB7DF050E136E8CDF112AECD754
:1002100098EF01F099EF01F0010E145CFC0F0FE272
:10022000040F29EF01F0800E156E09D0C00E156E77
:1002300006D0940E156E03D0D40E156E00D0010EAC
:10024000135C152615508009166E176A186E92DF1A
:10025000000CE824F76AF7366D0FF66E020EF722EF
:100260000A00F550FA6E0800F550F96E26022C02CD
:100270003202380212500C0A0BE0060A13E0020A9E
:1002800018E06B0A1BE0040A1EE00F0A21E025D0EB
:10029000176A010E186E6EDF010E0C6E080E136EDB
:1002A00041DF21D00C2A010E136E0CC014F0B4DF14
:1002B0001AD0176A100E186E5DDF15D0176A0C0E73
:1002C000186E58DF10D0176A0F0E186E53DF0BD060
:1002D000176A0F0E186E4EDF06D0010E176E12C091
:1002E00018F048DF00D0000CF86AD09EFE0E006EB9
:1002F000080E016E020EE96E000EEA6EEE6A040050
:10030000002EFCD7012EFAD7EA6AE96AC150C00B69
:100310000F09C16E070EB46E056A066A0D6A0E906B
:100320000F6A106A280E926E000E936E956E42D779
:1003300071D7926A896A936A8A6A956A8C6A0C0E86
:10034000126E98DF010E136E146E66DF116A115083
:1003500063DE000904E0112A126E8CDFF8D7010E6B
:10036000136E020E146E58DF116A115066DE00091A
:1003700004E0112A126E7EDFF8D7D40E116EF00E53
:10038000136ED0DE112EFBD7136ACCDE0C0E126E6C
:1003900071DF010E136E146E3FDF116A11505EDEC5
:1003A000000904E0112A126E65DFF8D7010E136E02
:1003B000020E146E31DF116A115064DE000904E090
:1003C000112A126E57DFF8D7D40E116EF00E136E8D
:1003D000A9DE112EFBD7136AA5DE0C0E126E4ADFC2
:1003E000010E136E146E18DF116A11505CDE0009E5
:1003F00004E0112A126E3EDFF8D7010E136E020ED2
:10040000146E0ADF116A11505EDE000904E0112A41
:10041000126E30DFF8D7D40E116EF00E136E82DE3E
:10042000112EFBD7136A7EDE0C0E126E23DF010E37
:10043000136E146EF1DE116A115051DE000904E0F2
:10044000112A126E17DFF8D7010E136E020E146E0A
:10045000E3DE116A115056DE000904E0112A126E23
:1004600009DFF8D7D40E116EF00E136E5BDE112E7D
:0A047000FBD7136A57DEFF000300FC
:020000040030CA
:0E000000000C1E1E000381000FC00FE00F4019
:00000001FF
;PIC18F4550
;CRC=E102  CREATED="04-sept.-21 20:06"
