:100000005AEF03F0F76A140FF66E000EF72209009C
:10001000F5501200280C0106F76A280FF66E000E44
:10002000F7220900F550120031323341343536429F
:10003000373839432A302344F76A480FF66E000EEA
:10004000F7220900F55012002A00F76A5A0FF66EDF
:10005000000EF7220900F5501200204249454E5685
:10006000454E49444F5320200000F76A7A0FF66E40
:10007000000EF7220900F550120020415251554957
:1000800054454354555241205400F76A9A0FF66E76
:10009000000EF7220900F55012004A45494D59005B
:1000A000F76AB00FF66E000EF7220900F550120045
:1000B00048455252455241205200F76ACA0FF66E27
:1000C000000EF7220900F5501200475255504F001C
:1000D000F76AE00FF66E000EF7220900F5501200E5
:1000E0004E554D45524F20390000F76AFA0FF66E13
:1000F000000EF7220900F5501200202020504F5228
:10010000204641564F5220202000F76A1A0FF66E03
:10011000010EF7220900F550120020494E475245C2
:10012000534520434C4156452000F76A3A0FF66E7E
:10013000010EF7220900F55012004249454E56457E
:100140004E49444F5300F76A560FF66E010EF722E0
:100150000900F5501200414C204D454E5500F76AFC
:100160006E0FF66E010EF7220900F5501200434C97
:1001700041564500F76A840FF66E010EF72209001A
:10018000F5501200494E434F52524543544100002E
:10019000EA6A180EE96EEF500DE0060E016E006A75
:1001A000002EFED7012EFBD77B0E006E002EFED751
:1001B000EF2EF3D7000C202C01D01F88216A21508C
:1001C000040811E3D8901F3202E28D9001D08D8097
:1001D0009690000096928D9200D000D000009692EA
:1001E0008D82212AECD796948D84030E006E002E0A
:1001F000FED796948D94000C056AA60E006E002E14
:10020000FED700001C5203E0010E056E01D0056A06
:10021000000096948D941D381E6E0F0E1E161EC083
:100220001FF005C020F0C7DF1D500F0B1E6E1F6EA4
:1002300005C020F0C0DF000C056A96948D94140E62
:10024000186EA6DF166A165002080AE3030E1F6E28
:1002500005C020F0B0DF050E186E9ADF162AF3D71E
:10026000020E1F6E05C020F0A6DF166A16500308A6
:1002700011E3036A1650F2CF17F0F29EC3DE17BEE9
:10028000F28E176E1C6A1D6EB7DF050E186E80DFCA
:10029000162AECD784EF03F085EF03F0010E195C0A
:1002A000FC0F0FE2040F6BEF01F0800E1A6E09D005
:1002B000C00E1A6E06D0940E1A6E03D0D40E1A6EAB
:1002C00000D0010E185C1A261A5080091B6E1C6A99
:1002D0001D6E92DF000CE824F76AF736F10FF66E18
:1002E000020EF7220A00F550FA6E0800F550F96E7A
:1002F000AA02B002B602BC0217500C0A0BE0060AB2
:1003000013E0020A18E06B0A1BE0040A1EE00F0A61
:1003100021E025D01C6A010E1D6E6EDF010E066EF7
:10032000080E186E35DF21D0062A010E186E06C0A1
:1003300019F0B4DF1AD01C6A100E1D6E5DDF15D0E7
:100340001C6A0C0E1D6E58DF10D01C6A0F0E1D6E3D
:1003500053DF0BD01C6A0F0E1D6E4EDF06D0010E50
:100360001C6E17C01DF048DF00D0000C8E0E006E12
:1003700019C001F018C002F0036A015209E102C07D
:1003800001F0026A080E005E015202E1006A08D024
:10039000D89001BE04D0023601360006F9D7019E7E
:1003A00015EF02F019C020F01D50201A20AE05D024
:1003B000D894D89019BED8802FD019C020F01CC076
:1003C00021F01850215E06E020AE26D0D850010A58
:1003D000D86E22D01DC021F01950215E06E020AE5B
:1003E0001BD0D850010AD86E17D01EC021F01A5069
:1003F000215E06E020AE10D0D850010AD86E0CD095
:100400001FC021F01B50215E06E020AE05D0D85061
:10041000010AD86E01D0D89026EF02F0F19E166A3C
:10042000072A196A07C018F0A1D7CD0E1B6ECC0E93
:100430001A6E4C0E196E7C0E186E03C01FF002C0AF
:100440001EF001C01DF000C01CF0ACD75AE30A50EA
:10045000FC0F17E2040F89EF02F0F00E936E0E0E00
:10046000816E0FD0F00E936E0D0E816E0AD0F00EDD
:10047000936E0B0E816E05D0F00E936E070E816E9B
:1004800000D008A009D08150F00BF00804E10890DA
:1004900009C016F0096A34D08150F00BF0082BE047
:1004A0008150100B02E1176A11D08150200B03E13B
:1004B000010E176E0BD08150400B03E1020E176E38
:1004C00005D08150800B02E1030E176E1750040D0A
:1004D000F350196A186E036A0A501824016E1950F5
:1004E00003220150F2CF18F0F29E96DD18BEF28E74
:1004F000096E088005D00A2A0A50040801E10A6A38
:10050000076A09C016F0F00E936E16C001F0A9EF4D
:1005100002F0E824F76AF7362D0FF66E050EF72283
:100520000A00F550FA6E0800F550F96E5A0464049A
:100530006E047804106A0F6A126A116A060E146E4D
:100540000C0E176ED9DE136A13500308D8A09FD083
:1005500065D701C015F03C0E186E1ADE1552D8B4DE
:1005600060D0010E1324FF0FFC0F4FE2040F49EF80
:1005700003F0300E155C0B6E060E186E010E196E30
:100580008DDE166A165058DD000904E0162A176E33
:10059000B3DEF8D70B3A320E186EFADD36D0300ED5
:1005A000155C0C6E166A165047DD000904E0162A29
:1005B000176EA2DEF8D70C500B26320E186EE8DD4F
:1005C00024D0300E155C0D6E0D3A166A165034DDCF
:1005D000000904E0162A176E8FDEF8D7320E186E67
:1005E000D7DD13D0300E155C0E6E0E500D240C6E40
:1005F000166A165021DD000904E0162A176E7CDE0B
:10060000F8D7320E186EC4DD00D0132A020E166E13
:10061000FA0E186EBDDD162EFBD7106A0F6A126A2D
:10062000116A0F2AD8B4102A105203E10F5014088F
:1006300005E2106A0F6A112AD8B4122A125206E192
:100640001150050803E31350030882E2036A1350B4
:100650000B0F016E000E032203C0EAFF01C0E9FF89
:10066000230EEF6E14C018F0010E196E17DE166A15
:100670001650E2DC000904E0162A176E3DDEF8D7BA
:10068000142A126A116A106A0F6A132A5DD71DEFC5
:1006900004F0E824F76AF736AD0FF66E060EF7227F
:1006A0000A00F550FA6E0800F550F96E72059E05C5
:1006B000C205E405F86AD09EFE0E006E080E016EBB
:1006C000020EE96E000EEA6EEE6A002EFDD7012ED4
:1006D000FBD7EA6AE96AC150C00B0F09C16E070E69
:1006E000B46E076A0890096A0A6A0F6A106A116A8A
:1006F000126A060E146E070E966E000E936E966AC0
:100700008D6A936A8A6A98D5C7D50C0E176EF4DD88
:10071000010E186E196EC2DD166A165096DC0009BD
:1007200004E0162A176EE8DDF8D7010E186E020EE7
:10073000196EB4DD166A165098DC000904E0162A1A
:10074000176EDADDF8D70C0E166EFA0E186E20DD75
:10075000162EFBD70C0E176ECFDD040E186E010E91
:10076000196E9CDD166A165090DC000904E0162A0A
:10077000176EC2DDF8D7030E186E020E196E8EDDED
:10078000166A16508DDC000904E0162A176EB4DDD7
:10079000F8D70C0E166EFA0E186EFADC162EFBD772
:1007A0000C0E176EA9DD040E186E010E196E76DDA3
:1007B000166A165082DC000904E0162A176E9CDDCA
:1007C000F8D7030E186E020E196E68DD166A165001
:1007D0007FDC000904E0162A176E8EDDF8D70C0EB8
:1007E000166EFA0E186ED4DC162EFBD70C0E176E92
:1007F00083DD020E186E010E196E50DD166A16505A
:1008000074DC000904E0162A176E76DDF8D7010EB5
:10081000186E020E196E42DD166A165076DC00095B
:1008200004E0162A176E68DDF8D70C0E166EFA0E65
:10083000186EAEDC162EFBD77DD60B50430802E0B7
:10084000000E01D0010E166E0C50890802E0000E59
:1008500001D0010E161426E00C0E176E4DDD010EB0
:10086000186E196E1BDD166A16505FDC000904E075
:10087000162A176E41DDF8D7030E186E020E196E98
:100880000DDD166A16505FDC000904E0162A176EAB
:1008900033DDF8D70C0E166EFA0E186E79DC162EB4
:1008A000FBD725D00C0E176E27DD040E186E010E37
:1008B000196EF4DC166A165052DC000904E0162AA0
:1008C000176E1ADDF8D7020E186E196EE7DC166A7D
:1008D000165050DC000904E0162A176E0DDDF8D71B
:1008E0000C0E166EFA0E186E53DC162EFBD70C0E7D
:1008F000166EFA0E186E4CDC162EFBD7FF000300A6
:020000040030CA
:0E000000000C181E000381000FC00FE00F401F
:00000001FF
;PIC18F4550
;CRC=B26C  CREATED="08-mar.-22 11:42"
