:10000000EFEF05F0F76A140FF66E000EF722090005
:10001000F5501200280C0106F76A280FF66E000E44
:10002000F7220900F550120031323341343536429F
:10003000373839432A302344F76A480FF66E000EEA
:10004000F7220900F55012004249454E56454E49E7
:10005000444F5300F76A640FF66E000EF722090052
:10006000F55012004152512E20434F4D502E204E3C
:100070004F4348450000F76A860FF66E000EF722E0
:100080000900F55012004A414D50494552204D4F4C
:1000900052454E4F0000F76AA60FF66E000EF7228B
:1000A0000900F550120042524159414E20464F522C
:1000B000494755410000F76AC60FF66E000EF72259
:1000C0000900F5501200475255504F00F76ADC0FF7
:1000D000F66E000EF7220900F55012003900F76A9B
:1000E000EE0FF66E000EF7220900F550120044499B
:1000F0004749544520535520434C41564500F76A23
:100100000E0FF66E010EF7220900F550120042693B
:10011000656E76656E69646F7320616C0000F76AC6
:100120002E0FF66E010EF7220900F55012004D65F4
:100130006E7544656C446973656E6961646F7200C5
:10014000F76A500FF66E010EF7220900F550120003
:100150004449474954452031205041524100F76AF3
:100160006E0FF66E010EF7220900F55012004D4594
:100170004E55204445204A414D5049455200F76AAA
:100180008E0FF66E010EF7220900F5501200444959
:10019000474954452032205041524100F76AAC0F84
:1001A000F66E010EF7220900F55012004D454E552E
:1001B0002044452042524159414E0000F76ACC0F7D
:1001C000F66E010EF7220900F55012004449474926
:1001D000544520554E200000F76AE80FF66E010ED8
:1001E000F7220900F55012004E554D45524F20445C
:1001F000454C203120414C203300F76A0A0FF66E3F
:10020000020EF7220900F55012004552524F5220BB
:100210004445204E554D45524F00F76A2A0FF66E61
:10022000020EF7220900F55012004249454E56458C
:100230004E49444F20414C00F76A480FF66E020EBB
:10024000F7220900F550120044494749544520312E
:100250000000F76A620FF66E020EF7220900F550F1
:10026000120043414D4249415220636C6176650062
:10027000F76A800FF66E020EF7220900F5501200A1
:100280004449474954452039205041524120736127
:100290006C697200F76AA40FF66E020EF72209006D
:1002A000F5501200504F52204641564F52204449BB
:1002B000474954450000F76AC60FF66E020EF72252
:1002C0000900F55012004E5545564120434C415609
:1002D0004500F76AE20FF66E020EF7220900F550AC
:1002E0001200434C415645204D4F44494649434135
:1002F00044410000F76A040FF66E030EF72209006E
:10030000F5501200434F4E20455849544F00F76AAC
:100310001E0FF66E030EF7220900F550120045522B
:10032000524F5220444520434C4156450000F76A45
:100330003E0FF66E030EF7220900F55012004D45F0
:100340004E204645434841205920484F5241000025
:10035000F76A600FF66E030EF7220900F5501200DF
:10036000454E20434F4E535452554343494F4E0040
:10037000F76A800FF66E030EF7220900F55012009F
:100380004D454E55205245504F5254455300F76A43
:100390009E0FF66E030EF7220900F55012004D4530
:1003A0004E204D4F544F522050415320412E0000BB
:1003B000F76AC00FF66E030EF7220900F55012001F
:1003C0004D454E20534552564F4D4F544F5200000D
:1003D000F76AE00FF66E030EF7220900F5501200DF
:1003E0004D454E55204341440000F76AFA0FF66E22
:1003F000030EF7220900F55012004D454E204454DB
:100400004D460000F76A140FF66E040EF72209003D
:10041000F55012004D454E2053454E534F52455313
:100420000000F76A320FF66E040EF7220900F5504D
:1004300012006D656E752064652053616E7469618C
:10044000676F0000F76A540FF66E040EF72209007A
:10045000F55012006D617271756520312070617206
:100460006100F76A720FF66E040EF7220900F5506C
:10047000120063616D6269617220636C6176650070
:10048000F76A900FF66E040EF7220900F55012007D
:100490003920706172612073616C69720000F76AC3
:1004A000AE0FF66E040EF7220900F55012004D65EE
:1004B0006E752064652063616D62696F0000F76A84
:1004C000CE0FF66E040EF7220900F5501200646597
:1004D00020636C6176650000F76AE80FF66E040E23
:1004E000F7220900F5501200444947495445204E6F
:1004F00055452E434C4156450000F76A0A0FF66EEB
:10050000050EF7220900F5501200434F4E54524198
:100510002E204552524F4E454100EA6A2B0EE96E9D
:10052000EF500DE0060E016E006A002EFED7012E80
:10053000FBD77B0E006E002EFED7EF2EF3D7000CFC
:10054000332C01D03288346A3450040811E3D89037
:10055000323202E28D9001D08D809690000096920A
:100560008D9200D000D0000096928D82342AECD774
:1005700096948D84030E006E002EFED796948D9473
:10058000000C0B6AA60E006E002EFED700002F5244
:1005900003E0010E0B6E01D00B6A000096948D945F
:1005A0003038316E0F0E311631C032F00BC033F0DF
:1005B000C7DF30500F0B316E326E0BC033F0C0DF2F
:1005C000000C0B6A96948D94140E2B6EA6DF286A8D
:1005D000285002080AE3030E326E0BC033F0B0DF7E
:1005E000050E2B6E9ADF282AF3D7020E326E0BC04F
:1005F00033F0A6DF286A2850030811E3036A285065
:10060000F2CF29F0F29EFEDC29BEF28E296E2F6A0F
:10061000306EB7DF050E2B6E80DF282AECD712EF85
:1006200006F013EF06F0010E2C5CFC0F0FE2040F36
:1006300030EF03F0800E2D6E09D0C00E2D6E06D067
:10064000940E2D6E03D0D40E2D6E00D0010E2B5CB7
:100650002D262D5080092E6E2F6A306E92DF000CF1
:10066000E824F76AF7367B0FF66E060EF7220A00CB
:10067000F550FA6E0800F550F96E34063A06400659
:1006800046062A500C0A0BE0060A13E0020A18E09C
:100690006B0A1BE0040A1EE00F0A21E025D02F6A36
:1006A000010E306E6EDF010E0C6E080E2B6E35DF04
:1006B00021D00C2A010E2B6E0CC02CF0B4DF1AD006
:1006C0002F6A100E306E5DDF15D02F6A0C0E306E63
:1006D00058DF10D02F6A0F0E306E53DF0BD02F6A09
:1006E0000F0E306E4EDF06D0010E2F6E2AC030F096
:1006F00048DF00D0000C116A1150030818E3036AA8
:100700001150180FE96E000E0320EA6EF2CF2AF0A6
:10071000F29E11C0A9FFA69CA69EA680A8502ABE44
:10072000F28EEF6E010E2B6EF8DE112AE5D7A8EFE0
:1007300006F08E0E006E2BC001F02AC002F0036A94
:10074000015209E102C001F0026A080E005E015286
:1007500002E1006A08D0D89001BE04D0023601360A
:100760000006F9D7019EF8EF03F02BC032F02F50AE
:10077000321A32AE05D0D894D8902BBED8802FD064
:100780002BC032F02EC033F02A50335E06E032AE7A
:1007900026D0D850010AD86E22D02FC033F02B506B
:1007A000335E06E032AE1BD0D850010AD86E17D0A7
:1007B00030C033F02C50335E06E032AE10D0D8504B
:1007C000010AD86E0CD031C033F02D50335E06E0F4
:1007D00032AE05D0D850010AD86E01D0D89009EFBA
:1007E00004F0F19E286A0D2A2B6A0DC02AF0A1D7C9
:1007F000CD0E2D6ECC0E2C6E4C0E2B6E7C0E2A6EFA
:1008000003C031F002C030F001C02FF000C02EF064
:10081000ACD75BE31050FC0F17E2040F6CEF04F051
:10082000F00E936E0E0E816E0FD0F00E936E0D0EC5
:10083000816E0AD0F00E936E0B0E816E05D0F00E15
:10084000936E070E816E00D00EA009D08150F00B80
:10085000F00804E10E900FC028F00F6A35D08150E7
:10086000F00BF0082CE08150100B02E1296A11D046
:100870008150200B03E1010E296E0BD08150400BFB
:1008800003E1020E296E05D08150800B02E1030EB8
:10089000296E2950040DF3502B6A2A6E036A1050FA
:1008A0002A24016E2B5003220150F2CF2AF0F29E2F
:1008B0000CEC00F02ABEF28E0F6E0E8005D0102ACE
:1008C0001050040801E1106A0D6A0FC028F0F00E04
:1008D000936E28C001F0000CE824F76AF736F30F96
:1008E000F66E080EF7220A00F550FA6E0800F55071
:1008F000F96E20082A0834083E080C0E2A6EC1DE64
:10090000256A246A276A266A060E126E116A115039
:100910000308D8A0F7D065DF01C01FF03C0E2B6E96
:10092000FCDD1F52D8B4C0D0010E1124FF0FFC0F04
:10093000D8B0AED0040F83EF05F0060E2B6E010E7B
:100940002C6E71DEEA6A1FC0E9FF000EEF100FE0A7
:10095000EACF29F0E9CF28F0EFCF2AF092DE29C0C4
:10096000EAFF28C0E9FFE92AD8B4EA2AEED7300E18
:100970001F5C146E143A060E2B6E020E2C6E53DEA4
:100980002A0E2A6E7EDE320E2B6EC7DD81D0070E58
:100990002B6E010E2C6E47DEEA6A1FC0E9FF000EC7
:1009A000EF100FE0EACF29F0E9CF28F0EFCF2AF0DF
:1009B00068DE29C0EAFF28C0E9FFE92AD8B4EA2A9C
:1009C000EED7300E1F5C156E15501426070E2B6ED9
:1009D000020E2C6E28DE2A0E2A6E53DE320E2B6E8D
:1009E0009CDD56D0080E2B6E010E2C6E1CDEEA6AC2
:1009F0001FC0E9FF000EEF100FE0EACF29F0E9CFAA
:100A000028F0EFCF2AF03DDE29C0EAFF28C0E9FF39
:100A1000E92AD8B4EA2AEED7300E1F5C166E163AD1
:100A2000080E2B6E020E2C6EFEDD2A0E2A6E29DEBB
:100A3000320E2B6E72DD2CD0090E2B6E010E2C6E39
:100A4000F2DDEA6A1FC0E9FF000EEF100FE0EACF07
:100A500029F0E9CF28F0EFCF2AF013DE29C0EAFF12
:100A600028C0E9FFE92AD8B4EA2AEED7300E1F5C85
:100A7000176E17501624156E090E2B6E020E2C6E73
:100A8000D2DD2A0E2A6EFDDD320E2B6E46DD00D041
:100A9000112A020E286EFA0E2B6E3FDD282EFBD790
:100AA000276A266A256A246A262AD8B4272A275262
:100AB00003E12650140805E2242AD8B4252A276A1F
:100AC000266A1150030806E3255204E12450050864
:100AD000D8B021D7036A1150140FE96E000E03201D
:100AE000EA6E230EEF6E12C02BF0010E2C6E9BDD12
:100AF0002A0E2A6EC6DD122A276A266A256A246A09
:100B0000112A05D7000CE824F76AF736210FF66E94
:100B10000B0EF7220A00F550FA6E0800F550F96E38
:100B20003A098E09E409380A0C0E2A6EAADD256AF4
:100B3000246A276A266A0E9254DE01C01FF03C0E1A
:100B40002B6EEBDC1F520CE0080E2B6E010E2C6E90
:100B50006ADD1FC02AF095DD300E1F5E0E820DD0BB
:100B6000262AD8B4272A275203E12650140805E282
:100B7000242AD8B4252A276A266A255205E124505A
:100B8000050802E30EA2D8D7000C116A1150010823
:100B900025E3036A1150140FE96E000E0320EA6E7C
:100BA000EFCF28F01CC0A9FF28C0A8FFA69CA69ED6
:100BB000A684F2CF00F0F29E0F01550EA76EAA0E8A
:100BC000A76EA682A6B2FED7A6940050F212050E1A
:100BD0002B6E0001A2DC1C2A112AD8D7000CF86A5F
:100BE000D09EFE0E006E080E016E020EE96E000E23
:100BF000EA6EEE6A002EFDD7012EFBD7EA6AE96A9B
:100C0000C150C00B0F09C16E070EB46E056A066AAB
:100C10000D6A0E900F6A106A280E926E000E936E87
:100C2000956ECFD4FED4926A896A936A8A6A956A6D
:100C30008C6A0C0E2A6E25DD010E2B6E2C6EF3DCF9
:100C4000286A28501CEC00F0000904E0282A2A6ECB
:100C500018DDF7D7010E2B6E020E2C6EE4DC286A2D
:100C600028502AEC00F0000904E0282A2A6E09DD49
:100C7000F7D70C0E286EFA0E2B6E4FDC282EFBD702
:100C80000C0E2A6EFEDC010E2B6E2C6ECCDC286A5C
:100C900028503BEC00F0000904E0282A2A6EF1DC21
:100CA000F7D7010E2B6E020E2C6EBDDC286A285081
:100CB0004BEC00F0000904E0282A2A6EE2DCF7D7AA
:100CC0000C0E286EFA0E2B6E28DC282EFBD70C0E8D
:100CD0002A6ED7DC030E2B6E010E2C6EA4DC286A64
:100CE00028505BEC00F0000904E0282A2A6EC9DCD9
:100CF000F7D7020E2B6E2C6E96DC286A285066EC15
:100D000000F0000904E0282A2A6EBBDCF7D70C0E9D
:100D1000286EFA0E2B6E01DC282EFBD70C0E2A6EE5
:100D2000B0DC010E2B6E2C6E7EDC286A28506FEC36
:100D300000F0000904E0282A2A6EA3DCF7D70C0E85
:100D4000286EFA0E2B6E8DEC02F0282EFAD7D3D433
:100D5000D4DD1450120802E0000E01D0010E286EFE
:100D60001550340802E0000E01D0010E2814D8B44A
:100D7000D1D00C0E2A6E85DC010E2B6E2C6E53DC4E
:100D8000286A28507FEC00F0000904E0282A2A6E27
:100D900078DCF7D7040E2B6E020E2C6E44DC286A2A
:100DA00028508FEC00F0000904E0282A2A6E69DC44
:100DB000F7D70C0E286EFA0E2B6E8DEC02F0282E53
:100DC000FAD70C0E2A6E5DDC010E2B6E2C6E2BDC1E
:100DD000286A2850A0EC00F0000904E0282A2A6EB6
:100DE00050DCF7D7010E2B6E020E2C6E1CDC286A2D
:100DF0002850AFEC00F0000904E0282A2A6E41DCFC
:100E0000F7D70C0E286EFA0E2B6E8DEC02F0282E02
:100E1000FAD70C0E2A6E35DC010E2B6E2C6E03DC1D
:100E2000286A2850BFEC00F0000904E0282A2A6E46
:100E300028DCF7D7010E2B6E020E2C6E13EC03F09C
:100E4000286A2850CEEC00F0000904E0282A2A6E17
:100E500018DCF7D70C0E286EFA0E2B6E8DEC02F014
:100E6000282EFAD70C0E2A6E0CDC010E2B6E2C6E7F
:100E700013EC03F0286A2850DEEC00F0000905E0CE
:100E8000282A2A6E41EC03F0F6D7010E2B6E020ED3
:100E90002C6E13EC03F0286A2850ECEC00F00009EB
:100EA00005E0282A2A6E41EC03F0F6D70C0E286ED6
:100EB000FA0E2B6E8DEC02F0282EFAD735DE1F2CA1
:100EC00001D003D31F50020801E134D01F500308A2
:100ED00001E1FF000C0E2A6E41EC03F0010E2B6EB7
:100EE000020E2C6E13EC03F0286A2850FDEC00F083
:100EF000000905E0282A2A6E41EC03F0F6D70C0E13
:100F0000286EFA0E2B6E8DEC02F0282EFAD731D710
:100F100044EF0DF01950145C02E0000E01D0010EF8
:100F2000286E1850155C02E0000E01D0010E281446
:100F3000D8B4BBD21C6A0C0E2A6E41EC03F0010E31
:100F40002B6E2C6E13EC03F0286A28500DEC01F088
:100F5000000905E0282A2A6E41EC03F0F6D7010EBD
:100F60002B6E020E2C6E13EC03F0286A2850AFECA7
:100F700000F0000905E0282A2A6E41EC03F0F6D7BC
:100F80000C0E286EFA0E2B6E8DEC02F0282EFAD77E
:100F90000C0E2A6E41EC03F0010E2B6E2C6E13EC3E
:100FA00003F0286A28501CEC01F0000905E0282A0B
:100FB0002A6E41EC03F0F6D7010E2B6E020E2C6E5A
:100FC00013EC03F0286A285029EC01F0000905E031
:100FD000282A2A6E41EC03F0F6D70C0E286EFA0E82
:100FE0002B6E8DEC02F0282EFAD70C0E2A6E41ECF7
:100FF00003F0010E2B6E2C6E13EC03F0286A2850C0
:1010000038EC01F0000905E0282A2A6E41EC03F0D3
:10101000F6D70C0E286EFA0E2B6E8DEC02F0282EF1
:10102000FAD782DD1F2CBDD00C0E2A6E41EC03F0E6
:10103000010E2B6E2C6E13EC03F0286A28504AEC3C
:1010400001F0000905E0282A2A6E41EC03F0F6D7EA
:10105000010E2B6E020E2C6E13EC03F0286A285042
:101060005BEC01F0000905E0282A2A6E41EC03F050
:10107000F6D70C0E286EFA0E2B6E8DEC02F0282E91
:10108000FAD73BDC14C01DF015C01EF00C0E2A6E02
:1010900041EC03F0010E2B6E2C6E13EC03F0286A6A
:1010A00028504AEC01F0000905E0282A2A6E41EC9C
:1010B00003F0F6D7010E2B6E020E2C6E13EC03F02C
:1010C000286A28505BEC01F0000905E0282A2A6E06
:1010D00041EC03F0F6D70C0E286EFA0E2B6E8DEC59
:1010E00002F0282EFAD709DC1D50145C02E0000E35
:1010F00001D0010E286E1E50155C02E0000E01D0DA
:10110000010E281430E041DD0C0E2A6E41EC03F094
:10111000010E2B6E2C6E13EC03F0286A285069EC3C
:1011200001F0000905E0282A2A6E41EC03F0F6D709
:10113000030E2B6E020E2C6E13EC03F0286A28505F
:101140007AEC01F0000905E0282A2A6E41EC03F050
:10115000F6D70C0E286EFA0E2B6E8DEC02F0282EB0
:10116000FAD7E8D61DD00C0E2A6E41EC03F0010E22
:101170002B6E2C6E13EC03F0286A285087EC01F0DC
:10118000000905E0282A2A6E41EC03F0F6D70C0E80
:10119000286EFA0E2B6E8DEC02F0282EFAD7CAD6E6
:1011A00083D11F5002082FE10C0E2A6E41EC03F090
:1011B000010E2B6E2C6E13EC03F0286A285097EC6E
:1011C00001F0000905E0282A2A6E41EC03F0F6D769
:1011D000030E2B6E020E2C6E13EC03F0286A2850BF
:1011E000A8EC01F0000905E0282A2A6E41EC03F082
:1011F000F6D70C0E286EFA0E2B6E8DEC02F0282E10
:10120000FAD798D651D11F5003082FE10C0E2A6E41
:1012100041EC03F0010E2B6E2C6E13EC03F0286AE8
:101220002850B8EC01F0000905E0282A2A6E41ECAC
:1012300003F0F6D7030E2B6E020E2C6E13EC03F0A8
:10124000286A2850A8EC01F0000905E0282A2A6E37
:1012500041EC03F0F6D70C0E286EFA0E2B6E8DECD7
:1012600002F0282EFAD766D61FD11F5004082FE1AE
:101270000C0E2A6E41EC03F0010E2B6E2C6E13EC5B
:1012800003F0286A2850C7EC01F0000905E0282A7D
:101290002A6E41EC03F0F6D7030E2B6E020E2C6E75
:1012A00013EC03F0286A2850A8EC01F0000905E0CF
:1012B000282A2A6E41EC03F0F6D70C0E286EFA0E9F
:1012C0002B6E8DEC02F0282EFAD734D6EDD01F50BD
:1012D00005082FE10C0E2A6E41EC03F0010E2B6E77
:1012E0002C6E13EC03F0286A2850D8EC01F00009AA
:1012F00005E0282A2A6E41EC03F0F6D7030E2B6E88
:10130000020E2C6E13EC03F0286A2850A8EC01F0B2
:10131000000905E0282A2A6E41EC03F0F6D70C0EEE
:10132000286EFA0E2B6E8DEC02F0282EFAD702D61C
:10133000BBD01F5006082FE10C0E2A6E41EC03F0C3
:10134000010E2B6E2C6E13EC03F0286A2850E8EC8B
:1013500001F0000905E0282A2A6E41EC03F0F6D7D7
:10136000030E2B6E020E2C6E13EC03F0286A28502D
:10137000A8EC01F0000905E0282A2A6E41EC03F0F0
:10138000F6D70C0E286EFA0E2B6E8DEC02F0282E7E
:10139000FAD7D0D589D01F5007082FE10C0E2A6E3E
:1013A00041EC03F0010E2B6E2C6E13EC03F0286A57
:1013B0002850F5EC01F0000905E0282A2A6E41ECDE
:1013C00003F0F6D7030E2B6E020E2C6E13EC03F017
:1013D000286A2850A8EC01F0000905E0282A2A6EA6
:1013E00041EC03F0F6D70C0E286EFA0E2B6E8DEC46
:1013F00002F0282EFAD79ED557D01F5008082FE1AB
:101400000C0E2A6E41EC03F0010E2B6E2C6E13ECC9
:1014100003F0286A285002EC02F0000905E0282AAF
:101420002A6E41EC03F0F6D7030E2B6E020E2C6EE3
:1014300013EC03F0286A2850A8EC01F0000905E03D
:10144000282A2A6E41EC03F0F6D70C0E286EFA0E0D
:101450002B6E8DEC02F0282EFAD76CD525D01F50BC
:10146000090802E186D420D00C0E2A6E41EC03F06C
:10147000010E2B6E020E2C6E13EC03F0286A28501E
:10148000FDEC00F0000905E0282A2A6E41EC03F08B
:10149000F6D70C0E286EFA0E2B6E8DEC02F0282E6D
:1014A000FAD719EF06F065D4EFD21B50145C02E0B6
:1014B000000E01D0010E286E1A50155C02E0000EDD
:1014C00001D0010E2814D8B4C0D2020E1C6E0C0E2E
:1014D0002A6E41EC03F0010E2B6E2C6E13EC03F020
:1014E000286A28507FEC00F0000905E0282A2A6EBF
:1014F00041EC03F0F6D7040E2B6E020E2C6E13ECAB
:1015000003F0286A285011EC02F0000905E0282AAF
:101510002A6E41EC03F0F6D70C0E286EFA0E2B6EF5
:101520008DEC02F0282EFAD70C0E2A6E41EC03F057
:10153000010E2B6E2C6E13EC03F0286A285022EC5F
:1015400002F0000905E0282A2A6E41EC03F0F6D7E4
:10155000010E2B6E020E2C6E13EC03F0286A28503D
:1015600031EC02F0000905E0282A2A6E41EC03F074
:10157000F6D70C0E286EFA0E2B6E8DEC02F0282E8C
:10158000FAD70C0E2A6E41EC03F0010E2B6E2C6E76
:1015900013EC03F0286A285040EC02F0000905E043
:1015A000282A2A6E41EC03F0F6D70C0E286EFA0EAC
:1015B0002B6E8DEC02F0282EFAD794EC05F01F2C40
:1015C000C0D00C0E2A6E41EC03F0010E2B6E2C6E77
:1015D00013EC03F0286A28504FEC02F0000905E0F4
:1015E000282A2A6E41EC03F0F6D7030E2B6E020E6A
:1015F0002C6E13EC03F0286A28505FEC02F000090F
:1016000005E0282A2A6E41EC03F0F6D70C0E286E6E
:10161000FA0E2B6E8DEC02F0282EFAD77DEC04F03A
:1016200014C01DF015C01EF00C0E2A6E41EC03F024
:10163000010E2B6E2C6E13EC03F0286A28504AEC36
:1016400001F0000905E0282A2A6E41EC03F0F6D7E4
:10165000010E2B6E020E2C6E13EC03F0286A28503C
:101660006CEC02F0000905E0282A2A6E41EC03F038
:10167000F6D70C0E286EFA0E2B6E8DEC02F0282E8B
:10168000FAD77DEC04F01D50145C02E0000E01D08E
:10169000010E286E1E50155C02E0000E01D0010EF6
:1016A000281431E0C5EC05F00C0E2A6E41EC03F075
:1016B000010E2B6E2C6E13EC03F0286A285069EC97
:1016C00001F0000905E0282A2A6E41EC03F0F6D764
:1016D000030E2B6E020E2C6E13EC03F0286A2850BA
:1016E0007AEC01F0000905E0282A2A6E41EC03F0AB
:1016F000F6D70C0E286EFA0E2B6E8DEC02F0282E0B
:10170000FAD7E3D61DD00C0E2A6E41EC03F0010E81
:101710002B6E2C6E13EC03F0286A285087EC01F036
:10172000000905E0282A2A6E41EC03F0F6D70C0EDA
:10173000286EFA0E2B6E8DEC02F0282EFAD7C5D645
:1017400083D11F5002082FE10C0E2A6E41EC03F0EA
:10175000010E2B6E2C6E13EC03F0286A285097ECC8
:1017600001F0000905E0282A2A6E41EC03F0F6D7C3
:10177000030E2B6E020E2C6E13EC03F0286A285019
:10178000A8EC01F0000905E0282A2A6E41EC03F0DC
:10179000F6D70C0E286EFA0E2B6E8DEC02F0282E6A
:1017A000FAD793D651D11F5003082FE10C0E2A6EA1
:1017B00041EC03F0010E2B6E2C6E13EC03F0286A43
:1017C0002850B8EC01F0000905E0282A2A6E41EC07
:1017D00003F0F6D7030E2B6E020E2C6E13EC03F003
:1017E000286A2850A8EC01F0000905E0282A2A6E92
:1017F00041EC03F0F6D70C0E286EFA0E2B6E8DEC32
:1018000002F0282EFAD761D61FD11F5004082FE10D
:101810000C0E2A6E41EC03F0010E2B6E2C6E13ECB5
:1018200003F0286A2850C7EC01F0000905E0282AD7
:101830002A6E41EC03F0F6D7030E2B6E020E2C6ECF
:1018400013EC03F0286A2850A8EC01F0000905E029
:10185000282A2A6E41EC03F0F6D70C0E286EFA0EF9
:101860002B6E8DEC02F0282EFAD72FD6EDD01F501C
:1018700005082FE10C0E2A6E41EC03F0010E2B6ED1
:101880002C6E13EC03F0286A2850D8EC01F0000904
:1018900005E0282A2A6E41EC03F0F6D7030E2B6EE2
:1018A000020E2C6E13EC03F0286A2850A8EC01F00D
:1018B000000905E0282A2A6E41EC03F0F6D70C0E49
:1018C000286EFA0E2B6E8DEC02F0282EFAD7FDD57D
:1018D000BBD01F5006082FE10C0E2A6E41EC03F01E
:1018E000010E2B6E2C6E13EC03F0286A2850E8ECE6
:1018F00001F0000905E0282A2A6E41EC03F0F6D732
:10190000030E2B6E020E2C6E13EC03F0286A285087
:10191000A8EC01F0000905E0282A2A6E41EC03F04A
:10192000F6D70C0E286EFA0E2B6E8DEC02F0282ED8
:10193000FAD7CBD589D01F5007082FE10C0E2A6E9D
:1019400041EC03F0010E2B6E2C6E13EC03F0286AB1
:101950002850F5EC01F0000905E0282A2A6E41EC38
:1019600003F0F6D7030E2B6E020E2C6E13EC03F071
:10197000286A2850A8EC01F0000905E0282A2A6E00
:1019800041EC03F0F6D70C0E286EFA0E2B6E8DECA0
:1019900002F0282EFAD799D557D01F5008082FE10A
:1019A0000C0E2A6E41EC03F0010E2B6E2C6E13EC24
:1019B00003F0286A285002EC02F0000905E0282A0A
:1019C0002A6E41EC03F0F6D7030E2B6E020E2C6E3E
:1019D00013EC03F0286A2850A8EC01F0000905E098
:1019E000282A2A6E41EC03F0F6D70C0E286EFA0E68
:1019F0002B6E8DEC02F0282EFAD767D525D01F501C
:101A0000090803E1B9EF06F01FD00C0E2A6E41EC75
:101A100003F0010E2B6E020E2C6E13EC03F0286AFD
:101A20002850FDEC00F0000905E0282A2A6E41EC60
:101A300003F0F6D70C0E286EFA0E2B6E8DEC02F02A
:101A4000282EFAD719EF06F01FD00C0E2A6E41ECA3
:101A500003F0010E2B6E020E2C6E13EC03F0286ABD
:101A600028507DEC02F0000905E0282A2A6E41EC9E
:101A700003F0F6D70C0E286EFA0E2B6E8DEC02F0EA
:0A1A8000282EFAD719EF06F0030034
:0200000400F00A
:040000001644441648
:020000040030CA
:0E000000000C181E000381000FC00FE00F401F
:00000001FF
;PIC18F4550
;CRC=601E  CREATED="14-sept.-21 19:28"
