:1000000098EF09F0F76A140FF66E000EF722090058
:10001000F5501200280C0106F76A280FF66E000E44
:10002000F7220900F550120031323341343536429F
:10003000373839432A302344F76A480FF66E000EEA
:10004000F7220900F5501200444154452000F76A98
:100050005E0FF66E000EF7220900F55012004420E4
:100060000000F76A720FF66E000EF7220900F550D5
:100070001200484F52413A00F76A880FF66E000EA0
:10008000F7220900F55012002020204249454E5623
:10009000454E49444F5320200000F76AAA0FF66EE0
:1000A000000EF7220900F55012004152512E204354
:1000B0004F4D502E2054415244450000F76ACC0F5A
:1000C000F66E000EF7220900F55012004D49475513
:1000D000454C204D454E44455A00F76AEA0FF66EEE
:1000E000000EF7220900F550120020444156494401
:1000F000204D415254494E455A200000F76A0C0FDA
:10010000F66E010EF7220900F550120047525550C5
:100110004F00F76A220FF66E010EF7220900F55024
:100120001200204E554D45524F00F76A3A0FF66EB9
:10013000010EF7220900F5501200504F522046419F
:10014000564F5200F76A540FF66E010EF72209005F
:10015000F5501200494E475245534520434C4156F5
:100160004500F76A720FF66E010EF7220900F5508E
:1001700012004249454E56454E49444F5320414C8A
:100180000000F76A920FF66E010EF7220900F55093
:100190001200204D454E5500F76AA80FF66E010E6D
:1001A000F7220900F55012004D41525155452031BA
:1001B000205041524120454C0000F76ACA0FF66EAC
:1001C000010EF7220900F55012004D454E5520440E
:1001D0004520444156494400F76AE80FF66E010E87
:1001E000F7220900F55012004D4152515545203279
:1001F000205041524120454C0000F76A0A0FF66E2C
:10020000020EF7220900F55012004D454E552044CC
:1002100045204D494755454C0000F76A2A0FF66EB8
:10022000020EF7220900F55012004D41525155457A
:1002300020332050415241200000F76A4A0FF66EE9
:10024000020EF7220900F550120053414C495200AA
:10025000F76A600FF66E020EF7220900F5501200E1
:100260004552524F52204445204E554D45524F0065
:10027000F76A800FF66E020EF7220900F5501200A1
:100280004D454E552055535541522E00F76A9C0F4F
:10029000F66E020EF7220900F55012004D4947553F
:1002A000454C0000F76AB40FF66E020EF722090003
:1002B000F55012004D4152515545204E554D20509C
:1002C00041524100F76AD40FF66E020EF722090080
:1002D000F5501200312043414D4249415220434CD8
:1002E00041564500F76AF40FF66E020EF722090038
:1002F000F550120032204645434841205920484FCE
:1003000052410000F76A140FF66E030EF72209003F
:10031000F550120033205245504F525445530000BF
:10032000F76A300FF66E030EF7220900F55012003F
:1003300034204D4F544F52205041532041205041C2
:100340000000F76A520FF66E030EF7220900F5500F
:1003500012003520534552564F4D4F544F52000016
:10036000F76A700FF66E030EF7220900F5501200BF
:10037000362043414400F76A860FF66E030EF722DB
:100380000900F5501200372044544D460000F76A2A
:100390009E0FF66E030EF7220900F550120038206A
:1003A00053454E534F5245530000F76ABA0FF66E4D
:1003B000030EF7220900F5501200392053414C4931
:1003C0005200F76AD20FF66E030EF7220900F550BD
:1003D00012004D454E2043414D4249415220434C6D
:1003E00041560000F76AF40FF66E030EF72209007B
:1003F000F5501200444947495445204E552E20439C
:100400004C4156450000F76A160FF66E040EF722AF
:100410000900F5501200504F52204641564F5220CD
:100420004449474954450000F76A380FF66E040EF8
:10043000F7220900F5501200444947495445204E1F
:1004400055452E434C4156450000F76A5A0FF66E4B
:10045000040EF7220900F5501200434C4156452086
:100460004D4F44494649434144410000F76A7C0FDF
:10047000F66E040EF7220900F5501200434F4E208D
:10048000455849544F00F76A960FF66E040EF7224E
:100490000900F55012004552524F52204445204366
:1004A0004C4156450000F76AB60FF66E040EF7226F
:1004B0000900F55012004D454E2046454348412065
:1004C0005920484F52410000F76AD80FF66E040ECB
:1004D000F7220900F55012004D454E552052455067
:1004E0004F5254455300F76AF60FF66E040EF7228A
:1004F0000900F5501200454E20434F4E53545255BB
:100500004343494F4E00F76A160FF66E050EF72269
:100510000900F55012004D454E204D4F544F5220CA
:1005200050415320412E0000F76A380FF66E050E39
:10053000F7220900F55012004D454E205345525602
:100540004F4D4F544F520000F76A580FF66E050E8C
:10055000F7220900F55012004D454E552043414405
:100560000000F76A720FF66E050EF7220900F550CB
:1005700012004D454E2044544D460000F76A8C0F42
:10058000F66E050EF7220900F55012004D454E207B
:1005900053454E534F5245530000F76AAA0FF66E6B
:1005A000050EF7220900F550120044415649440057
:1005B000F76AC00FF66E050EF7220900F55012001B
:1005C000434F4E5452412E204552524F4E4541000A
:1005D000EA6A920EE96EEF500DE0060E016E006AB7
:1005E000002EFED7012EFBD77B0E006E002EFED70D
:1005F000EF2EF3D7000C9A2D01D099899B6B9B515C
:10060000040811E3D890993302E28D9001D08D80D7
:100610009690000096928D9200D000D000009692A5
:100620008D829B2BECD796948D84030E006E002E4A
:10063000FED796948D94000C0B6AA60E006E002EC9
:10064000FED70000965303E0010E0B6E01D00B6A3B
:10065000000096948D949739986F0F0E981798C054
:1006600099F00BC09AF0C7DF97510F0B986F996FF5
:100670000BC09AF0C0DF000C0B6A96948D94140E98
:10068000926FA6DF8A6B8A5102080AE3030E996F04
:100690000BC09AF0B0DF050E926F9ADF8A2BF3D76A
:1006A000020E996F0BC09AF0A6DF8A6B8A5103087D
:1006B00011E3036A8A51F2CF8BF0F29EA3DC8BBF69
:1006C000F28E8B6F966B976FB7DF050E926F80DFA0
:1006D0008A2BECD736EF0AF038EF0AF0010E935D63
:1006E000FC0F0FE2040F8BEF03F0800E946F09D024
:1006F000C00E946F06D0940E946F03D0D40E946FF6
:1007000000D0010E925D942794518009956F966BED
:10071000976F92DF000CE824F76AF736310FF66E18
:10072000070EF7220A00F550FA6E0800F550F96E30
:10073000EA06F006F606FC0691510C0A0BE0060AE2
:1007400013E0020A18E06B0A1BE0040A1EE00F0A1D
:1007500021E025D0966B010E976F6EDF010E0C6EB7
:10076000080E926F35DF21D00C2A010E926F0CC05B
:1007700093F0B4DF1AD0966B100E976F5DDF15D033
:10078000966B0C0E976F58DF10D0966B0F0E976F0D
:1007900053DF0BD0966B0F0E976F4EDF06D0010E16
:1007A000966F91C097F048DF00D0000C606B6051ED
:1007B000030818E3036A6051670FE96E000E032017
:1007C000EA6EF2CF8CF0F29E60C0A9FFA69CA69EB6
:1007D000A680A8508CBFF28EEF6E010E926FF8DEED
:1007E000602BE5D7F5EF0AF0080E016E050E006EDE
:1007F000002EFED789909290060E006E002EFED736
:1008000091378992D8B09282D8A09292928080A09B
:10081000FED7012EEBD7050E006E002EFED7899075
:10082000929000009282060E006E002EFED7060EF9
:10083000006E002EFED7928080A0FED7016A060EC1
:10084000006E002EFED780B201808990929089922E
:100850009292000C080E906F00C091F09282060EEA
:10086000006E002EFED7928080A0FED780B2D88086
:1008700080A2D8900136050E006E002EFED7929011
:100880008990902FEBD79282060E006E002EFED735
:1008900089929151D8A492920000928080A0FED7B4
:1008A000050E006E002EFED789909290060E006E07
:1008B000002EFED78992929295EF04F09282050E57
:1008C000006E002EFED79280060E006E002EFED720
:1008D00089929292050E006E002EFED7899092901A
:1008E000A00E916F81DF8DC08FF0906B8DC091F065
:1008F0007BDF8CC091F078DF9282050E006E002EB7
:10090000FED79280060E006E002EFED780A0FED786
:1009100089929292050E006E002EFED789909290D9
:10092000A10E916F61DF006A95D701C08EF092929F
:100930000000928080A0FED7050E006E002EFED72C
:1009400000D000009282050E006E002EFED78EC0F1
:1009500001F0BDEF04F0606B6051030819E3036A16
:1009600060516B0F016E000E032201C08AF003C0BC
:100970008BF08D6B60C08CF0A1D78BC0EAFF8AC072
:10098000E9FF01C0EFFF010E926F22DE602BE4D77A
:10099000F7EF0AF08E0E006E8DC001F08CC002F0F1
:1009A000036A015209E102C001F0026A080E005E0A
:1009B000015202E1006A08D0D89001BE04D002368C
:1009C00001360006F9D7019E29EF05F08DC094F09D
:1009D0009151941B94AF05D0D894D8908DBFD880F6
:1009E0002FD08DC094F090C095F08C51955F06E0AB
:1009F00094AF26D0D850010AD86E22D091C095F07D
:100A00008D51955F06E094AF1BD0D850010AD86E87
:100A100017D092C095F08E51955F06E094AF10D03C
:100A2000D850010AD86E0CD093C095F08F51955FC5
:100A300006E094AF05D0D850010AD86E01D0D89006
:100A40003AEF05F0F19E8A6B0D2A8D6B0DC08CF08C
:100A5000A1D7CD0E8F6FCC0E8E6F4C0E8D6F7C0E8E
:100A60008C6F03C093F002C092F001C091F000C0FF
:100A700090F0ACD75BE31050FC0F17E2040F9DEF32
:100A800005F0F00E936E0E0E816E0FD0F00E936E89
:100A90000D0E816E0AD0F00E936E0B0E816E05D096
:100AA000F00E936E070E816E00D00EA009D081501B
:100AB000F00BF00804E10E900FC08AF00F6A35D0F9
:100AC0008150F00BF0082CE08150100B02E18B6B91
:100AD00011D08150200B03E1010E8B6F0BD08150A0
:100AE000400B03E1020E8B6F05D08150800B02E1B9
:100AF000030E8B6F8B51040DF3508D6B8C6F036A5B
:100B000010508C25016E8D5103220150F2CF8CF0D4
:100B1000F29E0CEC00F08CBFF28E0F6E0E8005D0B2
:100B2000102A1050040801E1106A0D6A0FC08AF003
:100B3000F00E936E8AC001F0000CE824F76AF736D5
:100B4000550FF66E0B0EF7220A00F550FA6E0800EC
:100B5000F550F96E820A8C0A960AA00A0C0E916F63
:100B6000EBDD786B776B7A6B796B060E616F606B80
:100B700060510308D8A0AFD065DF01C072F03C0E11
:100B8000926F26DD7253D8B478D0010E6025FF0F26
:100B9000FC0FD8B066D0040F6CEF06F0060E926F13
:100BA000010E936F9BDD72C091F0C6DD300E725D59
:100BB000636F633B060E926F020E936F8FDD2A0EFA
:100BC000916FBADD320E926F03DD4BD0070E926F3C
:100BD000010E936F83DD72C091F0AEDD300E725D59
:100BE000646F64516327070E926F020E936F76DD78
:100BF0002A0E916FA1DD320E926FEADC32D0080E20
:100C0000926F010E936F6ADD72C091F095DD300E28
:100C1000725D656F653B080E926F020E936F5EDD2D
:100C20002A0E916F89DD320E926FD2DC1AD0090E36
:100C3000926F010E936F52DD72C091F07DDD300E28
:100C4000725D666F66516525646F090E926F020EC4
:100C5000936F44DD2A0E916F6FDD320E926FB8DC18
:100C600000D0602B020E8A6FFA0E926FB1DC8A2FD1
:100C7000FBD77A6B796B786B776B792BD8B47A2B3F
:100C80007A5303E17951140805E2772BD8B4782B15
:100C90007A6B796B6051030806E3785304E177516E
:100CA0000508D8B069D7036A6051630FE96E000E7A
:100CB0000320EA6E230EEF6E61C092F0010E936F77
:100CC0000DDD2A0E916F38DD612B7A6B796B786BB5
:100CD000776B602B4DD7000CE824F76AF736F30FDB
:100CE000F66E0C0EF7220A00F550FA6E0800F55069
:100CF000F96E9C0BCC0BFE0B2E0C0C0E916F1CDDB9
:100D0000786B776B7A6B796B0E929CDE01C072F018
:100D10003C0E926F5DDC72530CE0080E926F010E78
:100D2000936FDCDC72C091F007DD300E725F0E82D3
:100D30000DD0792BD8B47A2B7A5303E1795114086A
:100D400005E2772BD8B4782B7A6B796B785305E171
:100D50007751050802E30EA2D8D7000C9282050E47
:100D6000006E002EFED79280060E006E002EFED77B
:100D700089929292050E006E002EFED78990929075
:100D8000A00E916F31DD8CC08FF0906B8CC091F014
:100D90002BDD8BC091F028DD8DC091F025DD929286
:100DA0000000928080A0FED7050E006E002EFED7B8
:100DB00000D000009282050E006E002EFED79282B7
:100DC000050E006E002EFED79280060E006E002EDD
:100DD000FED789929292050E006E002EFED7899062
:100DE0009290A00E916F00DD01508E9101B08E8126
:100DF0008EA11CD09282050E006E002EFED792802E
:100E0000060E006E002EFED780A0FED78992929229
:100E1000050E006E002EFED789909290A00E916F65
:100E2000E3DC01508E9101B08E81E2D792920000F6
:100E3000928080A0FED7050E006E002EFED700D057
:100E400000009282050E006E002EFED73BEF07F0E9
:100E5000606B6051010816E3036A6051630FE96E2D
:100E6000000E0320EA6EEFCF8AF08C6B6FC08BF020
:100E70008AC08DF073D7050E926FE8EC02F06F2BED
:100E8000602BE7D7000C080E016E050E006E002ED9
:100E9000FED789909290060E006E002EFED78E37F8
:100EA0008992D8B09282D8A09292928080A0FED7E8
:100EB000012EEBD7050E006E002EFED78990929082
:100EC00000009282060E006E002EFED7060E006E07
:100ED000002EFED7928080A0FED7016A060E006E1B
:100EE000002EFED780B201808990929089929292D2
:100EF000000C080E8F6F00C090F09282060E006EFC
:100F0000002EFED7928080A0FED780B2D88080A22B
:100F1000D8900136050E006E002EFED79290899073
:100F20008F2FEBD79282060E006E002EFED789928D
:100F30009051D8A492920000928080A0FED7050E16
:100F4000006E002EFED789909290060E006E002E45
:100F5000FED789929292000C8FC090F0D890903377
:100F6000780E90179031006E00323F0E0016005040
:100F70009025916F8F510F0B9125016E000C9251AE
:100F8000016A915D03E291C000F00CD0006A080E86
:100F9000936F913700369251005CD8B0006E0136E5
:100FA000932FF7D7000C200E8CA9300E8D6F8BC0BD
:100FB00000F08BAF07D0001E002A00C08BF02D0E72
:100FC0008D6F8C8F01508BC091F0640E926FD7DFC4
:100FD00000C08BF0300E01248E6F8BC091F00A0E92
:100FE000926FCDDF300E0024906F300E01248F6F92
:100FF0008DC000F08CA702D08CAF8C958CB90BD033
:101000008CAF22D08CB520D000C08EF08CB31CD019
:1010100000C08FF019D0300E8E5D16E100C08EF04A
:10102000200E8D6F8CA704D08C958C838CAF8C9305
:10103000300E8F5D09E100C08FF0200E8E6F8CA7FF
:10104000F7D78C938CAF8C918CA504D08DC091F088
:101050009CEC03F08CA304D08EC091F09CEC03F0C8
:101060008CA104D08FC091F09CEC03F090C091F063
:101070009CEC03F0000CF29CF29EF2BEFDD7928233
:10108000050E006E002EFED79280060E006E002E1A
:10109000FED789929292050E006E002EFED789909F
:1010A0009290D00E8E6FEFDE030E8E6FECDE92828A
:1010B000050E006E002EFED79280060E006E002EEA
:1010C000FED780A0FED789929292050E006E002E68
:1010D000FED789909290D10E8E6FD5DE010E006EF4
:1010E00008DF01507F0B8A6F8F6F36DF01C088F0F9
:1010F000010E006EFEDE01503F0B8A6F8F6F2CDFFA
:1011000001C085F0010E006EF4DE01501F0B8A6FE6
:101110008F6F22DF01C086F0006AEBDE01C08AF02B
:1011200001C08FF019DF01C087F092920000928019
:1011300080A0FED7050E006E002EFED700D0000066
:101140009282050E006E002EFED7C00EF2120C0E1B
:10115000916F9CEC03F0010E926F936F6EEC03F0B5
:101160008A6B8A511CEC00F08A2B006E916F9CEC0C
:1011700003F0050E8A5DF5E1030E606F605105080E
:1011800018E3036A6051820FE96E000E0320EA6ED5
:10119000EFCF8AF08AC08BF0110E8C6F04DF2F0E18
:1011A000916F9CEC03F0C80E926FE8EC02F0602B9C
:1011B000E5D7100E926F010E936F6EEC03F08A6B01
:1011C0008A5127EC00F0000905E08A2B916F9CEC16
:1011D00003F0F6D7606B60510908D8A0A8D0F29C44
:1011E000F29EF2BEFDD79282050E006E002EFED753
:1011F0009280060E006E002EFED789929292050E06
:10120000006E002EFED789909290D00E8E6F3BDE3E
:101210008E6B39DE9282050E006E002EFED7928014
:10122000060E006E002EFED780A0FED78992929205
:10123000050E006E002EFED789909290D10E8E6F13
:1012400022DE010E006E55DE01507F0B8A6F8F6F1C
:1012500083DE01C084F0010E006E4BDE01507F0B77
:101260008A6F8F6F79DE01C083F0006A42DE015021
:101270003F0B8A6F8F6F70DE01C082F09292000088
:10128000928080A0FED7050E006E002EFED700D003
:1012900000009282050E006E002EFED7C00EF212E4
:1012A000010E926F020E936F6EEC03F08A6B8A51FF
:1012B00031EC00F08A2B006E916F9CEC03F0050E70
:1012C0008A5DF5E1606B6051020818E3036A6051C2
:1012D000820FE96E000E0320EA6EEFCF8AF08AC01B
:1012E0008BF0110E8C6F5FDE3A0E916F9CEC03F069
:1012F000C80E926FE8EC02F0602BE5D7100E926FEB
:10130000020E936F6EEC03F088C08BF0180E8C6F9A
:101310004ADE3A0E916F9CEC03F0050E8A6FC70E01
:10132000926FE8EC02F08A2FFAD7602B54D7000CAA
:10133000F86AD09EFE0E006E080E016E020EE96E77
:10134000000EEA6EEE6A002EFDD7012EFBD7EA6A88
:10135000E96AC150C00B0F09C16E070EB46E056A71
:10136000066A0D6A0E900F6A106A4C0E116E750EA9
:10137000126E6E0E136E650E146E730E156E166A77
:10138000176A186A196A1A6A1B6A4D0E1C6E610E7A
:101390001D6E720E1E6E740E1F6E650E206E730E25
:1013A000216E226A236A246A256A266A4D0E276EF8
:1013B000690E286EE90E296E720E2A6E630E2B6E70
:1013C0006F0E2C6E6C0E2D6E650E2E6E730E2F6EC4
:1013D000306A316A4A0E326E750E336E650E346EA7
:1013E000760E356E650E366E730E376E386A396A54
:1013F0003A6A3B6A3C6A560E3D6E690E3E6E650E59
:101400003F6E720E406E6E0E416E650E426E730E32
:10141000436E446A456A466A476A530E486EE10E57
:10142000496E620E4A6E610E4B6E640E4C6E6F0E0C
:101430004D6E4E6A4F6A506A516A526A440E536E3C
:101440006F0E546E6D0E556E690E566E6E0E576EA3
:10145000670E586E6F0E596E5A6A5B6A5E6A280E86
:10146000926E000E936E956E3CEF03F06CEF03F0FE
:10147000926A896A936A8A6A956A8C6A0C0E916F7D
:101480009CEC03F0010E926F936F6EEC03F08A6B8D
:101490008A513CEC00F0000905E08A2B916F9CEC2E
:1014A00003F0F6D7010E926F020E936F6EEC03F00D
:1014B0008A6B8A514DEC00F0000905E08A2B916F90
:1014C0009CEC03F0F6D70C0E8A6FFA0E926FE8ECE4
:1014D00002F08A2FFAD70C0E916F9CEC03F0010EEC
:1014E000926F936F6EEC03F08A6B8A515EEC00F0A2
:1014F000000905E08A2B916F9CEC03F0F6D7010EF2
:10150000926F020E936F6EEC03F08A6B8A516DEC52
:1015100000F0000905E08A2B916F9CEC03F0F6D7F0
:101520000C0E8A6FFA0E926FE8EC02F08A2FFAD74F
:101530000C0E916F9CEC03F0030E926F010E936FF3
:101540006EEC03F08A6B8A517EEC00F0000905E036
:101550008A2B916F9CEC03F0F6D7020E926F936F7B
:101560006EEC03F08A6B8A5189EC00F0000905E00B
:101570008A2B916F9CEC03F0F6D70C0E8A6FFA0E53
:10158000926FE8EC02F08A2FFAD70C0E916F9CEC68
:1015900003F0020E926F010E936F6EEC03F08A6BF4
:1015A0008A5195EC00F0000905E08A2B916F9CECC4
:1015B00003F0F6D7010E926F020E936F6EEC03F0FC
:1015C0008A6B8A51A2EC00F0000905E08A2B916F2A
:1015D0009CEC03F0F6D70C0E8A6FFA0E926FE8ECD3
:1015E00002F08A2FFAD7D6EF03F0ABEF04F0AEEC9F
:1015F00005F06351120802E0000E01D0010E8A6F5F
:101600006451340802E0000E01D0010E8A15D8B4EE
:10161000E2D00C0E916F9CEC03F0010E926F936F71
:101620006EEC03F08A6B8A51B1EC00F0000905E022
:101630008A2B916F9CEC03F0F6D7040E926F020E8A
:10164000936F6EEC03F08A6B8A51C1EC00F00009D5
:1016500005E08A2B916F9CEC03F0F6D70C0E8A6F95
:10166000FA0E926FE8EC02F08A2FFAD70C0E916F07
:101670009CEC03F0010E926F936F6EEC03F08A6B9B
:101680008A51CCEC00F0000905E08A2B916F9CECAC
:1016900003F0F6D7010E926F020E936F6EEC03F01B
:1016A0008A6B8A51DDEC00F0000905E08A2B916F0E
:1016B0009CEC03F0F6D70C0E8A6FFA0E926FE8ECF2
:1016C00002F08A2FFAD70C0E916F9CEC03F0010EFA
:1016D000926F936F6EEC03F08A6B8A51ECEC00F022
:1016E000000905E08A2B916F9CEC03F0F6D7010E00
:1016F000926F020E936F6EEC03F08A6B8A51FDECD1
:1017000000F0000905E08A2B916F9CEC03F0F6D7FE
:101710000C0E8A6FFA0E926FE8EC02F08A2FFAD75D
:101720000C0E916F9CEC03F0010E926F936F6EECB8
:1017300003F08A6B8A510DEC01F0000905E08A2B59
:10174000916F9CEC03F0F6D7010E926F020E936F2F
:101750006EEC03F08A6B8A511DEC01F0000905E084
:101760008A2B916F9CEC03F0F6D70C0E8A6FFA0E61
:10177000926FE8EC02F08A2FFAD77DEC06F0722D1A
:1017800002D05EEF0FF07251020801E134D07251C5
:10179000030801E1FF000C0E916F9CEC03F0010EB9
:1017A000926F020E936F6EEC03F08A6B8A5128ECF5
:1017B00001F0000905E08A2B916F9CEC03F0F6D74D
:1017C0000C0E8A6FFA0E926FE8EC02F08A2FFAD7AD
:1017D00020D7CEEF12F06B51635D02E0000E01D016
:1017E000010E8A6F6C51645D02E0000E01D0010EA3
:1017F0008A15D8B453D36F6B0C0E916F9CEC03F029
:10180000010E926F936F6EEC03F08A6B8A5138EC85
:1018100001F0000905E08A2B916F9CEC03F0F6D7EC
:10182000010E926F020E936F6EEC03F08A6B8A5179
:1018300046EC01F0000905E08A2B916F9CEC03F067
:10184000F6D70C0E8A6FFA0E926FE8EC02F08A2F30
:10185000FAD70C0E916F9CEC03F0010E926F936F10
:101860006EEC03F08A6B8A5152EC01F0000905E03E
:101870008A2B916F9CEC03F0F6D7010E926F020E4B
:10188000936F6EEC03F08A6B8A5162EC01F00009F1
:1018900005E08A2B916F9CEC03F0F6D70C0E8A6F53
:1018A000FA0E926FE8EC02F08A2FFAD70C0E916FC5
:1018B0009CEC03F0010E926F936F6EEC03F08A6B59
:1018C0008A5172EC01F0000905E08A2B916F9CECC3
:1018D00003F0F6D7010E926F020E936F6EEC03F0D9
:1018E0008A6B8A5182EC01F0000905E08A2B916F26
:1018F0009CEC03F0F6D70C0E8A6FFA0E926FE8ECB0
:1019000002F08A2FFAD70C0E916F9CEC03F0010EB7
:10191000926F936F6EEC03F08A6B8A5190EC01F03A
:10192000000905E08A2B916F9CEC03F0F6D7010EBD
:10193000926F020E936F6EEC03F08A6B8A51A1ECEA
:1019400001F0000905E08A2B916F9CEC03F0F6D7BB
:101950000C0E8A6FFA0E926FE8EC02F08A2FFAD71B
:101960000C0E916F9CEC03F0010E926F936F6EEC76
:1019700003F08A6B8A51B0EC01F0000905E08A2B74
:10198000916F9CEC03F0F6D7010E926F020E936FED
:101990006EEC03F08A6B8A51BBEC01F0000905E0A4
:1019A0008A2B916F9CEC03F0F6D70C0E8A6FFA0E1F
:1019B000926FE8EC02F08A2FFAD70C0E916F9CEC34
:1019C00003F0010E926F936F6EEC03F08A6B8A51F5
:1019D000C7EC01F0000905E08A2B916F9CEC03F045
:1019E000F6D7030E926F020E936F6EEC03F08A6BC4
:1019F0008A51D5EC01F0000905E08A2B916F9CEC2F
:101A000003F0F6D70C0E8A6FFA0E926FE8EC02F034
:101A10008A2FFAD77DEC06F0722DC0D00C0E916F94
:101A20009CEC03F0010E926F936F6EEC03F08A6BE7
:101A30008A51E1EC01F0000905E08A2B916F9CECE2
:101A400003F0F6D7030E926F020E936F6EEC03F065
:101A50008A6B8A51F2EC01F0000905E08A2B916F44
:101A60009CEC03F0F6D70C0E8A6FFA0E926FE8EC3E
:101A700002F08A2FFAD7AEEC05F063C070F064C0B4
:101A800071F00C0E916F9CEC03F0010E926F936F4E
:101A90006EEC03F08A6B8A5103EC02F0000905E05A
:101AA0008A2B916F9CEC03F0F6D7010E926F020E19
:101AB000936F6EEC03F08A6B8A5114EC02F000090C
:101AC00005E08A2B916F9CEC03F0F6D70C0E8A6F21
:101AD000FA0E926FE8EC02F08A2FFAD7AEEC05F01E
:101AE0007051635D02E0000E01D0010E8A6F7151EA
:101AF000645D02E0000E01D0010E8A1531E028EC91
:101B000007F00C0E916F9CEC03F0010E926F936F37
:101B10006EEC03F08A6B8A5125EC02F0000905E0B7
:101B20008A2B916F9CEC03F0F6D7030E926F020E96
:101B3000936F6EEC03F08A6B8A5136EC02F0000969
:101B400005E08A2B916F9CEC03F0F6D70C0E8A6FA0
:101B5000FA0E926FE8EC02F08A2FFAD74CD61DD01D
:101B60000C0E916F9CEC03F0010E926F936F6EEC74
:101B700003F08A6B8A5143EC02F0000905E08A2BDE
:101B8000916F9CEC03F0F6D70C0E8A6FFA0E926FF1
:101B9000E8EC02F08A2FFAD72ED67ED172510208D5
:101BA00028E10C0E916F9CEC03F0010E926F936F85
:101BB0006EEC03F08A6B8A5153EC02F0000905E0E9
:101BC0008A2B916F9CEC03F0F6D70C0E8A6FFA0EFD
:101BD000926FE8EC02F08A2FFAD73BEC08F0280E5F
:101BE0008A6FFA0E926FE8EC02F08A2FFAD703D6CA
:101BF00053D1725103082FE10C0E916F9CEC03F04E
:101C0000010E926F936F6EEC03F08A6B8A5164EC55
:101C100002F0000905E08A2B916F9CEC03F0F6D7E7
:101C2000030E926F020E936F6EEC03F08A6B8A5173
:101C300073EC02F0000905E08A2B916F9CEC03F035
:101C4000F6D70C0E8A6FFA0E926FE8EC02F08A2F2C
:101C5000FAD7D1D521D1725104082FE10C0E916F22
:101C60009CEC03F0010E926F936F6EEC03F08A6BA5
:101C70008A5183EC02F0000905E08A2B916F9CECFD
:101C800003F0F6D7030E926F020E936F6EEC03F023
:101C90008A6B8A5173EC02F0000905E08A2B916F80
:101CA0009CEC03F0F6D70C0E8A6FFA0E926FE8ECFC
:101CB00002F08A2FFAD79FD5EFD0725105082FE195
:101CC0000C0E916F9CEC03F0010E926F936F6EEC13
:101CD00003F08A6B8A5194EC02F0000905E08A2B2C
:101CE000916F9CEC03F0F6D7030E926F020E936F88
:101CF0006EEC03F08A6B8A5173EC02F0000905E088
:101D00008A2B916F9CEC03F0F6D70C0E8A6FFA0EBB
:101D1000926FE8EC02F08A2FFAD76DD5BDD07251E0
:101D200006082FE10C0E916F9CEC03F0010E926FF0
:101D3000936F6EEC03F08A6B8A51A4EC02F00009F9
:101D400005E08A2B916F9CEC03F0F6D7030E926F9F
:101D5000020E936F6EEC03F08A6B8A5173EC02F003
:101D6000000905E08A2B916F9CEC03F0F6D70C0E6E
:101D70008A6FFA0E926FE8EC02F08A2FFAD73BD501
:101D80008BD0725107082FE10C0E916F9CEC03F081
:101D9000010E926F936F6EEC03F08A6B8A51B1EC77
:101DA00002F0000905E08A2B916F9CEC03F0F6D756
:101DB000030E926F020E936F6EEC03F08A6B8A51E2
:101DC00073EC02F0000905E08A2B916F9CEC03F0A4
:101DD000F6D70C0E8A6FFA0E926FE8EC02F08A2F9B
:101DE000FAD709D559D0725108082FE10C0E916F1E
:101DF0009CEC03F0010E926F936F6EEC03F08A6B14
:101E00008A51BEEC02F0000905E08A2B916F9CEC30
:101E100003F0F6D7030E926F020E936F6EEC03F091
:101E20008A6B8A5173EC02F0000905E08A2B916FEE
:101E30009CEC03F0F6D70C0E8A6FFA0E926FE8EC6A
:101E400002F08A2FFAD7D7D427D07251090803E1BC
:101E500009EF0BF021D00C0E916F9CEC03F0010EFA
:101E6000926F020E936F6EEC03F08A6B8A5128EC2E
:101E700001F0000905E08A2B916F9CEC03F0F6D786
:101E80000C0E8A6FFA0E926FE8EC02F08A2FFAD7E6
:101E90003EEF0AF009EF0BF0CEEF12F06D51635DEB
:101EA00002E0000E01D0010E8A6F6E51645D02E007
:101EB000000E01D0010E8A15D8B451D3020E6F6FF7
:101EC0000C0E916F9CEC03F0010E926F936F6EEC11
:101ED00003F08A6B8A5138EC01F0000905E08A2B87
:101EE000916F9CEC03F0F6D7040E926F020E936F85
:101EF0006EEC03F08A6B8A51CDEC02F0000905E02C
:101F00008A2B916F9CEC03F0F6D70C0E8A6FFA0EB9
:101F1000926FE8EC02F08A2FFAD70C0E916F9CECCE
:101F200003F0010E926F936F6EEC03F08A6B8A518F
:101F300052EC01F0000905E08A2B916F9CEC03F054
:101F4000F6D7010E926F020E936F6EEC03F08A6B60
:101F50008A5162EC01F0000905E08A2B916F9CEC3C
:101F600003F0F6D70C0E8A6FFA0E926FE8EC02F0CF
:101F70008A2FFAD70C0E916F9CEC03F0010E926F32
:101F8000936F6EEC03F08A6B8A5172EC01F00009DA
:101F900005E08A2B916F9CEC03F0F6D7010E926F4F
:101FA000020E936F6EEC03F08A6B8A5182EC01F0A3
:101FB000000905E08A2B916F9CEC03F0F6D70C0E1C
:101FC0008A6FFA0E926FE8EC02F08A2FFAD70C0EA5
:101FD000916F9CEC03F0010E926F936F6EEC03F027
:101FE0008A6B8A5190EC01F0000905E08A2B916F11
:101FF0009CEC03F0F6D7010E926F020E936F6EEC1D
:1020000003F08A6B8A51A1EC01F0000905E08A2BEC
:10201000916F9CEC03F0F6D70C0E8A6FFA0E926F5C
:10202000E8EC02F08A2FFAD70C0E916F9CEC03F0CB
:10203000010E926F936F6EEC03F08A6B8A51B0ECD5
:1020400001F0000905E08A2B916F9CEC03F0F6D7B4
:10205000010E926F020E936F6EEC03F08A6B8A5141
:10206000BBEC01F0000905E08A2B916F9CEC03F0BA
:10207000F6D70C0E8A6FFA0E926FE8EC02F08A2FF8
:10208000FAD70C0E916F9CEC03F0010E926F936FD8
:102090006EEC03F08A6B8A51C7EC01F0000905E091
:1020A0008A2B916F9CEC03F0F6D7030E926F020E11
:1020B000936F6EEC03F08A6B8A51D5EC01F0000946
:1020C00005E08A2B916F9CEC03F0F6D70C0E8A6F1B
:1020D000FA0E926FE8EC02F08A2FFAD77DEC06F048
:1020E000722DC0D00C0E916F9CEC03F0010E926F1C
:1020F000936F6EEC03F08A6B8A51E1EC01F00009FA
:1021000005E08A2B916F9CEC03F0F6D7030E926FDB
:10211000020E936F6EEC03F08A6B8A51F2EC01F0C1
:10212000000905E08A2B916F9CEC03F0F6D70C0EAA
:102130008A6FFA0E926FE8EC02F08A2FFAD7AEECB3
:1021400005F063C070F064C071F00C0E916F9CECF0
:1021500003F0010E926F936F6EEC03F08A6B8A515D
:1021600003EC02F0000905E08A2B916F9CEC03F070
:10217000F6D7010E926F020E936F6EEC03F08A6B2E
:102180008A5114EC02F0000905E08A2B916F9CEC57
:1021900003F0F6D70C0E8A6FFA0E926FE8EC02F09D
:1021A0008A2FFAD7AEEC05F07051635D02E0000EA5
:1021B00001D0010E8A6F7151645D02E0000E01D002
:1021C000010E8A1531E028EC07F00C0E916F9CECA3
:1021D00003F0010E926F936F6EEC03F08A6B8A51DD
:1021E00025EC02F0000905E08A2B916F9CEC03F0CE
:1021F000F6D7030E926F020E936F6EEC03F08A6BAC
:102200008A5136EC02F0000905E08A2B916F9CECB4
:1022100003F0F6D70C0E8A6FFA0E926FE8EC02F01C
:102220008A2FFAD74BD61DD00C0E916F9CEC03F081
:10223000010E926F936F6EEC03F08A6B8A5143EC40
:1022400002F0000905E08A2B916F9CEC03F0F6D7B1
:102250000C0E8A6FFA0E926FE8EC02F08A2FFAD712
:102260002DD67CD17251020828E10C0E916F9CECA6
:1022700003F0010E926F936F6EEC03F08A6B8A513C
:1022800053EC02F0000905E08A2B916F9CEC03F0FF
:10229000F6D70C0E8A6FFA0E926FE8EC02F08A2FD6
:1022A000FAD73BEC08F0280E8A6FFA0E926FE8EC32
:1022B00002F08A2FFAD702D651D1725103082FE1CA
:1022C0000C0E916F9CEC03F0010E926F936F6EEC0D
:1022D00003F08A6B8A5164EC02F0000905E08A2B56
:1022E000916F9CEC03F0F6D7030E926F020E936F82
:1022F0006EEC03F08A6B8A5173EC02F0000905E082
:102300008A2B916F9CEC03F0F6D70C0E8A6FFA0EB5
:10231000926FE8EC02F08A2FFAD7D0D51FD1725114
:1023200004082FE10C0E916F9CEC03F0010E926FEC
:10233000936F6EEC03F08A6B8A5183EC02F0000914
:1023400005E08A2B916F9CEC03F0F6D7030E926F99
:10235000020E936F6EEC03F08A6B8A5173EC02F0FD
:10236000000905E08A2B916F9CEC03F0F6D70C0E68
:102370008A6FFA0E926FE8EC02F08A2FFAD79ED598
:10238000EDD0725105082FE10C0E916F9CEC03F01B
:10239000010E926F936F6EEC03F08A6B8A5194EC8E
:1023A00002F0000905E08A2B916F9CEC03F0F6D750
:1023B000030E926F020E936F6EEC03F08A6B8A51DC
:1023C00073EC02F0000905E08A2B916F9CEC03F09E
:1023D000F6D70C0E8A6FFA0E926FE8EC02F08A2F95
:1023E000FAD76CD5BBD0725106082FE10C0E916F55
:1023F0009CEC03F0010E926F936F6EEC03F08A6B0E
:102400008A51A4EC02F0000905E08A2B916F9CEC44
:1024100003F0F6D7030E926F020E936F6EEC03F08B
:102420008A6B8A5173EC02F0000905E08A2B916FE8
:102430009CEC03F0F6D70C0E8A6FFA0E926FE8EC64
:1024400002F08A2FFAD73AD589D0725107082FE1C6
:102450000C0E916F9CEC03F0010E926F936F6EEC7B
:1024600003F08A6B8A51B1EC02F0000905E08A2B77
:10247000916F9CEC03F0F6D7030E926F020E936FF0
:102480006EEC03F08A6B8A5173EC02F0000905E0F0
:102490008A2B916F9CEC03F0F6D70C0E8A6FFA0E24
:1024A000926FE8EC02F08A2FFAD708D557D0725114
:1024B00008082FE10C0E916F9CEC03F0010E926F57
:1024C000936F6EEC03F08A6B8A51BEEC02F0000948
:1024D00005E08A2B916F9CEC03F0F6D7030E926F08
:1024E000020E936F6EEC03F08A6B8A5173EC02F06C
:1024F000000905E08A2B916F9CEC03F0F6D70C0ED7
:102500008A6FFA0E926FE8EC02F08A2FFAD7D6D4CF
:1025100025D07251090803E109EF0BF01FD00C0E12
:10252000916F9CEC03F0010E926F020E936F6EECB4
:1025300003F08A6B8A5128EC01F0000905E08A2B30
:10254000916F9CEC03F0F6D70C0E8A6FFA0E926F27
:10255000E8EC02F08A2FFAD73EEF0AF01FD00C0EFB
:10256000916F9CEC03F0010E926F020E936F6EEC74
:1025700003F08A6B8A51D8EC02F0000905E08A2B3F
:10258000916F9CEC03F0F6D70C0E8A6FFA0E926FE7
:0E259000E8EC02F08A2FFAD73EEF0AF00300C3
:0200000400F00A
:04000000234534560A
:020000040030CA
:0E000000000C181E000381000FC00FE00F401F
:00000001FF
;PIC18F4550
;CRC=96C1  CREATED="30-sept.-21 12:34"
